{
  "transactions": [
    {
      "hash": "0x3782979ff927af492ae349759ad0da9f6ff5e44a02772a1bb6dfc40fdd0bce4b",
      "transactionType": "CALL",
      "contractName": "UntronV3",
      "contractAddress": "0xf336c098f277cad689b09f15eaca8f473b511855",
      "function": "setBridger(address,uint256,address)",
      "arguments": [
        "0x3c499c542cEF5E3811e1192ce70d8cC03d5c3359",
        "1",
        "0x36C93FbE21Cbf275C6d4c86446467de361e56c71"
      ],
      "transaction": {
        "from": "0xdbdb7f1d84bbecaccda2ab7f9e6ca181f685022d",
        "to": "0xf336c098f277cad689b09f15eaca8f473b511855",
        "gas": "0x12885",
        "value": "0x0",
        "input": "0x665e0eed0000000000000000000000003c499c542cef5e3811e1192ce70d8cc03d5c3359000000000000000000000000000000000000000000000000000000000000000100000000000000000000000036c93fbe21cbf275c6d4c86446467de361e56c71",
        "nonce": "0xe",
        "chainId": "0x89"
      },
      "additionalContracts": [],
      "isFixedGasLimit": false
    },
    {
      "hash": "0xc02b573d0d0d388866c5d7987003f484c7c981c310c4815deded75f57e2d3648",
      "transactionType": "CALL",
      "contractName": "UntronV3",
      "contractAddress": "0xf336c098f277cad689b09f15eaca8f473b511855",
      "function": "setBridger(address,uint256,address)",
      "arguments": [
        "0x3c499c542cEF5E3811e1192ce70d8cC03d5c3359",
        "43114",
        "0x36C93FbE21Cbf275C6d4c86446467de361e56c71"
      ],
      "transaction": {
        "from": "0xdbdb7f1d84bbecaccda2ab7f9e6ca181f685022d",
        "to": "0xf336c098f277cad689b09f15eaca8f473b511855",
        "gas": "0x13a09",
        "value": "0x0",
        "input": "0x665e0eed0000000000000000000000003c499c542cef5e3811e1192ce70d8cc03d5c3359000000000000000000000000000000000000000000000000000000000000a86a00000000000000000000000036c93fbe21cbf275c6d4c86446467de361e56c71",
        "nonce": "0xf",
        "chainId": "0x89"
      },
      "additionalContracts": [],
      "isFixedGasLimit": false
    },
    {
      "hash": "0x77013b3f3c3cddbaa5e4b5e8fbafb86c893a83f0ae840207c83f46dd6b14ddbb",
      "transactionType": "CALL",
      "contractName": "UntronV3",
      "contractAddress": "0xf336c098f277cad689b09f15eaca8f473b511855",
      "function": "setBridger(address,uint256,address)",
      "arguments": [
        "0x3c499c542cEF5E3811e1192ce70d8cC03d5c3359",
        "10",
        "0x36C93FbE21Cbf275C6d4c86446467de361e56c71"
      ],
      "transaction": {
        "from": "0xdbdb7f1d84bbecaccda2ab7f9e6ca181f685022d",
        "to": "0xf336c098f277cad689b09f15eaca8f473b511855",
        "gas": "0x12885",
        "value": "0x0",
        "input": "0x665e0eed0000000000000000000000003c499c542cef5e3811e1192ce70d8cc03d5c3359000000000000000000000000000000000000000000000000000000000000000a00000000000000000000000036c93fbe21cbf275c6d4c86446467de361e56c71",
        "nonce": "0x10",
        "chainId": "0x89"
      },
      "additionalContracts": [],
      "isFixedGasLimit": false
    },
    {
      "hash": "0x46c4d267105ef9b2b2469758def25c548c630288495b5a0449f497c10d88912f",
      "transactionType": "CALL",
      "contractName": "UntronV3",
      "contractAddress": "0xf336c098f277cad689b09f15eaca8f473b511855",
      "function": "setBridger(address,uint256,address)",
      "arguments": [
        "0x3c499c542cEF5E3811e1192ce70d8cC03d5c3359",
        "42161",
        "0x36C93FbE21Cbf275C6d4c86446467de361e56c71"
      ],
      "transaction": {
        "from": "0xdbdb7f1d84bbecaccda2ab7f9e6ca181f685022d",
        "to": "0xf336c098f277cad689b09f15eaca8f473b511855",
        "gas": "0x13a09",
        "value": "0x0",
        "input": "0x665e0eed0000000000000000000000003c499c542cef5e3811e1192ce70d8cc03d5c3359000000000000000000000000000000000000000000000000000000000000a4b100000000000000000000000036c93fbe21cbf275c6d4c86446467de361e56c71",
        "nonce": "0x11",
        "chainId": "0x89"
      },
      "additionalContracts": [],
      "isFixedGasLimit": false
    },
    {
      "hash": "0x34bf5729b7445573914c9a50ae2d6d1a09862eccca4907991f709857344a4941",
      "transactionType": "CALL",
      "contractName": "UntronV3",
      "contractAddress": "0xf336c098f277cad689b09f15eaca8f473b511855",
      "function": "setBridger(address,uint256,address)",
      "arguments": [
        "0x3c499c542cEF5E3811e1192ce70d8cC03d5c3359",
        "8453",
        "0x36C93FbE21Cbf275C6d4c86446467de361e56c71"
      ],
      "transaction": {
        "from": "0xdbdb7f1d84bbecaccda2ab7f9e6ca181f685022d",
        "to": "0xf336c098f277cad689b09f15eaca8f473b511855",
        "gas": "0x13a09",
        "value": "0x0",
        "input": "0x665e0eed0000000000000000000000003c499c542cef5e3811e1192ce70d8cc03d5c3359000000000000000000000000000000000000000000000000000000000000210500000000000000000000000036c93fbe21cbf275c6d4c86446467de361e56c71",
        "nonce": "0x12",
        "chainId": "0x89"
      },
      "additionalContracts": [],
      "isFixedGasLimit": false
    },
    {
      "hash": "0x5bba9525d8715a7ca2251a3ff7f32e4302748c04b614219c1515b7afa4de7b61",
      "transactionType": "CALL",
      "contractName": "UntronV3",
      "contractAddress": "0xf336c098f277cad689b09f15eaca8f473b511855",
      "function": "setBridger(address,uint256,address)",
      "arguments": [
        "0x3c499c542cEF5E3811e1192ce70d8cC03d5c3359",
        "137",
        "0x36C93FbE21Cbf275C6d4c86446467de361e56c71"
      ],
      "transaction": {
        "from": "0xdbdb7f1d84bbecaccda2ab7f9e6ca181f685022d",
        "to": "0xf336c098f277cad689b09f15eaca8f473b511855",
        "gas": "0x12885",
        "value": "0x0",
        "input": "0x665e0eed0000000000000000000000003c499c542cef5e3811e1192ce70d8cc03d5c3359000000000000000000000000000000000000000000000000000000000000008900000000000000000000000036c93fbe21cbf275c6d4c86446467de361e56c71",
        "nonce": "0x13",
        "chainId": "0x89"
      },
      "additionalContracts": [],
      "isFixedGasLimit": false
    },
    {
      "hash": "0x4c712681fba699b517a01cae8192a15adb5a512b968a4bf0004c7ff735ba0f5a",
      "transactionType": "CALL",
      "contractName": "UntronV3",
      "contractAddress": "0xf336c098f277cad689b09f15eaca8f473b511855",
      "function": "setBridger(address,uint256,address)",
      "arguments": [
        "0x3c499c542cEF5E3811e1192ce70d8cC03d5c3359",
        "130",
        "0x36C93FbE21Cbf275C6d4c86446467de361e56c71"
      ],
      "transaction": {
        "from": "0xdbdb7f1d84bbecaccda2ab7f9e6ca181f685022d",
        "to": "0xf336c098f277cad689b09f15eaca8f473b511855",
        "gas": "0x12885",
        "value": "0x0",
        "input": "0x665e0eed0000000000000000000000003c499c542cef5e3811e1192ce70d8cc03d5c3359000000000000000000000000000000000000000000000000000000000000008200000000000000000000000036c93fbe21cbf275c6d4c86446467de361e56c71",
        "nonce": "0x14",
        "chainId": "0x89"
      },
      "additionalContracts": [],
      "isFixedGasLimit": false
    },
    {
      "hash": "0xf081db167f99bbd86960f0b3131e213fa761ca278d30bde2aa9bcca666571202",
      "transactionType": "CALL",
      "contractName": "UntronV3",
      "contractAddress": "0xf336c098f277cad689b09f15eaca8f473b511855",
      "function": "setBridger(address,uint256,address)",
      "arguments": [
        "0x3c499c542cEF5E3811e1192ce70d8cC03d5c3359",
        "59144",
        "0x36C93FbE21Cbf275C6d4c86446467de361e56c71"
      ],
      "transaction": {
        "from": "0xdbdb7f1d84bbecaccda2ab7f9e6ca181f685022d",
        "to": "0xf336c098f277cad689b09f15eaca8f473b511855",
        "gas": "0x13a09",
        "value": "0x0",
        "input": "0x665e0eed0000000000000000000000003c499c542cef5e3811e1192ce70d8cc03d5c3359000000000000000000000000000000000000000000000000000000000000e70800000000000000000000000036c93fbe21cbf275c6d4c86446467de361e56c71",
        "nonce": "0x15",
        "chainId": "0x89"
      },
      "additionalContracts": [],
      "isFixedGasLimit": false
    },
    {
      "hash": "0x977ed240b3b75f48f2761b40d58405e5b363467253e90e8f9a08061a599e3461",
      "transactionType": "CALL",
      "contractName": "UntronV3",
      "contractAddress": "0xf336c098f277cad689b09f15eaca8f473b511855",
      "function": "setBridger(address,uint256,address)",
      "arguments": [
        "0x3c499c542cEF5E3811e1192ce70d8cC03d5c3359",
        "146",
        "0x36C93FbE21Cbf275C6d4c86446467de361e56c71"
      ],
      "transaction": {
        "from": "0xdbdb7f1d84bbecaccda2ab7f9e6ca181f685022d",
        "to": "0xf336c098f277cad689b09f15eaca8f473b511855",
        "gas": "0x12885",
        "value": "0x0",
        "input": "0x665e0eed0000000000000000000000003c499c542cef5e3811e1192ce70d8cc03d5c3359000000000000000000000000000000000000000000000000000000000000009200000000000000000000000036c93fbe21cbf275c6d4c86446467de361e56c71",
        "nonce": "0x16",
        "chainId": "0x89"
      },
      "additionalContracts": [],
      "isFixedGasLimit": false
    },
    {
      "hash": "0x8212e10cb35fa4740ff8c511e94d84cafd0979a23edf4c4444c865d1668f262a",
      "transactionType": "CALL",
      "contractName": "UntronV3",
      "contractAddress": "0xf336c098f277cad689b09f15eaca8f473b511855",
      "function": "setBridger(address,uint256,address)",
      "arguments": [
        "0x3c499c542cEF5E3811e1192ce70d8cC03d5c3359",
        "480",
        "0x36C93FbE21Cbf275C6d4c86446467de361e56c71"
      ],
      "transaction": {
        "from": "0xdbdb7f1d84bbecaccda2ab7f9e6ca181f685022d",
        "to": "0xf336c098f277cad689b09f15eaca8f473b511855",
        "gas": "0x13a09",
        "value": "0x0",
        "input": "0x665e0eed0000000000000000000000003c499c542cef5e3811e1192ce70d8cc03d5c335900000000000000000000000000000000000000000000000000000000000001e000000000000000000000000036c93fbe21cbf275c6d4c86446467de361e56c71",
        "nonce": "0x17",
        "chainId": "0x89"
      },
      "additionalContracts": [],
      "isFixedGasLimit": false
    },
    {
      "hash": "0xb57f0c984b8fcd5edc3f187a7160a69f75efe0f02f587ca726bc3a365b7c46da",
      "transactionType": "CALL",
      "contractName": "UntronV3",
      "contractAddress": "0xf336c098f277cad689b09f15eaca8f473b511855",
      "function": "setBridger(address,uint256,address)",
      "arguments": [
        "0x3c499c542cEF5E3811e1192ce70d8cC03d5c3359",
        "999",
        "0x36C93FbE21Cbf275C6d4c86446467de361e56c71"
      ],
      "transaction": {
        "from": "0xdbdb7f1d84bbecaccda2ab7f9e6ca181f685022d",
        "to": "0xf336c098f277cad689b09f15eaca8f473b511855",
        "gas": "0x13a09",
        "value": "0x0",
        "input": "0x665e0eed0000000000000000000000003c499c542cef5e3811e1192ce70d8cc03d5c335900000000000000000000000000000000000000000000000000000000000003e700000000000000000000000036c93fbe21cbf275c6d4c86446467de361e56c71",
        "nonce": "0x18",
        "chainId": "0x89"
      },
      "additionalContracts": [],
      "isFixedGasLimit": false
    },
    {
      "hash": "0xb784c14cce7edec9b65e269fa1da7c65c85dc349ec33a09becf2e3a8bf0221eb",
      "transactionType": "CALL",
      "contractName": "UntronV3",
      "contractAddress": "0xf336c098f277cad689b09f15eaca8f473b511855",
      "function": "setBridger(address,uint256,address)",
      "arguments": [
        "0x3c499c542cEF5E3811e1192ce70d8cC03d5c3359",
        "57073",
        "0x36C93FbE21Cbf275C6d4c86446467de361e56c71"
      ],
      "transaction": {
        "from": "0xdbdb7f1d84bbecaccda2ab7f9e6ca181f685022d",
        "to": "0xf336c098f277cad689b09f15eaca8f473b511855",
        "gas": "0x13a09",
        "value": "0x0",
        "input": "0x665e0eed0000000000000000000000003c499c542cef5e3811e1192ce70d8cc03d5c3359000000000000000000000000000000000000000000000000000000000000def100000000000000000000000036c93fbe21cbf275c6d4c86446467de361e56c71",
        "nonce": "0x19",
        "chainId": "0x89"
      },
      "additionalContracts": [],
      "isFixedGasLimit": false
    },
    {
      "hash": "0x139b2ab76852d9ab7d581f13e7d6c2638887efb441547cbc044050adcd0fb22b",
      "transactionType": "CALL",
      "contractName": "UntronV3",
      "contractAddress": "0xf336c098f277cad689b09f15eaca8f473b511855",
      "function": "setBridger(address,uint256,address)",
      "arguments": [
        "0xc2132D05D31c914a87C6611C10748AEb04B58e8F",
        "1",
        "0x949aB1ceD194C28977B396526F41FcB473010219"
      ],
      "transaction": {
        "from": "0xdbdb7f1d84bbecaccda2ab7f9e6ca181f685022d",
        "to": "0xf336c098f277cad689b09f15eaca8f473b511855",
        "gas": "0x12885",
        "value": "0x0",
        "input": "0x665e0eed000000000000000000000000c2132d05d31c914a87c6611c10748aeb04b58e8f0000000000000000000000000000000000000000000000000000000000000001000000000000000000000000949ab1ced194c28977b396526f41fcb473010219",
        "nonce": "0x1a",
        "chainId": "0x89"
      },
      "additionalContracts": [],
      "isFixedGasLimit": false
    },
    {
      "hash": "0x9f6885ad0b81d253478696eabef6035d18530c2f0eb5e84630779b49d2ccc91e",
      "transactionType": "CALL",
      "contractName": "UntronV3",
      "contractAddress": "0xf336c098f277cad689b09f15eaca8f473b511855",
      "function": "setBridger(address,uint256,address)",
      "arguments": [
        "0xc2132D05D31c914a87C6611C10748AEb04B58e8F",
        "42161",
        "0x949aB1ceD194C28977B396526F41FcB473010219"
      ],
      "transaction": {
        "from": "0xdbdb7f1d84bbecaccda2ab7f9e6ca181f685022d",
        "to": "0xf336c098f277cad689b09f15eaca8f473b511855",
        "gas": "0x13a09",
        "value": "0x0",
        "input": "0x665e0eed000000000000000000000000c2132d05d31c914a87c6611c10748aeb04b58e8f000000000000000000000000000000000000000000000000000000000000a4b1000000000000000000000000949ab1ced194c28977b396526f41fcb473010219",
        "nonce": "0x1b",
        "chainId": "0x89"
      },
      "additionalContracts": [],
      "isFixedGasLimit": false
    },
    {
      "hash": "0xe59366d943297fc07100170d02a1b8af4309396fa0ca42e68a98275bca2090b3",
      "transactionType": "CALL",
      "contractName": "UntronV3",
      "contractAddress": "0xf336c098f277cad689b09f15eaca8f473b511855",
      "function": "setBridger(address,uint256,address)",
      "arguments": [
        "0xc2132D05D31c914a87C6611C10748AEb04B58e8F",
        "137",
        "0x949aB1ceD194C28977B396526F41FcB473010219"
      ],
      "transaction": {
        "from": "0xdbdb7f1d84bbecaccda2ab7f9e6ca181f685022d",
        "to": "0xf336c098f277cad689b09f15eaca8f473b511855",
        "gas": "0x12885",
        "value": "0x0",
        "input": "0x665e0eed000000000000000000000000c2132d05d31c914a87c6611c10748aeb04b58e8f0000000000000000000000000000000000000000000000000000000000000089000000000000000000000000949ab1ced194c28977b396526f41fcb473010219",
        "nonce": "0x1c",
        "chainId": "0x89"
      },
      "additionalContracts": [],
      "isFixedGasLimit": false
    },
    {
      "hash": "0xc030369f687c0067a7f63a5b392fbef3b71fbbc7999c886e4024a033ac49729c",
      "transactionType": "CALL",
      "contractName": "UntronV3",
      "contractAddress": "0xf336c098f277cad689b09f15eaca8f473b511855",
      "function": "setBridger(address,uint256,address)",
      "arguments": [
        "0xc2132D05D31c914a87C6611C10748AEb04B58e8F",
        "10",
        "0x949aB1ceD194C28977B396526F41FcB473010219"
      ],
      "transaction": {
        "from": "0xdbdb7f1d84bbecaccda2ab7f9e6ca181f685022d",
        "to": "0xf336c098f277cad689b09f15eaca8f473b511855",
        "gas": "0x12885",
        "value": "0x0",
        "input": "0x665e0eed000000000000000000000000c2132d05d31c914a87c6611c10748aeb04b58e8f000000000000000000000000000000000000000000000000000000000000000a000000000000000000000000949ab1ced194c28977b396526f41fcb473010219",
        "nonce": "0x1d",
        "chainId": "0x89"
      },
      "additionalContracts": [],
      "isFixedGasLimit": false
    },
    {
      "hash": "0x31ba2bd53562b9652ac614e856904015f78f7267d64423acac80a5ded1a09f11",
      "transactionType": "CALL",
      "contractName": "UntronV3",
      "contractAddress": "0xf336c098f277cad689b09f15eaca8f473b511855",
      "function": "setBridger(address,uint256,address)",
      "arguments": [
        "0xc2132D05D31c914a87C6611C10748AEb04B58e8F",
        "80094",
        "0x949aB1ceD194C28977B396526F41FcB473010219"
      ],
      "transaction": {
        "from": "0xdbdb7f1d84bbecaccda2ab7f9e6ca181f685022d",
        "to": "0xf336c098f277cad689b09f15eaca8f473b511855",
        "gas": "0x128a7",
        "value": "0x0",
        "input": "0x665e0eed000000000000000000000000c2132d05d31c914a87c6611c10748aeb04b58e8f00000000000000000000000000000000000000000000000000000000000138de000000000000000000000000949ab1ced194c28977b396526f41fcb473010219",
        "nonce": "0x1e",
        "chainId": "0x89"
      },
      "additionalContracts": [],
      "isFixedGasLimit": false
    },
    {
      "hash": "0x454c3da137659efe6be34fc06043d5c9788cf95d44e6a383411510cb7bd8daed",
      "transactionType": "CALL",
      "contractName": "UntronV3",
      "contractAddress": "0xf336c098f277cad689b09f15eaca8f473b511855",
      "function": "setBridger(address,uint256,address)",
      "arguments": [
        "0xc2132D05D31c914a87C6611C10748AEb04B58e8F",
        "57073",
        "0x949aB1ceD194C28977B396526F41FcB473010219"
      ],
      "transaction": {
        "from": "0xdbdb7f1d84bbecaccda2ab7f9e6ca181f685022d",
        "to": "0xf336c098f277cad689b09f15eaca8f473b511855",
        "gas": "0x13a09",
        "value": "0x0",
        "input": "0x665e0eed000000000000000000000000c2132d05d31c914a87c6611c10748aeb04b58e8f000000000000000000000000000000000000000000000000000000000000def1000000000000000000000000949ab1ced194c28977b396526f41fcb473010219",
        "nonce": "0x1f",
        "chainId": "0x89"
      },
      "additionalContracts": [],
      "isFixedGasLimit": false
    },
    {
      "hash": "0x961a8b0fbd92e317ebc55eb2d11ef1b186f5c36f142dc7dd01e09b1972ad76b0",
      "transactionType": "CALL",
      "contractName": "UntronV3",
      "contractAddress": "0xf336c098f277cad689b09f15eaca8f473b511855",
      "function": "setBridger(address,uint256,address)",
      "arguments": [
        "0xc2132D05D31c914a87C6611C10748AEb04B58e8F",
        "130",
        "0x949aB1ceD194C28977B396526F41FcB473010219"
      ],
      "transaction": {
        "from": "0xdbdb7f1d84bbecaccda2ab7f9e6ca181f685022d",
        "to": "0xf336c098f277cad689b09f15eaca8f473b511855",
        "gas": "0x12885",
        "value": "0x0",
        "input": "0x665e0eed000000000000000000000000c2132d05d31c914a87c6611c10748aeb04b58e8f0000000000000000000000000000000000000000000000000000000000000082000000000000000000000000949ab1ced194c28977b396526f41fcb473010219",
        "nonce": "0x20",
        "chainId": "0x89"
      },
      "additionalContracts": [],
      "isFixedGasLimit": false
    },
    {
      "hash": "0x782f895d58b28a4924440aace440d1f876993d4f711316c66af741fc02b7d5c8",
      "transactionType": "CALL",
      "contractName": "UntronV3",
      "contractAddress": "0xf336c098f277cad689b09f15eaca8f473b511855",
      "function": "setBridger(address,uint256,address)",
      "arguments": [
        "0xc2132D05D31c914a87C6611C10748AEb04B58e8F",
        "21000000",
        "0x949aB1ceD194C28977B396526F41FcB473010219"
      ],
      "transaction": {
        "from": "0xdbdb7f1d84bbecaccda2ab7f9e6ca181f685022d",
        "to": "0xf336c098f277cad689b09f15eaca8f473b511855",
        "gas": "0x13a2c",
        "value": "0x0",
        "input": "0x665e0eed000000000000000000000000c2132d05d31c914a87c6611c10748aeb04b58e8f0000000000000000000000000000000000000000000000000000000001406f40000000000000000000000000949ab1ced194c28977b396526f41fcb473010219",
        "nonce": "0x21",
        "chainId": "0x89"
      },
      "additionalContracts": [],
      "isFixedGasLimit": false
    },
    {
      "hash": "0x976dde3a0cde6f784687e009a894e7194c73495255bb241cda2cb190ee85936a",
      "transactionType": "CALL",
      "contractName": "UntronV3",
      "contractAddress": "0xf336c098f277cad689b09f15eaca8f473b511855",
      "function": "setBridger(address,uint256,address)",
      "arguments": [
        "0xc2132D05D31c914a87C6611C10748AEb04B58e8F",
        "1329",
        "0x949aB1ceD194C28977B396526F41FcB473010219"
      ],
      "transaction": {
        "from": "0xdbdb7f1d84bbecaccda2ab7f9e6ca181f685022d",
        "to": "0xf336c098f277cad689b09f15eaca8f473b511855",
        "gas": "0x13a09",
        "value": "0x0",
        "input": "0x665e0eed000000000000000000000000c2132d05d31c914a87c6611c10748aeb04b58e8f0000000000000000000000000000000000000000000000000000000000000531000000000000000000000000949ab1ced194c28977b396526f41fcb473010219",
        "nonce": "0x22",
        "chainId": "0x89"
      },
      "additionalContracts": [],
      "isFixedGasLimit": false
    },
    {
      "hash": "0x4de0c490eafd9e85abf0ea0255af6bc789892bc1034df17481feb897b532d6ac",
      "transactionType": "CALL",
      "contractName": "UntronV3",
      "contractAddress": "0xf336c098f277cad689b09f15eaca8f473b511855",
      "function": "setBridger(address,uint256,address)",
      "arguments": [
        "0xc2132D05D31c914a87C6611C10748AEb04B58e8F",
        "14",
        "0x949aB1ceD194C28977B396526F41FcB473010219"
      ],
      "transaction": {
        "from": "0xdbdb7f1d84bbecaccda2ab7f9e6ca181f685022d",
        "to": "0xf336c098f277cad689b09f15eaca8f473b511855",
        "gas": "0x12885",
        "value": "0x0",
        "input": "0x665e0eed000000000000000000000000c2132d05d31c914a87c6611c10748aeb04b58e8f000000000000000000000000000000000000000000000000000000000000000e000000000000000000000000949ab1ced194c28977b396526f41fcb473010219",
        "nonce": "0x23",
        "chainId": "0x89"
      },
      "additionalContracts": [],
      "isFixedGasLimit": false
    },
    {
      "hash": "0x06a72e2321f9cf0aded4b019180bd152c7475fe3d318e108edb01b8f70b40287",
      "transactionType": "CALL",
      "contractName": "UntronV3",
      "contractAddress": "0xf336c098f277cad689b09f15eaca8f473b511855",
      "function": "setBridger(address,uint256,address)",
      "arguments": [
        "0xc2132D05D31c914a87C6611C10748AEb04B58e8F",
        "999",
        "0x949aB1ceD194C28977B396526F41FcB473010219"
      ],
      "transaction": {
        "from": "0xdbdb7f1d84bbecaccda2ab7f9e6ca181f685022d",
        "to": "0xf336c098f277cad689b09f15eaca8f473b511855",
        "gas": "0x13a09",
        "value": "0x0",
        "input": "0x665e0eed000000000000000000000000c2132d05d31c914a87c6611c10748aeb04b58e8f00000000000000000000000000000000000000000000000000000000000003e7000000000000000000000000949ab1ced194c28977b396526f41fcb473010219",
        "nonce": "0x24",
        "chainId": "0x89"
      },
      "additionalContracts": [],
      "isFixedGasLimit": false
    },
    {
      "hash": "0xea54508ed6e39aed8d1d438dcfaf344905d98724d07be7e9eefe68adf7cf9ae5",
      "transactionType": "CALL",
      "contractName": "UntronV3",
      "contractAddress": "0xf336c098f277cad689b09f15eaca8f473b511855",
      "function": "setBridger(address,uint256,address)",
      "arguments": [
        "0xc2132D05D31c914a87C6611C10748AEb04B58e8F",
        "30",
        "0x949aB1ceD194C28977B396526F41FcB473010219"
      ],
      "transaction": {
        "from": "0xdbdb7f1d84bbecaccda2ab7f9e6ca181f685022d",
        "to": "0xf336c098f277cad689b09f15eaca8f473b511855",
        "gas": "0x12885",
        "value": "0x0",
        "input": "0x665e0eed000000000000000000000000c2132d05d31c914a87c6611c10748aeb04b58e8f000000000000000000000000000000000000000000000000000000000000001e000000000000000000000000949ab1ced194c28977b396526f41fcb473010219",
        "nonce": "0x25",
        "chainId": "0x89"
      },
      "additionalContracts": [],
      "isFixedGasLimit": false
    },
    {
      "hash": "0x446760ff80eba0a2a7c667855c9998ee27035486683d164a62dbee3f41d95d3f",
      "transactionType": "CALL",
      "contractName": "UntronV3",
      "contractAddress": "0xf336c098f277cad689b09f15eaca8f473b511855",
      "function": "setBridger(address,uint256,address)",
      "arguments": [
        "0xc2132D05D31c914a87C6611C10748AEb04B58e8F",
        "196",
        "0x949aB1ceD194C28977B396526F41FcB473010219"
      ],
      "transaction": {
        "from": "0xdbdb7f1d84bbecaccda2ab7f9e6ca181f685022d",
        "to": "0xf336c098f277cad689b09f15eaca8f473b511855",
        "gas": "0x12885",
        "value": "0x0",
        "input": "0x665e0eed000000000000000000000000c2132d05d31c914a87c6611c10748aeb04b58e8f00000000000000000000000000000000000000000000000000000000000000c4000000000000000000000000949ab1ced194c28977b396526f41fcb473010219",
        "nonce": "0x26",
        "chainId": "0x89"
      },
      "additionalContracts": [],
      "isFixedGasLimit": false
    },
    {
      "hash": "0x006ba08a064e905d95a97918c415c330f213efdf078aaf34963748d7d2b99193",
      "transactionType": "CALL",
      "contractName": "UntronV3",
      "contractAddress": "0xf336c098f277cad689b09f15eaca8f473b511855",
      "function": "setBridger(address,uint256,address)",
      "arguments": [
        "0xc2132D05D31c914a87C6611C10748AEb04B58e8F",
        "9745",
        "0x949aB1ceD194C28977B396526F41FcB473010219"
      ],
      "transaction": {
        "from": "0xdbdb7f1d84bbecaccda2ab7f9e6ca181f685022d",
        "to": "0xf336c098f277cad689b09f15eaca8f473b511855",
        "gas": "0x13a09",
        "value": "0x0",
        "input": "0x665e0eed000000000000000000000000c2132d05d31c914a87c6611c10748aeb04b58e8f0000000000000000000000000000000000000000000000000000000000002611000000000000000000000000949ab1ced194c28977b396526f41fcb473010219",
        "nonce": "0x27",
        "chainId": "0x89"
      },
      "additionalContracts": [],
      "isFixedGasLimit": false
    },
    {
      "hash": "0x7c4da89f59ab4a3488e15fd8cf131bf00230fa5df73b8ae75231db726be11370",
      "transactionType": "CALL",
      "contractName": "UntronV3",
      "contractAddress": "0xf336c098f277cad689b09f15eaca8f473b511855",
      "function": "setBridger(address,uint256,address)",
      "arguments": [
        "0xc2132D05D31c914a87C6611C10748AEb04B58e8F",
        "1030",
        "0x949aB1ceD194C28977B396526F41FcB473010219"
      ],
      "transaction": {
        "from": "0xdbdb7f1d84bbecaccda2ab7f9e6ca181f685022d",
        "to": "0xf336c098f277cad689b09f15eaca8f473b511855",
        "gas": "0x13a09",
        "value": "0x0",
        "input": "0x665e0eed000000000000000000000000c2132d05d31c914a87c6611c10748aeb04b58e8f0000000000000000000000000000000000000000000000000000000000000406000000000000000000000000949ab1ced194c28977b396526f41fcb473010219",
        "nonce": "0x28",
        "chainId": "0x89"
      },
      "additionalContracts": [],
      "isFixedGasLimit": false
    },
    {
      "hash": "0x0dd97dc0c7f3dbb6810856ae20c39326e11a01b34c356c218ce85269f8678bd5",
      "transactionType": "CALL",
      "contractName": "UntronV3",
      "contractAddress": "0xf336c098f277cad689b09f15eaca8f473b511855",
      "function": "setBridger(address,uint256,address)",
      "arguments": [
        "0xc2132D05D31c914a87C6611C10748AEb04B58e8F",
        "5000",
        "0x949aB1ceD194C28977B396526F41FcB473010219"
      ],
      "transaction": {
        "from": "0xdbdb7f1d84bbecaccda2ab7f9e6ca181f685022d",
        "to": "0xf336c098f277cad689b09f15eaca8f473b511855",
        "gas": "0x13a09",
        "value": "0x0",
        "input": "0x665e0eed000000000000000000000000c2132d05d31c914a87c6611c10748aeb04b58e8f0000000000000000000000000000000000000000000000000000000000001388000000000000000000000000949ab1ced194c28977b396526f41fcb473010219",
        "nonce": "0x29",
        "chainId": "0x89"
      },
      "additionalContracts": [],
      "isFixedGasLimit": false
    },
    {
      "hash": "0x7906175b91d89e7f7348de409a65c5c7ddbdf2715280ee97c77372d1f32f2e53",
      "transactionType": "CALL",
      "contractName": "UntronV3",
      "contractAddress": "0xf336c098f277cad689b09f15eaca8f473b511855",
      "function": "setBridger(address,uint256,address)",
      "arguments": [
        "0xc2132D05D31c914a87C6611C10748AEb04B58e8F",
        "143",
        "0x949aB1ceD194C28977B396526F41FcB473010219"
      ],
      "transaction": {
        "from": "0xdbdb7f1d84bbecaccda2ab7f9e6ca181f685022d",
        "to": "0xf336c098f277cad689b09f15eaca8f473b511855",
        "gas": "0x12885",
        "value": "0x0",
        "input": "0x665e0eed000000000000000000000000c2132d05d31c914a87c6611c10748aeb04b58e8f000000000000000000000000000000000000000000000000000000000000008f000000000000000000000000949ab1ced194c28977b396526f41fcb473010219",
        "nonce": "0x2a",
        "chainId": "0x89"
      },
      "additionalContracts": [],
      "isFixedGasLimit": false
    },
    {
      "hash": "0x1c3cd77d4e0baf374f4a90110e8d0c115c20d46daf74d43a2629f95f0cf582c7",
      "transactionType": "CALL",
      "contractName": "UntronV3",
      "contractAddress": "0xf336c098f277cad689b09f15eaca8f473b511855",
      "function": "setBridger(address,uint256,address)",
      "arguments": [
        "0xc2132D05D31c914a87C6611C10748AEb04B58e8F",
        "988",
        "0x949aB1ceD194C28977B396526F41FcB473010219"
      ],
      "transaction": {
        "from": "0xdbdb7f1d84bbecaccda2ab7f9e6ca181f685022d",
        "to": "0xf336c098f277cad689b09f15eaca8f473b511855",
        "gas": "0x13a09",
        "value": "0x0",
        "input": "0x665e0eed000000000000000000000000c2132d05d31c914a87c6611c10748aeb04b58e8f00000000000000000000000000000000000000000000000000000000000003dc000000000000000000000000949ab1ced194c28977b396526f41fcb473010219",
        "nonce": "0x2b",
        "chainId": "0x89"
      },
      "additionalContracts": [],
      "isFixedGasLimit": false
    }
  ],
  "receipts": [
    {
      "status": "0x1",
      "cumulativeGasUsed": "0x1692a8b",
      "logs": [
        {
          "address": "0xf336c098f277cad689b09f15eaca8f473b511855",
          "topics": [
            "0x427db48f8cd0cf7fdabcdbc1327c7db26ce3a544292ba380ef07d5175af729cd",
            "0x0000000000000000000000003c499c542cef5e3811e1192ce70d8cc03d5c3359",
            "0x0000000000000000000000000000000000000000000000000000000000000001"
          ],
          "data": "0x00000000000000000000000036c93fbe21cbf275c6d4c86446467de361e56c71",
          "blockHash": "0xcb4e64d9aeb6c98be79d646e3f980ffa234df7d6e37b954c0da76300b5f881ec",
          "blockNumber": "0x4cfdacb",
          "blockTimestamp": "0x694be2a1",
          "transactionHash": "0x3782979ff927af492ae349759ad0da9f6ff5e44a02772a1bb6dfc40fdd0bce4b",
          "transactionIndex": "0x83",
          "logIndex": "0x3e2",
          "removed": false
        },
        {
          "address": "0x0000000000000000000000000000000000001010",
          "topics": [
            "0x4dfe1bbbcf077ddc3e01291eea2d5c70c2b422b415d95645b9adcfd678cb1d63",
            "0x0000000000000000000000000000000000000000000000000000000000001010",
            "0x000000000000000000000000dbdb7f1d84bbecaccda2ab7f9e6ca181f685022d",
            "0x0000000000000000000000007ee41d8a25641000661b1ef5e6ae8a00400466b0"
          ],
          "data": "0x0000000000000000000000000000000000000000000000000006d570ba5d640000000000000000000000000000000000000000000000000f35e2b7f6f49623ae00000000000000000000000000000000000000000003569197b8455221078f4300000000000000000000000000000000000000000000000f35dbe2863a38bfae00000000000000000000000000000000000000000003569197bf1ac2db64f343",
          "blockHash": "0xcb4e64d9aeb6c98be79d646e3f980ffa234df7d6e37b954c0da76300b5f881ec",
          "blockNumber": "0x4cfdacb",
          "blockTimestamp": "0x694be2a1",
          "transactionHash": "0x3782979ff927af492ae349759ad0da9f6ff5e44a02772a1bb6dfc40fdd0bce4b",
          "transactionIndex": "0x83",
          "logIndex": "0x3e3",
          "removed": false
        }
      ],
      "logsBloom": "0x00000000000000000000000000000000000000000000000000000000000000000000000000000000000000000000000000008000000000000200000000040000000000000040000000000000000000800004000000040000000500000000000000000000000000000000000000000000000000000000000080000000000000000000002000000000020000800400000000000000000000000000000000000000200000000000000040000000000000000000000000000000000000008000004000040000000000800001000000000000000000400000004000100000000040000000000000000000000000000000000000000000000000000000000000100000",
      "type": "0x2",
      "transactionHash": "0x3782979ff927af492ae349759ad0da9f6ff5e44a02772a1bb6dfc40fdd0bce4b",
      "transactionIndex": "0x83",
      "blockHash": "0xcb4e64d9aeb6c98be79d646e3f980ffa234df7d6e37b954c0da76300b5f881ec",
      "blockNumber": "0x4cfdacb",
      "gasUsed": "0xd6ae",
      "effectiveGasPrice": "0x16b00ac9a5",
      "from": "0xdbdb7f1d84bbecaccda2ab7f9e6ca181f685022d",
      "to": "0xf336c098f277cad689b09f15eaca8f473b511855",
      "contractAddress": null
    },
    {
      "status": "0x1",
      "cumulativeGasUsed": "0x16daf96",
      "logs": [
        {
          "address": "0xf336c098f277cad689b09f15eaca8f473b511855",
          "topics": [
            "0x427db48f8cd0cf7fdabcdbc1327c7db26ce3a544292ba380ef07d5175af729cd",
            "0x0000000000000000000000003c499c542cef5e3811e1192ce70d8cc03d5c3359",
            "0x000000000000000000000000000000000000000000000000000000000000a86a"
          ],
          "data": "0x00000000000000000000000036c93fbe21cbf275c6d4c86446467de361e56c71",
          "blockHash": "0xcb4e64d9aeb6c98be79d646e3f980ffa234df7d6e37b954c0da76300b5f881ec",
          "blockNumber": "0x4cfdacb",
          "blockTimestamp": "0x694be2a1",
          "transactionHash": "0xc02b573d0d0d388866c5d7987003f484c7c981c310c4815deded75f57e2d3648",
          "transactionIndex": "0x86",
          "logIndex": "0x3f2",
          "removed": false
        },
        {
          "address": "0x0000000000000000000000000000000000001010",
          "topics": [
            "0x4dfe1bbbcf077ddc3e01291eea2d5c70c2b422b415d95645b9adcfd678cb1d63",
            "0x0000000000000000000000000000000000000000000000000000000000001010",
            "0x000000000000000000000000dbdb7f1d84bbecaccda2ab7f9e6ca181f685022d",
            "0x0000000000000000000000007ee41d8a25641000661b1ef5e6ae8a00400466b0"
          ],
          "data": "0x0000000000000000000000000000000000000000000000000006d5d28450cc0000000000000000000000000000000000000000000000000f35cfb16248b1278800000000000000000000000000000000000000000003569197dd19c411f3f14300000000000000000000000000000000000000000000000f35c8db8fc4605b8800000000000000000000000000000000000000000003569197e3ef969644bd43",
          "blockHash": "0xcb4e64d9aeb6c98be79d646e3f980ffa234df7d6e37b954c0da76300b5f881ec",
          "blockNumber": "0x4cfdacb",
          "blockTimestamp": "0x694be2a1",
          "transactionHash": "0xc02b573d0d0d388866c5d7987003f484c7c981c310c4815deded75f57e2d3648",
          "transactionIndex": "0x86",
          "logIndex": "0x3f3",
          "removed": false
        }
      ],
      "logsBloom": "0x00000000100000000000000000000000000000000000000000000000000000000000000000000000000000000000000000008000000000000200000000000000000000000040000000000000000000800004000000000000000500000000000000000000000000000000000000000000000000000000000080000000000000000000002000000000020000800400000000000000000000000000000000000000200000000000000040000000000000000000000000000000000000008000004000040000000000800001000000000000000000400000004000100000000000000000000000000000000000000000000000000000002000000000000000100080",
      "type": "0x2",
      "transactionHash": "0xc02b573d0d0d388866c5d7987003f484c7c981c310c4815deded75f57e2d3648",
      "transactionIndex": "0x86",
      "blockHash": "0xcb4e64d9aeb6c98be79d646e3f980ffa234df7d6e37b954c0da76300b5f881ec",
      "blockNumber": "0x4cfdacb",
      "gasUsed": "0xd6ba",
      "effectiveGasPrice": "0x16b00ac9a5",
      "from": "0xdbdb7f1d84bbecaccda2ab7f9e6ca181f685022d",
      "to": "0xf336c098f277cad689b09f15eaca8f473b511855",
      "contractAddress": null
    },
    {
      "status": "0x1",
      "cumulativeGasUsed": "0x16e8644",
      "logs": [
        {
          "address": "0xf336c098f277cad689b09f15eaca8f473b511855",
          "topics": [
            "0x427db48f8cd0cf7fdabcdbc1327c7db26ce3a544292ba380ef07d5175af729cd",
            "0x0000000000000000000000003c499c542cef5e3811e1192ce70d8cc03d5c3359",
            "0x000000000000000000000000000000000000000000000000000000000000000a"
          ],
          "data": "0x00000000000000000000000036c93fbe21cbf275c6d4c86446467de361e56c71",
          "blockHash": "0xcb4e64d9aeb6c98be79d646e3f980ffa234df7d6e37b954c0da76300b5f881ec",
          "blockNumber": "0x4cfdacb",
          "blockTimestamp": "0x694be2a1",
          "transactionHash": "0x77013b3f3c3cddbaa5e4b5e8fbafb86c893a83f0ae840207c83f46dd6b14ddbb",
          "transactionIndex": "0x87",
          "logIndex": "0x3f4",
          "removed": false
        },
        {
          "address": "0x0000000000000000000000000000000000001010",
          "topics": [
            "0x4dfe1bbbcf077ddc3e01291eea2d5c70c2b422b415d95645b9adcfd678cb1d63",
            "0x0000000000000000000000000000000000000000000000000000000000001010",
            "0x000000000000000000000000dbdb7f1d84bbecaccda2ab7f9e6ca181f685022d",
            "0x0000000000000000000000007ee41d8a25641000661b1ef5e6ae8a00400466b0"
          ],
          "data": "0x0000000000000000000000000000000000000000000000000006d570ba5d640000000000000000000000000000000000000000000000000f35bca9bd5c4ab7a600000000000000000000000000000000000000000003569197e3ef969644bd4300000000000000000000000000000000000000000000000f35b5d44ca1ed53a600000000000000000000000000000000000000000003569197eac50750a22143",
          "blockHash": "0xcb4e64d9aeb6c98be79d646e3f980ffa234df7d6e37b954c0da76300b5f881ec",
          "blockNumber": "0x4cfdacb",
          "blockTimestamp": "0x694be2a1",
          "transactionHash": "0x77013b3f3c3cddbaa5e4b5e8fbafb86c893a83f0ae840207c83f46dd6b14ddbb",
          "transactionIndex": "0x87",
          "logIndex": "0x3f5",
          "removed": false
        }
      ],
      "logsBloom": "0x00000000000000000000000000000000000000000000000000000000000000000000000000000000000000000000000000008000040000000220000000000000000000000040000000000000000000800004000000000000000500000000000000000000000000000000000000000000000000000000000080000000000000000000002000000000030000800400000000000000000000000000000000000000200000000000000040000000000000000000000000000000000000008000004000040000000000800001000000000000000000400000004000100000000000000000000000000000000000000000000000000000000000000000000000100000",
      "type": "0x2",
      "transactionHash": "0x77013b3f3c3cddbaa5e4b5e8fbafb86c893a83f0ae840207c83f46dd6b14ddbb",
      "transactionIndex": "0x87",
      "blockHash": "0xcb4e64d9aeb6c98be79d646e3f980ffa234df7d6e37b954c0da76300b5f881ec",
      "blockNumber": "0x4cfdacb",
      "gasUsed": "0xd6ae",
      "effectiveGasPrice": "0x16b00ac9a5",
      "from": "0xdbdb7f1d84bbecaccda2ab7f9e6ca181f685022d",
      "to": "0xf336c098f277cad689b09f15eaca8f473b511855",
      "contractAddress": null
    },
    {
      "status": "0x1",
      "cumulativeGasUsed": "0x16f5cfe",
      "logs": [
        {
          "address": "0xf336c098f277cad689b09f15eaca8f473b511855",
          "topics": [
            "0x427db48f8cd0cf7fdabcdbc1327c7db26ce3a544292ba380ef07d5175af729cd",
            "0x0000000000000000000000003c499c542cef5e3811e1192ce70d8cc03d5c3359",
            "0x000000000000000000000000000000000000000000000000000000000000a4b1"
          ],
          "data": "0x00000000000000000000000036c93fbe21cbf275c6d4c86446467de361e56c71",
          "blockHash": "0xcb4e64d9aeb6c98be79d646e3f980ffa234df7d6e37b954c0da76300b5f881ec",
          "blockNumber": "0x4cfdacb",
          "blockTimestamp": "0x694be2a1",
          "transactionHash": "0x46c4d267105ef9b2b2469758def25c548c630288495b5a0449f497c10d88912f",
          "transactionIndex": "0x88",
          "logIndex": "0x3f6",
          "removed": false
        },
        {
          "address": "0x0000000000000000000000000000000000001010",
          "topics": [
            "0x4dfe1bbbcf077ddc3e01291eea2d5c70c2b422b415d95645b9adcfd678cb1d63",
            "0x0000000000000000000000000000000000000000000000000000000000001010",
            "0x000000000000000000000000dbdb7f1d84bbecaccda2ab7f9e6ca181f685022d",
            "0x0000000000000000000000007ee41d8a25641000661b1ef5e6ae8a00400466b0"
          ],
          "data": "0x0000000000000000000000000000000000000000000000000006d5d28450cc0000000000000000000000000000000000000000000000000f35a9a328b065bb8000000000000000000000000000000000000000000003569197eac50750a2214300000000000000000000000000000000000000000000000f35a2cd562c14ef8000000000000000000000000000000000000000000003569197f19ad9d4f2ed43",
          "blockHash": "0xcb4e64d9aeb6c98be79d646e3f980ffa234df7d6e37b954c0da76300b5f881ec",
          "blockNumber": "0x4cfdacb",
          "blockTimestamp": "0x694be2a1",
          "transactionHash": "0x46c4d267105ef9b2b2469758def25c548c630288495b5a0449f497c10d88912f",
          "transactionIndex": "0x88",
          "logIndex": "0x3f7",
          "removed": false
        }
      ],
      "logsBloom": "0x00000000000000000000000000000000000000000000000000000000000000000000000000000000000000000000000000008000000000000200000000000000000000000040000000000000000000800004000000000000000500000000000000000000000000000000000000000000000000000000000080000000000000000000002000000000020000800400000000000000000000000000000000000000200000000000000040000000000000000000000000000000000000008000004000040000000000810001000000000000000000400000004000100000000000000000000000000000000000000000100000000000000000000000000000100000",
      "type": "0x2",
      "transactionHash": "0x46c4d267105ef9b2b2469758def25c548c630288495b5a0449f497c10d88912f",
      "transactionIndex": "0x88",
      "blockHash": "0xcb4e64d9aeb6c98be79d646e3f980ffa234df7d6e37b954c0da76300b5f881ec",
      "blockNumber": "0x4cfdacb",
      "gasUsed": "0xd6ba",
      "effectiveGasPrice": "0x16b00ac9a5",
      "from": "0xdbdb7f1d84bbecaccda2ab7f9e6ca181f685022d",
      "to": "0xf336c098f277cad689b09f15eaca8f473b511855",
      "contractAddress": null
    },
    {
      "status": "0x1",
      "cumulativeGasUsed": "0x17033b8",
      "logs": [
        {
          "address": "0xf336c098f277cad689b09f15eaca8f473b511855",
          "topics": [
            "0x427db48f8cd0cf7fdabcdbc1327c7db26ce3a544292ba380ef07d5175af729cd",
            "0x0000000000000000000000003c499c542cef5e3811e1192ce70d8cc03d5c3359",
            "0x0000000000000000000000000000000000000000000000000000000000002105"
          ],
          "data": "0x00000000000000000000000036c93fbe21cbf275c6d4c86446467de361e56c71",
          "blockHash": "0xcb4e64d9aeb6c98be79d646e3f980ffa234df7d6e37b954c0da76300b5f881ec",
          "blockNumber": "0x4cfdacb",
          "blockTimestamp": "0x694be2a1",
          "transactionHash": "0x34bf5729b7445573914c9a50ae2d6d1a09862eccca4907991f709857344a4941",
          "transactionIndex": "0x89",
          "logIndex": "0x3f8",
          "removed": false
        },
        {
          "address": "0x0000000000000000000000000000000000001010",
          "topics": [
            "0x4dfe1bbbcf077ddc3e01291eea2d5c70c2b422b415d95645b9adcfd678cb1d63",
            "0x0000000000000000000000000000000000000000000000000000000000001010",
            "0x000000000000000000000000dbdb7f1d84bbecaccda2ab7f9e6ca181f685022d",
            "0x0000000000000000000000007ee41d8a25641000661b1ef5e6ae8a00400466b0"
          ],
          "data": "0x0000000000000000000000000000000000000000000000000006d5d28450cc0000000000000000000000000000000000000000000000000f35969b83c3ff4b9e00000000000000000000000000000000000000000003569197f19ad9d4f2ed4300000000000000000000000000000000000000000000000f358fc5b13fae7f9e00000000000000000000000000000000000000000003569197f870ac5943b943",
          "blockHash": "0xcb4e64d9aeb6c98be79d646e3f980ffa234df7d6e37b954c0da76300b5f881ec",
          "blockNumber": "0x4cfdacb",
          "blockTimestamp": "0x694be2a1",
          "transactionHash": "0x34bf5729b7445573914c9a50ae2d6d1a09862eccca4907991f709857344a4941",
          "transactionIndex": "0x89",
          "logIndex": "0x3f9",
          "removed": false
        }
      ],
      "logsBloom": "0x00000000000000000000000000000000000000000000000000000000000000000000000000000000000000000000000000008000000000000201000000000000000000000040000000000000000000800004000000000000000500000000000000010000000000000000000000000000000000000000000080000000000000000000002000000000020000800400000000000000000000000000000020000000200000000000000040000000000000000000000000000000000000008000004000040000000000800001000000000000000000400000004000100000000000000000000000000000000000000000000000000000000000000000000000100000",
      "type": "0x2",
      "transactionHash": "0x34bf5729b7445573914c9a50ae2d6d1a09862eccca4907991f709857344a4941",
      "transactionIndex": "0x89",
      "blockHash": "0xcb4e64d9aeb6c98be79d646e3f980ffa234df7d6e37b954c0da76300b5f881ec",
      "blockNumber": "0x4cfdacb",
      "gasUsed": "0xd6ba",
      "effectiveGasPrice": "0x16b00ac9a5",
      "from": "0xdbdb7f1d84bbecaccda2ab7f9e6ca181f685022d",
      "to": "0xf336c098f277cad689b09f15eaca8f473b511855",
      "contractAddress": null
    },
    {
      "status": "0x1",
      "cumulativeGasUsed": "0x1710a66",
      "logs": [
        {
          "address": "0xf336c098f277cad689b09f15eaca8f473b511855",
          "topics": [
            "0x427db48f8cd0cf7fdabcdbc1327c7db26ce3a544292ba380ef07d5175af729cd",
            "0x0000000000000000000000003c499c542cef5e3811e1192ce70d8cc03d5c3359",
            "0x0000000000000000000000000000000000000000000000000000000000000089"
          ],
          "data": "0x00000000000000000000000036c93fbe21cbf275c6d4c86446467de361e56c71",
          "blockHash": "0xcb4e64d9aeb6c98be79d646e3f980ffa234df7d6e37b954c0da76300b5f881ec",
          "blockNumber": "0x4cfdacb",
          "blockTimestamp": "0x694be2a1",
          "transactionHash": "0x5bba9525d8715a7ca2251a3ff7f32e4302748c04b614219c1515b7afa4de7b61",
          "transactionIndex": "0x8a",
          "logIndex": "0x3fa",
          "removed": false
        },
        {
          "address": "0x0000000000000000000000000000000000001010",
          "topics": [
            "0x4dfe1bbbcf077ddc3e01291eea2d5c70c2b422b415d95645b9adcfd678cb1d63",
            "0x0000000000000000000000000000000000000000000000000000000000001010",
            "0x000000000000000000000000dbdb7f1d84bbecaccda2ab7f9e6ca181f685022d",
            "0x0000000000000000000000007ee41d8a25641000661b1ef5e6ae8a00400466b0"
          ],
          "data": "0x0000000000000000000000000000000000000000000000000006d570ba5d640000000000000000000000000000000000000000000000000f358393ded798dbbc00000000000000000000000000000000000000000003569197f870ac5943b94300000000000000000000000000000000000000000000000f357cbe6e1d3b77bc00000000000000000000000000000000000000000003569197ff461d13a11d43",
          "blockHash": "0xcb4e64d9aeb6c98be79d646e3f980ffa234df7d6e37b954c0da76300b5f881ec",
          "blockNumber": "0x4cfdacb",
          "blockTimestamp": "0x694be2a1",
          "transactionHash": "0x5bba9525d8715a7ca2251a3ff7f32e4302748c04b614219c1515b7afa4de7b61",
          "transactionIndex": "0x8a",
          "logIndex": "0x3fb",
          "removed": false
        }
      ],
      "logsBloom": "0x00000000000000000000000000000000000000000000000000000000000000000000000000000000000000000000000000008000000000000200000000000000000000000040000000000000000000800004000000000000000500000000000000000000000000800000000000000000000000000000000080000000000000000400002000000000020000800402000000000000000000000000000000000000200000000000000040000000000000000000000000000000000000008000004000040000000000800001000000000000000000400000004000100000000000000000000000000000000000000000000000000000000000000000000000100000",
      "type": "0x2",
      "transactionHash": "0x5bba9525d8715a7ca2251a3ff7f32e4302748c04b614219c1515b7afa4de7b61",
      "transactionIndex": "0x8a",
      "blockHash": "0xcb4e64d9aeb6c98be79d646e3f980ffa234df7d6e37b954c0da76300b5f881ec",
      "blockNumber": "0x4cfdacb",
      "gasUsed": "0xd6ae",
      "effectiveGasPrice": "0x16b00ac9a5",
      "from": "0xdbdb7f1d84bbecaccda2ab7f9e6ca181f685022d",
      "to": "0xf336c098f277cad689b09f15eaca8f473b511855",
      "contractAddress": null
    },
    {
      "status": "0x1",
      "cumulativeGasUsed": "0x171e114",
      "logs": [
        {
          "address": "0xf336c098f277cad689b09f15eaca8f473b511855",
          "topics": [
            "0x427db48f8cd0cf7fdabcdbc1327c7db26ce3a544292ba380ef07d5175af729cd",
            "0x0000000000000000000000003c499c542cef5e3811e1192ce70d8cc03d5c3359",
            "0x0000000000000000000000000000000000000000000000000000000000000082"
          ],
          "data": "0x00000000000000000000000036c93fbe21cbf275c6d4c86446467de361e56c71",
          "blockHash": "0xcb4e64d9aeb6c98be79d646e3f980ffa234df7d6e37b954c0da76300b5f881ec",
          "blockNumber": "0x4cfdacb",
          "blockTimestamp": "0x694be2a1",
          "transactionHash": "0x4c712681fba699b517a01cae8192a15adb5a512b968a4bf0004c7ff735ba0f5a",
          "transactionIndex": "0x8b",
          "logIndex": "0x3fc",
          "removed": false
        },
        {
          "address": "0x0000000000000000000000000000000000001010",
          "topics": [
            "0x4dfe1bbbcf077ddc3e01291eea2d5c70c2b422b415d95645b9adcfd678cb1d63",
            "0x0000000000000000000000000000000000000000000000000000000000001010",
            "0x000000000000000000000000dbdb7f1d84bbecaccda2ab7f9e6ca181f685022d",
            "0x0000000000000000000000007ee41d8a25641000661b1ef5e6ae8a00400466b0"
          ],
          "data": "0x0000000000000000000000000000000000000000000000000006d570ba5d640000000000000000000000000000000000000000000000000f35708d4a2bb3df9600000000000000000000000000000000000000000003569197ff461d13a11d4300000000000000000000000000000000000000000000000f3569b7d971567b9600000000000000000000000000000000000000000003569198061b8dcdfe8143",
          "blockHash": "0xcb4e64d9aeb6c98be79d646e3f980ffa234df7d6e37b954c0da76300b5f881ec",
          "blockNumber": "0x4cfdacb",
          "blockTimestamp": "0x694be2a1",
          "transactionHash": "0x4c712681fba699b517a01cae8192a15adb5a512b968a4bf0004c7ff735ba0f5a",
          "transactionIndex": "0x8b",
          "logIndex": "0x3fd",
          "removed": false
        }
      ],
      "logsBloom": "0x00000000000000000000000000000000000000000000000000000000000000000000000000000000000000000000000000008010000000000200000000000000000000000040000000000000000000800004000000000000000500000000000040000000000000000000000000000000000000000000000080000000000000000000002000000000020000800400000000000000000000000000000000000000200000000000000040000000000000000000000000000000000000108000004000040000000000800001000000000000000000400000004000100000000000000000000000000000000000000000000000000000000000000000000000100000",
      "type": "0x2",
      "transactionHash": "0x4c712681fba699b517a01cae8192a15adb5a512b968a4bf0004c7ff735ba0f5a",
      "transactionIndex": "0x8b",
      "blockHash": "0xcb4e64d9aeb6c98be79d646e3f980ffa234df7d6e37b954c0da76300b5f881ec",
      "blockNumber": "0x4cfdacb",
      "gasUsed": "0xd6ae",
      "effectiveGasPrice": "0x16b00ac9a5",
      "from": "0xdbdb7f1d84bbecaccda2ab7f9e6ca181f685022d",
      "to": "0xf336c098f277cad689b09f15eaca8f473b511855",
      "contractAddress": null
    },
    {
      "status": "0x1",
      "cumulativeGasUsed": "0x18b1602",
      "logs": [
        {
          "address": "0xf336c098f277cad689b09f15eaca8f473b511855",
          "topics": [
            "0x427db48f8cd0cf7fdabcdbc1327c7db26ce3a544292ba380ef07d5175af729cd",
            "0x0000000000000000000000003c499c542cef5e3811e1192ce70d8cc03d5c3359",
            "0x000000000000000000000000000000000000000000000000000000000000e708"
          ],
          "data": "0x00000000000000000000000036c93fbe21cbf275c6d4c86446467de361e56c71",
          "blockHash": "0x0cc77f527cd2bfb39f4a704c6a78d4ae410906c04ce04e748f8cf3a88b4a67f8",
          "blockNumber": "0x4cfdacc",
          "blockTimestamp": "0x694be2a3",
          "transactionHash": "0xf081db167f99bbd86960f0b3131e213fa761ca278d30bde2aa9bcca666571202",
          "transactionIndex": "0x60",
          "logIndex": "0x549",
          "removed": false
        },
        {
          "address": "0x0000000000000000000000000000000000001010",
          "topics": [
            "0x4dfe1bbbcf077ddc3e01291eea2d5c70c2b422b415d95645b9adcfd678cb1d63",
            "0x0000000000000000000000000000000000000000000000000000000000001010",
            "0x000000000000000000000000dbdb7f1d84bbecaccda2ab7f9e6ca181f685022d",
            "0x0000000000000000000000007ee41d8a25641000661b1ef5e6ae8a00400466b0"
          ],
          "data": "0x0000000000000000000000000000000000000000000000000006d5d28450cc0000000000000000000000000000000000000000000000000f355d86b57fcee370000000000000000000000000000000000000000000035691ace305498e1aa3a400000000000000000000000000000000000000000000000f3556b0e2fb7e1770000000000000000000000000000000000000000000035691ace9db1c126b6fa4",
          "blockHash": "0x0cc77f527cd2bfb39f4a704c6a78d4ae410906c04ce04e748f8cf3a88b4a67f8",
          "blockNumber": "0x4cfdacc",
          "blockTimestamp": "0x694be2a3",
          "transactionHash": "0xf081db167f99bbd86960f0b3131e213fa761ca278d30bde2aa9bcca666571202",
          "transactionIndex": "0x60",
          "logIndex": "0x54a",
          "removed": false
        }
      ],
      "logsBloom": "0x00000000000000000000000000000000000000000000000000000000000000000000000000000000000000000000000040008000000000000200000000000001000000000040000000000000000000800004000000000000000500000000000000000000000000000000000000000000000000000000000080000000000000000000002000000000020000800400000000000000000000000000000400000000200000000000000040000000000000000000000000000000000000008000004000040000000000800001000000000000000000400000004000100000000000000000000000000000000000000000000000000000000000000000000000100000",
      "type": "0x2",
      "transactionHash": "0xf081db167f99bbd86960f0b3131e213fa761ca278d30bde2aa9bcca666571202",
      "transactionIndex": "0x60",
      "blockHash": "0x0cc77f527cd2bfb39f4a704c6a78d4ae410906c04ce04e748f8cf3a88b4a67f8",
      "blockNumber": "0x4cfdacc",
      "gasUsed": "0xd6ba",
      "effectiveGasPrice": "0x16aa3ee465",
      "from": "0xdbdb7f1d84bbecaccda2ab7f9e6ca181f685022d",
      "to": "0xf336c098f277cad689b09f15eaca8f473b511855",
      "contractAddress": null
    },
    {
      "status": "0x1",
      "cumulativeGasUsed": "0x197ea68",
      "logs": [
        {
          "address": "0xf336c098f277cad689b09f15eaca8f473b511855",
          "topics": [
            "0x427db48f8cd0cf7fdabcdbc1327c7db26ce3a544292ba380ef07d5175af729cd",
            "0x0000000000000000000000003c499c542cef5e3811e1192ce70d8cc03d5c3359",
            "0x0000000000000000000000000000000000000000000000000000000000000092"
          ],
          "data": "0x00000000000000000000000036c93fbe21cbf275c6d4c86446467de361e56c71",
          "blockHash": "0x0cc77f527cd2bfb39f4a704c6a78d4ae410906c04ce04e748f8cf3a88b4a67f8",
          "blockNumber": "0x4cfdacc",
          "blockTimestamp": "0x694be2a3",
          "transactionHash": "0x977ed240b3b75f48f2761b40d58405e5b363467253e90e8f9a08061a599e3461",
          "transactionIndex": "0x65",
          "logIndex": "0x576",
          "removed": false
        },
        {
          "address": "0x0000000000000000000000000000000000001010",
          "topics": [
            "0x4dfe1bbbcf077ddc3e01291eea2d5c70c2b422b415d95645b9adcfd678cb1d63",
            "0x0000000000000000000000000000000000000000000000000000000000001010",
            "0x000000000000000000000000dbdb7f1d84bbecaccda2ab7f9e6ca181f685022d",
            "0x0000000000000000000000007ee41d8a25641000661b1ef5e6ae8a00400466b0"
          ],
          "data": "0x0000000000000000000000000000000000000000000000000006d570ba5d640000000000000000000000000000000000000000000000000f354a83ed3b30840e000000000000000000000000000000000000000000035691ad4b92786b7affa400000000000000000000000000000000000000000000000f3543ae7c80d3200e000000000000000000000000000000000000000000035691ad5267e925d863a4",
          "blockHash": "0x0cc77f527cd2bfb39f4a704c6a78d4ae410906c04ce04e748f8cf3a88b4a67f8",
          "blockNumber": "0x4cfdacc",
          "blockTimestamp": "0x694be2a3",
          "transactionHash": "0x977ed240b3b75f48f2761b40d58405e5b363467253e90e8f9a08061a599e3461",
          "transactionIndex": "0x65",
          "logIndex": "0x577",
          "removed": false
        }
      ],
      "logsBloom": "0x00000000000000000000000000000000000000000000000000000000000000000000000000000000000000000000000000008000000000200200000000000000000000000040000000000000000000800004000000000000000500000000000000000000000000000000000000000000000000000000000080000000000000000000002000000000020000800400000000000000000000000000000000000000200000000000000040000000000000000000000000000000000000008000004000040000000000800001000000000000000000400000004000100000000000000000000000000000000000000000000000000000000001020000000000100000",
      "type": "0x2",
      "transactionHash": "0x977ed240b3b75f48f2761b40d58405e5b363467253e90e8f9a08061a599e3461",
      "transactionIndex": "0x65",
      "blockHash": "0x0cc77f527cd2bfb39f4a704c6a78d4ae410906c04ce04e748f8cf3a88b4a67f8",
      "blockNumber": "0x4cfdacc",
      "gasUsed": "0xd6ae",
      "effectiveGasPrice": "0x16aa3ee465",
      "from": "0xdbdb7f1d84bbecaccda2ab7f9e6ca181f685022d",
      "to": "0xf336c098f277cad689b09f15eaca8f473b511855",
      "contractAddress": null
    },
    {
      "status": "0x1",
      "cumulativeGasUsed": "0x198c122",
      "logs": [
        {
          "address": "0xf336c098f277cad689b09f15eaca8f473b511855",
          "topics": [
            "0x427db48f8cd0cf7fdabcdbc1327c7db26ce3a544292ba380ef07d5175af729cd",
            "0x0000000000000000000000003c499c542cef5e3811e1192ce70d8cc03d5c3359",
            "0x00000000000000000000000000000000000000000000000000000000000001e0"
          ],
          "data": "0x00000000000000000000000036c93fbe21cbf275c6d4c86446467de361e56c71",
          "blockHash": "0x0cc77f527cd2bfb39f4a704c6a78d4ae410906c04ce04e748f8cf3a88b4a67f8",
          "blockNumber": "0x4cfdacc",
          "blockTimestamp": "0x694be2a3",
          "transactionHash": "0x8212e10cb35fa4740ff8c511e94d84cafd0979a23edf4c4444c865d1668f262a",
          "transactionIndex": "0x66",
          "logIndex": "0x578",
          "removed": false
        },
        {
          "address": "0x0000000000000000000000000000000000001010",
          "topics": [
            "0x4dfe1bbbcf077ddc3e01291eea2d5c70c2b422b415d95645b9adcfd678cb1d63",
            "0x0000000000000000000000000000000000000000000000000000000000001010",
            "0x000000000000000000000000dbdb7f1d84bbecaccda2ab7f9e6ca181f685022d",
            "0x0000000000000000000000007ee41d8a25641000661b1ef5e6ae8a00400466b0"
          ],
          "data": "0x0000000000000000000000000000000000000000000000000006d5d28450cc0000000000000000000000000000000000000000000000000f35378234f184d968000000000000000000000000000000000000000000035691ad5267e925d863a400000000000000000000000000000000000000000000000f3530ac626d340d68000000000000000000000000000000000000000000035691ad593dbbaa292fa4",
          "blockHash": "0x0cc77f527cd2bfb39f4a704c6a78d4ae410906c04ce04e748f8cf3a88b4a67f8",
          "blockNumber": "0x4cfdacc",
          "blockTimestamp": "0x694be2a3",
          "transactionHash": "0x8212e10cb35fa4740ff8c511e94d84cafd0979a23edf4c4444c865d1668f262a",
          "transactionIndex": "0x66",
          "logIndex": "0x579",
          "removed": false
        }
      ],
      "logsBloom": "0x00000000000000000000000000000000000000000000000000000000000000000000000000000000000000000000000000008000000000000200000000000000000000000040000000000000000000800004000000000000000500000000000000000000000000000000000000000000000000000000000080000000000000000000002000000000020000800400000000000000000000000000000000000000200000000000000040000000000000000000000000000000000000008000044000040000400000800001000000000000000000400000004000100000000000000000000000000000000000000000000000000000008000000000000000100000",
      "type": "0x2",
      "transactionHash": "0x8212e10cb35fa4740ff8c511e94d84cafd0979a23edf4c4444c865d1668f262a",
      "transactionIndex": "0x66",
      "blockHash": "0x0cc77f527cd2bfb39f4a704c6a78d4ae410906c04ce04e748f8cf3a88b4a67f8",
      "blockNumber": "0x4cfdacc",
      "gasUsed": "0xd6ba",
      "effectiveGasPrice": "0x16aa3ee465",
      "from": "0xdbdb7f1d84bbecaccda2ab7f9e6ca181f685022d",
      "to": "0xf336c098f277cad689b09f15eaca8f473b511855",
      "contractAddress": null
    },
    {
      "status": "0x1",
      "cumulativeGasUsed": "0x1a1bf76",
      "logs": [
        {
          "address": "0xf336c098f277cad689b09f15eaca8f473b511855",
          "topics": [
            "0x427db48f8cd0cf7fdabcdbc1327c7db26ce3a544292ba380ef07d5175af729cd",
            "0x0000000000000000000000003c499c542cef5e3811e1192ce70d8cc03d5c3359",
            "0x00000000000000000000000000000000000000000000000000000000000003e7"
          ],
          "data": "0x00000000000000000000000036c93fbe21cbf275c6d4c86446467de361e56c71",
          "blockHash": "0x0cc77f527cd2bfb39f4a704c6a78d4ae410906c04ce04e748f8cf3a88b4a67f8",
          "blockNumber": "0x4cfdacc",
          "blockTimestamp": "0x694be2a3",
          "transactionHash": "0xb57f0c984b8fcd5edc3f187a7160a69f75efe0f02f587ca726bc3a365b7c46da",
          "transactionIndex": "0x6a",
          "logIndex": "0x59f",
          "removed": false
        },
        {
          "address": "0x0000000000000000000000000000000000001010",
          "topics": [
            "0x4dfe1bbbcf077ddc3e01291eea2d5c70c2b422b415d95645b9adcfd678cb1d63",
            "0x0000000000000000000000000000000000000000000000000000000000001010",
            "0x000000000000000000000000dbdb7f1d84bbecaccda2ab7f9e6ca181f685022d",
            "0x0000000000000000000000007ee41d8a25641000661b1ef5e6ae8a00400466b0"
          ],
          "data": "0x0000000000000000000000000000000000000000000000000006d5d28450cc0000000000000000000000000000000000000000000000000f35247f6cace67a06000000000000000000000000000000000000000000035691ad9bb1bfe6443ba400000000000000000000000000000000000000000000000f351da99a2895ae06000000000000000000000000000000000000000000035691ada287926a9507a4",
          "blockHash": "0x0cc77f527cd2bfb39f4a704c6a78d4ae410906c04ce04e748f8cf3a88b4a67f8",
          "blockNumber": "0x4cfdacc",
          "blockTimestamp": "0x694be2a3",
          "transactionHash": "0xb57f0c984b8fcd5edc3f187a7160a69f75efe0f02f587ca726bc3a365b7c46da",
          "transactionIndex": "0x6a",
          "logIndex": "0x5a0",
          "removed": false
        }
      ],
      "logsBloom": "0x00000000000000000000000000000000000000000000000000000000000000000000000000000000000000000000000000008000000000000200000000000000000000000040000000000000000000800004000000000000004500080000000000000000000000000000000000000000000000000000000080000000000000000000002000000000020000800400000000000000000000000000000000000000200000000000000040100000000000000000000000000000000000008000004000040000000000800001000000000000000000400000004000100000000000000000000000000000000000000000000000000000000000000000000000100000",
      "type": "0x2",
      "transactionHash": "0xb57f0c984b8fcd5edc3f187a7160a69f75efe0f02f587ca726bc3a365b7c46da",
      "transactionIndex": "0x6a",
      "blockHash": "0x0cc77f527cd2bfb39f4a704c6a78d4ae410906c04ce04e748f8cf3a88b4a67f8",
      "blockNumber": "0x4cfdacc",
      "gasUsed": "0xd6ba",
      "effectiveGasPrice": "0x16aa3ee465",
      "from": "0xdbdb7f1d84bbecaccda2ab7f9e6ca181f685022d",
      "to": "0xf336c098f277cad689b09f15eaca8f473b511855",
      "contractAddress": null
    },
    {
      "status": "0x1",
      "cumulativeGasUsed": "0x1a3ff97",
      "logs": [
        {
          "address": "0xf336c098f277cad689b09f15eaca8f473b511855",
          "topics": [
            "0x427db48f8cd0cf7fdabcdbc1327c7db26ce3a544292ba380ef07d5175af729cd",
            "0x0000000000000000000000003c499c542cef5e3811e1192ce70d8cc03d5c3359",
            "0x000000000000000000000000000000000000000000000000000000000000def1"
          ],
          "data": "0x00000000000000000000000036c93fbe21cbf275c6d4c86446467de361e56c71",
          "blockHash": "0x0cc77f527cd2bfb39f4a704c6a78d4ae410906c04ce04e748f8cf3a88b4a67f8",
          "blockNumber": "0x4cfdacc",
          "blockTimestamp": "0x694be2a3",
          "transactionHash": "0xb784c14cce7edec9b65e269fa1da7c65c85dc349ec33a09becf2e3a8bf0221eb",
          "transactionIndex": "0x6d",
          "logIndex": "0x5a8",
          "removed": false
        },
        {
          "address": "0x0000000000000000000000000000000000001010",
          "topics": [
            "0x4dfe1bbbcf077ddc3e01291eea2d5c70c2b422b415d95645b9adcfd678cb1d63",
            "0x0000000000000000000000000000000000000000000000000000000000001010",
            "0x000000000000000000000000dbdb7f1d84bbecaccda2ab7f9e6ca181f685022d",
            "0x0000000000000000000000007ee41d8a25641000661b1ef5e6ae8a00400466b0"
          ],
          "data": "0x0000000000000000000000000000000000000000000000000006d5d28450cc0000000000000000000000000000000000000000000000000f35117ca468481aa4000000000000000000000000000000000000000000035691adae08aa752199a400000000000000000000000000000000000000000000000f350aa6d1e3f74ea4000000000000000000000000000000000000000000035691adb4de7cf97265a4",
          "blockHash": "0x0cc77f527cd2bfb39f4a704c6a78d4ae410906c04ce04e748f8cf3a88b4a67f8",
          "blockNumber": "0x4cfdacc",
          "blockTimestamp": "0x694be2a3",
          "transactionHash": "0xb784c14cce7edec9b65e269fa1da7c65c85dc349ec33a09becf2e3a8bf0221eb",
          "transactionIndex": "0x6d",
          "logIndex": "0x5a9",
          "removed": false
        }
      ],
      "logsBloom": "0x00000000000000000000000000000000000000000000000000000000000040000000000000000000000000000000000000008000000000000200000000000000000000000040000000000000000000800004000000000000000500000000000000000000000000000000000000000000000000000000000080000000000000000040002000000000020000800400000000000000000000000000000000000000200000000000000040000000000000000000000000000000000000008000004000040000000000800001000000000000000002400000004000100000000000000000000000000000000000000000000000000000000000000000000000100000",
      "type": "0x2",
      "transactionHash": "0xb784c14cce7edec9b65e269fa1da7c65c85dc349ec33a09becf2e3a8bf0221eb",
      "transactionIndex": "0x6d",
      "blockHash": "0x0cc77f527cd2bfb39f4a704c6a78d4ae410906c04ce04e748f8cf3a88b4a67f8",
      "blockNumber": "0x4cfdacc",
      "gasUsed": "0xd6ba",
      "effectiveGasPrice": "0x16aa3ee465",
      "from": "0xdbdb7f1d84bbecaccda2ab7f9e6ca181f685022d",
      "to": "0xf336c098f277cad689b09f15eaca8f473b511855",
      "contractAddress": null
    },
    {
      "status": "0x1",
      "cumulativeGasUsed": "0x1a4d645",
      "logs": [
        {
          "address": "0xf336c098f277cad689b09f15eaca8f473b511855",
          "topics": [
            "0x427db48f8cd0cf7fdabcdbc1327c7db26ce3a544292ba380ef07d5175af729cd",
            "0x000000000000000000000000c2132d05d31c914a87c6611c10748aeb04b58e8f",
            "0x0000000000000000000000000000000000000000000000000000000000000001"
          ],
          "data": "0x000000000000000000000000949ab1ced194c28977b396526f41fcb473010219",
          "blockHash": "0x0cc77f527cd2bfb39f4a704c6a78d4ae410906c04ce04e748f8cf3a88b4a67f8",
          "blockNumber": "0x4cfdacc",
          "blockTimestamp": "0x694be2a3",
          "transactionHash": "0x139b2ab76852d9ab7d581f13e7d6c2638887efb441547cbc044050adcd0fb22b",
          "transactionIndex": "0x6e",
          "logIndex": "0x5aa",
          "removed": false
        },
        {
          "address": "0x0000000000000000000000000000000000001010",
          "topics": [
            "0x4dfe1bbbcf077ddc3e01291eea2d5c70c2b422b415d95645b9adcfd678cb1d63",
            "0x0000000000000000000000000000000000000000000000000000000000001010",
            "0x000000000000000000000000dbdb7f1d84bbecaccda2ab7f9e6ca181f685022d",
            "0x0000000000000000000000007ee41d8a25641000661b1ef5e6ae8a00400466b0"
          ],
          "data": "0x0000000000000000000000000000000000000000000000000006d570ba5d640000000000000000000000000000000000000000000000000f34fe79dc23a9bb42000000000000000000000000000000000000000000035691adb4de7cf97265a400000000000000000000000000000000000000000000000f34f7a46b694c5742000000000000000000000000000000000000000000035691adbbb3edb3cfc9a4",
          "blockHash": "0x0cc77f527cd2bfb39f4a704c6a78d4ae410906c04ce04e748f8cf3a88b4a67f8",
          "blockNumber": "0x4cfdacc",
          "blockTimestamp": "0x694be2a3",
          "transactionHash": "0x139b2ab76852d9ab7d581f13e7d6c2638887efb441547cbc044050adcd0fb22b",
          "transactionIndex": "0x6e",
          "logIndex": "0x5ab",
          "removed": false
        }
      ],
      "logsBloom": "0x00000000000000000000000000000000000000000000000000000000000000000000000000000000000000000000000000008000000000000200000000040000000000000000000000000000000000800004000000040000000500000000000010000000000000000000000000000000000000000000000080000000000000000000002000000000020000000400000000020000000000000000000000000000200000000000000040000000000000000000000000000000000000008000004000040000000000800001000008000000000000400000004000100000000040000000000000000000000000000000000000000000000000000000000000100000",
      "type": "0x2",
      "transactionHash": "0x139b2ab76852d9ab7d581f13e7d6c2638887efb441547cbc044050adcd0fb22b",
      "transactionIndex": "0x6e",
      "blockHash": "0x0cc77f527cd2bfb39f4a704c6a78d4ae410906c04ce04e748f8cf3a88b4a67f8",
      "blockNumber": "0x4cfdacc",
      "gasUsed": "0xd6ae",
      "effectiveGasPrice": "0x16aa3ee465",
      "from": "0xdbdb7f1d84bbecaccda2ab7f9e6ca181f685022d",
      "to": "0xf336c098f277cad689b09f15eaca8f473b511855",
      "contractAddress": null
    },
    {
      "status": "0x1",
      "cumulativeGasUsed": "0x1a5acff",
      "logs": [
        {
          "address": "0xf336c098f277cad689b09f15eaca8f473b511855",
          "topics": [
            "0x427db48f8cd0cf7fdabcdbc1327c7db26ce3a544292ba380ef07d5175af729cd",
            "0x000000000000000000000000c2132d05d31c914a87c6611c10748aeb04b58e8f",
            "0x000000000000000000000000000000000000000000000000000000000000a4b1"
          ],
          "data": "0x000000000000000000000000949ab1ced194c28977b396526f41fcb473010219",
          "blockHash": "0x0cc77f527cd2bfb39f4a704c6a78d4ae410906c04ce04e748f8cf3a88b4a67f8",
          "blockNumber": "0x4cfdacc",
          "blockTimestamp": "0x694be2a3",
          "transactionHash": "0x9f6885ad0b81d253478696eabef6035d18530c2f0eb5e84630779b49d2ccc91e",
          "transactionIndex": "0x6f",
          "logIndex": "0x5ac",
          "removed": false
        },
        {
          "address": "0x0000000000000000000000000000000000001010",
          "topics": [
            "0x4dfe1bbbcf077ddc3e01291eea2d5c70c2b422b415d95645b9adcfd678cb1d63",
            "0x0000000000000000000000000000000000000000000000000000000000001010",
            "0x000000000000000000000000dbdb7f1d84bbecaccda2ab7f9e6ca181f685022d",
            "0x0000000000000000000000007ee41d8a25641000661b1ef5e6ae8a00400466b0"
          ],
          "data": "0x0000000000000000000000000000000000000000000000000006d5d28450cc0000000000000000000000000000000000000000000000000f34eb7823d9fe109c000000000000000000000000000000000000000000035691adbbb3edb3cfc9a400000000000000000000000000000000000000000000000f34e4a25155ad449c000000000000000000000000000000000000000000035691adc289c0382095a4",
          "blockHash": "0x0cc77f527cd2bfb39f4a704c6a78d4ae410906c04ce04e748f8cf3a88b4a67f8",
          "blockNumber": "0x4cfdacc",
          "blockTimestamp": "0x694be2a3",
          "transactionHash": "0x9f6885ad0b81d253478696eabef6035d18530c2f0eb5e84630779b49d2ccc91e",
          "transactionIndex": "0x6f",
          "logIndex": "0x5ad",
          "removed": false
        }
      ],
      "logsBloom": "0x00000000000000000000000000000000000000000000000000000000000000000000000000000000000000000000000000008000000000000200000000000000000000000000000000000000000000800004000000000000000500000000000010000000000000000000000000000000000000000000000080000000000000000000002000000000020000000400000000020000000000000000000000000000200000000000000040000000000000000000000000000000000000008000004000040000000000810001000008000000000000400000004000100000000000000000000000000000000000000000100000000000000000000000000000100000",
      "type": "0x2",
      "transactionHash": "0x9f6885ad0b81d253478696eabef6035d18530c2f0eb5e84630779b49d2ccc91e",
      "transactionIndex": "0x6f",
      "blockHash": "0x0cc77f527cd2bfb39f4a704c6a78d4ae410906c04ce04e748f8cf3a88b4a67f8",
      "blockNumber": "0x4cfdacc",
      "gasUsed": "0xd6ba",
      "effectiveGasPrice": "0x16aa3ee465",
      "from": "0xdbdb7f1d84bbecaccda2ab7f9e6ca181f685022d",
      "to": "0xf336c098f277cad689b09f15eaca8f473b511855",
      "contractAddress": null
    },
    {
      "status": "0x1",
      "cumulativeGasUsed": "0x1a683ad",
      "logs": [
        {
          "address": "0xf336c098f277cad689b09f15eaca8f473b511855",
          "topics": [
            "0x427db48f8cd0cf7fdabcdbc1327c7db26ce3a544292ba380ef07d5175af729cd",
            "0x000000000000000000000000c2132d05d31c914a87c6611c10748aeb04b58e8f",
            "0x0000000000000000000000000000000000000000000000000000000000000089"
          ],
          "data": "0x000000000000000000000000949ab1ced194c28977b396526f41fcb473010219",
          "blockHash": "0x0cc77f527cd2bfb39f4a704c6a78d4ae410906c04ce04e748f8cf3a88b4a67f8",
          "blockNumber": "0x4cfdacc",
          "blockTimestamp": "0x694be2a3",
          "transactionHash": "0xe59366d943297fc07100170d02a1b8af4309396fa0ca42e68a98275bca2090b3",
          "transactionIndex": "0x70",
          "logIndex": "0x5ae",
          "removed": false
        },
        {
          "address": "0x0000000000000000000000000000000000001010",
          "topics": [
            "0x4dfe1bbbcf077ddc3e01291eea2d5c70c2b422b415d95645b9adcfd678cb1d63",
            "0x0000000000000000000000000000000000000000000000000000000000001010",
            "0x000000000000000000000000dbdb7f1d84bbecaccda2ab7f9e6ca181f685022d",
            "0x0000000000000000000000007ee41d8a25641000661b1ef5e6ae8a00400466b0"
          ],
          "data": "0x0000000000000000000000000000000000000000000000000006d570ba5d640000000000000000000000000000000000000000000000000f34d8755b955fb13a000000000000000000000000000000000000000000035691adc289c0382095a400000000000000000000000000000000000000000000000f34d19feadb024d3a000000000000000000000000000000000000000000035691adc95f30f27df9a4",
          "blockHash": "0x0cc77f527cd2bfb39f4a704c6a78d4ae410906c04ce04e748f8cf3a88b4a67f8",
          "blockNumber": "0x4cfdacc",
          "blockTimestamp": "0x694be2a3",
          "transactionHash": "0xe59366d943297fc07100170d02a1b8af4309396fa0ca42e68a98275bca2090b3",
          "transactionIndex": "0x70",
          "logIndex": "0x5af",
          "removed": false
        }
      ],
      "logsBloom": "0x00000000000000000000000000000000000000000000000000000000000000000000000000000000000000000000000000008000000000000200000000000000000000000000000000000000000000800004000000000000000500000000000010000000000000800000000000000000000000000000000080000000000000000400002000000000020000000402000000020000000000000000000000000000200000000000000040000000000000000000000000000000000000008000004000040000000000800001000008000000000000400000004000100000000000000000000000000000000000000000000000000000000000000000000000100000",
      "type": "0x2",
      "transactionHash": "0xe59366d943297fc07100170d02a1b8af4309396fa0ca42e68a98275bca2090b3",
      "transactionIndex": "0x70",
      "blockHash": "0x0cc77f527cd2bfb39f4a704c6a78d4ae410906c04ce04e748f8cf3a88b4a67f8",
      "blockNumber": "0x4cfdacc",
      "gasUsed": "0xd6ae",
      "effectiveGasPrice": "0x16aa3ee465",
      "from": "0xdbdb7f1d84bbecaccda2ab7f9e6ca181f685022d",
      "to": "0xf336c098f277cad689b09f15eaca8f473b511855",
      "contractAddress": null
    },
    {
      "status": "0x1",
      "cumulativeGasUsed": "0x1aa5a53",
      "logs": [
        {
          "address": "0xf336c098f277cad689b09f15eaca8f473b511855",
          "topics": [
            "0x427db48f8cd0cf7fdabcdbc1327c7db26ce3a544292ba380ef07d5175af729cd",
            "0x000000000000000000000000c2132d05d31c914a87c6611c10748aeb04b58e8f",
            "0x000000000000000000000000000000000000000000000000000000000000000a"
          ],
          "data": "0x000000000000000000000000949ab1ced194c28977b396526f41fcb473010219",
          "blockHash": "0x0cc77f527cd2bfb39f4a704c6a78d4ae410906c04ce04e748f8cf3a88b4a67f8",
          "blockNumber": "0x4cfdacc",
          "blockTimestamp": "0x694be2a3",
          "transactionHash": "0xc030369f687c0067a7f63a5b392fbef3b71fbbc7999c886e4024a033ac49729c",
          "transactionIndex": "0x74",
          "logIndex": "0x5ba",
          "removed": false
        },
        {
          "address": "0x0000000000000000000000000000000000001010",
          "topics": [
            "0x4dfe1bbbcf077ddc3e01291eea2d5c70c2b422b415d95645b9adcfd678cb1d63",
            "0x0000000000000000000000000000000000000000000000000000000000001010",
            "0x000000000000000000000000dbdb7f1d84bbecaccda2ab7f9e6ca181f685022d",
            "0x0000000000000000000000007ee41d8a25641000661b1ef5e6ae8a00400466b0"
          ],
          "data": "0x0000000000000000000000000000000000000000000000000006d570ba5d640000000000000000000000000000000000000000000000000f34c573a34bb40694000000000000000000000000000000000000000000035691ade1d16c9b3109a400000000000000000000000000000000000000000000000f34be9e329156a294000000000000000000000000000000000000000000035691ade8a6dd558e6da4",
          "blockHash": "0x0cc77f527cd2bfb39f4a704c6a78d4ae410906c04ce04e748f8cf3a88b4a67f8",
          "blockNumber": "0x4cfdacc",
          "blockTimestamp": "0x694be2a3",
          "transactionHash": "0xc030369f687c0067a7f63a5b392fbef3b71fbbc7999c886e4024a033ac49729c",
          "transactionIndex": "0x74",
          "logIndex": "0x5bb",
          "removed": false
        }
      ],
      "logsBloom": "0x00000000000000000000000000000000000000000000000000000000000000000000000000000000000000000000000000008000040000000220000000000000000000000000000000000000000000800004000000000000000500000000000010000000000000000000000000000000000000000000000080000000000000000000002000000000030000000400000000020000000000000000000000000000200000000000000040000000000000000000000000000000000000008000004000040000000000800001000008000000000000400000004000100000000000000000000000000000000000000000000000000000000000000000000000100000",
      "type": "0x2",
      "transactionHash": "0xc030369f687c0067a7f63a5b392fbef3b71fbbc7999c886e4024a033ac49729c",
      "transactionIndex": "0x74",
      "blockHash": "0x0cc77f527cd2bfb39f4a704c6a78d4ae410906c04ce04e748f8cf3a88b4a67f8",
      "blockNumber": "0x4cfdacc",
      "gasUsed": "0xd6ae",
      "effectiveGasPrice": "0x16aa3ee465",
      "from": "0xdbdb7f1d84bbecaccda2ab7f9e6ca181f685022d",
      "to": "0xf336c098f277cad689b09f15eaca8f473b511855",
      "contractAddress": null
    },
    {
      "status": "0x1",
      "cumulativeGasUsed": "0x1ab3119",
      "logs": [
        {
          "address": "0xf336c098f277cad689b09f15eaca8f473b511855",
          "topics": [
            "0x427db48f8cd0cf7fdabcdbc1327c7db26ce3a544292ba380ef07d5175af729cd",
            "0x000000000000000000000000c2132d05d31c914a87c6611c10748aeb04b58e8f",
            "0x00000000000000000000000000000000000000000000000000000000000138de"
          ],
          "data": "0x000000000000000000000000949ab1ced194c28977b396526f41fcb473010219",
          "blockHash": "0x0cc77f527cd2bfb39f4a704c6a78d4ae410906c04ce04e748f8cf3a88b4a67f8",
          "blockNumber": "0x4cfdacc",
          "blockTimestamp": "0x694be2a3",
          "transactionHash": "0x31ba2bd53562b9652ac614e856904015f78f7267d64423acac80a5ded1a09f11",
          "transactionIndex": "0x75",
          "logIndex": "0x5bc",
          "removed": false
        },
        {
          "address": "0x0000000000000000000000000000000000001010",
          "topics": [
            "0x4dfe1bbbcf077ddc3e01291eea2d5c70c2b422b415d95645b9adcfd678cb1d63",
            "0x0000000000000000000000000000000000000000000000000000000000001010",
            "0x000000000000000000000000dbdb7f1d84bbecaccda2ab7f9e6ca181f685022d",
            "0x0000000000000000000000007ee41d8a25641000661b1ef5e6ae8a00400466b0"
          ],
          "data": "0x0000000000000000000000000000000000000000000000000006d6344e44340000000000000000000000000000000000000000000000000f34b271eb02085bee000000000000000000000000000000000000000000035691ade8a6dd558e6da400000000000000000000000000000000000000000000000f34ab9bb6b3c427ee000000000000000000000000000000000000000000035691adef7d11a3d2a1a4",
          "blockHash": "0x0cc77f527cd2bfb39f4a704c6a78d4ae410906c04ce04e748f8cf3a88b4a67f8",
          "blockNumber": "0x4cfdacc",
          "blockTimestamp": "0x694be2a3",
          "transactionHash": "0x31ba2bd53562b9652ac614e856904015f78f7267d64423acac80a5ded1a09f11",
          "transactionIndex": "0x75",
          "logIndex": "0x5bd",
          "removed": false
        }
      ],
      "logsBloom": "0x00000000000000000000000000040000000000000000000000000000000000000000000000000000000000000000000000008000000000000200000000000000000000000000000000000000000000800004000000000000000500000000000010000000000000000000000000400000000000000000000080000000000000000000002000000000020000000400000000020000000000000000000000000000200000000000000040000000000000000000000000000000000000008000004000040000000000800001000008000000000000400000004000100000000000000000000010000000000000000000000000000000000000000000000000100000",
      "type": "0x2",
      "transactionHash": "0x31ba2bd53562b9652ac614e856904015f78f7267d64423acac80a5ded1a09f11",
      "transactionIndex": "0x75",
      "blockHash": "0x0cc77f527cd2bfb39f4a704c6a78d4ae410906c04ce04e748f8cf3a88b4a67f8",
      "blockNumber": "0x4cfdacc",
      "gasUsed": "0xd6c6",
      "effectiveGasPrice": "0x16aa3ee465",
      "from": "0xdbdb7f1d84bbecaccda2ab7f9e6ca181f685022d",
      "to": "0xf336c098f277cad689b09f15eaca8f473b511855",
      "contractAddress": null
    },
    {
      "status": "0x1",
      "cumulativeGasUsed": "0x1ac07d3",
      "logs": [
        {
          "address": "0xf336c098f277cad689b09f15eaca8f473b511855",
          "topics": [
            "0x427db48f8cd0cf7fdabcdbc1327c7db26ce3a544292ba380ef07d5175af729cd",
            "0x000000000000000000000000c2132d05d31c914a87c6611c10748aeb04b58e8f",
            "0x000000000000000000000000000000000000000000000000000000000000def1"
          ],
          "data": "0x000000000000000000000000949ab1ced194c28977b396526f41fcb473010219",
          "blockHash": "0x0cc77f527cd2bfb39f4a704c6a78d4ae410906c04ce04e748f8cf3a88b4a67f8",
          "blockNumber": "0x4cfdacc",
          "blockTimestamp": "0x694be2a3",
          "transactionHash": "0x454c3da137659efe6be34fc06043d5c9788cf95d44e6a383411510cb7bd8daed",
          "transactionIndex": "0x76",
          "logIndex": "0x5be",
          "removed": false
        },
        {
          "address": "0x0000000000000000000000000000000000001010",
          "topics": [
            "0x4dfe1bbbcf077ddc3e01291eea2d5c70c2b422b415d95645b9adcfd678cb1d63",
            "0x0000000000000000000000000000000000000000000000000000000000001010",
            "0x000000000000000000000000dbdb7f1d84bbecaccda2ab7f9e6ca181f685022d",
            "0x0000000000000000000000007ee41d8a25641000661b1ef5e6ae8a00400466b0"
          ],
          "data": "0x0000000000000000000000000000000000000000000000000006d5d28450cc0000000000000000000000000000000000000000000000000f349f6e12c27747d0000000000000000000000000000000000000000000035691adef7d11a3d2a1a400000000000000000000000000000000000000000000000f349898403e267bd0000000000000000000000000000000000000000000035691adf652e428236da4",
          "blockHash": "0x0cc77f527cd2bfb39f4a704c6a78d4ae410906c04ce04e748f8cf3a88b4a67f8",
          "blockNumber": "0x4cfdacc",
          "blockTimestamp": "0x694be2a3",
          "transactionHash": "0x454c3da137659efe6be34fc06043d5c9788cf95d44e6a383411510cb7bd8daed",
          "transactionIndex": "0x76",
          "logIndex": "0x5bf",
          "removed": false
        }
      ],
      "logsBloom": "0x00000000000000000000000000000000000000000000000000000000000040000000000000000000000000000000000000008000000000000200000000000000000000000000000000000000000000800004000000000000000500000000000010000000000000000000000000000000000000000000000080000000000000000040002000000000020000000400000000020000000000000000000000000000200000000000000040000000000000000000000000000000000000008000004000040000000000800001000008000000000002400000004000100000000000000000000000000000000000000000000000000000000000000000000000100000",
      "type": "0x2",
      "transactionHash": "0x454c3da137659efe6be34fc06043d5c9788cf95d44e6a383411510cb7bd8daed",
      "transactionIndex": "0x76",
      "blockHash": "0x0cc77f527cd2bfb39f4a704c6a78d4ae410906c04ce04e748f8cf3a88b4a67f8",
      "blockNumber": "0x4cfdacc",
      "gasUsed": "0xd6ba",
      "effectiveGasPrice": "0x16aa3ee465",
      "from": "0xdbdb7f1d84bbecaccda2ab7f9e6ca181f685022d",
      "to": "0xf336c098f277cad689b09f15eaca8f473b511855",
      "contractAddress": null
    },
    {
      "status": "0x1",
      "cumulativeGasUsed": "0x1acde81",
      "logs": [
        {
          "address": "0xf336c098f277cad689b09f15eaca8f473b511855",
          "topics": [
            "0x427db48f8cd0cf7fdabcdbc1327c7db26ce3a544292ba380ef07d5175af729cd",
            "0x000000000000000000000000c2132d05d31c914a87c6611c10748aeb04b58e8f",
            "0x0000000000000000000000000000000000000000000000000000000000000082"
          ],
          "data": "0x000000000000000000000000949ab1ced194c28977b396526f41fcb473010219",
          "blockHash": "0x0cc77f527cd2bfb39f4a704c6a78d4ae410906c04ce04e748f8cf3a88b4a67f8",
          "blockNumber": "0x4cfdacc",
          "blockTimestamp": "0x694be2a3",
          "transactionHash": "0x961a8b0fbd92e317ebc55eb2d11ef1b186f5c36f142dc7dd01e09b1972ad76b0",
          "transactionIndex": "0x77",
          "logIndex": "0x5c0",
          "removed": false
        },
        {
          "address": "0x0000000000000000000000000000000000001010",
          "topics": [
            "0x4dfe1bbbcf077ddc3e01291eea2d5c70c2b422b415d95645b9adcfd678cb1d63",
            "0x0000000000000000000000000000000000000000000000000000000000001010",
            "0x000000000000000000000000dbdb7f1d84bbecaccda2ab7f9e6ca181f685022d",
            "0x0000000000000000000000007ee41d8a25641000661b1ef5e6ae8a00400466b0"
          ],
          "data": "0x0000000000000000000000000000000000000000000000000006d570ba5d640000000000000000000000000000000000000000000000000f348c6b4a7dd8e86e000000000000000000000000000000000000000000035691adf652e428236da400000000000000000000000000000000000000000000000f348595d9c37b846e000000000000000000000000000000000000000000035691adfd2854e280d1a4",
          "blockHash": "0x0cc77f527cd2bfb39f4a704c6a78d4ae410906c04ce04e748f8cf3a88b4a67f8",
          "blockNumber": "0x4cfdacc",
          "blockTimestamp": "0x694be2a3",
          "transactionHash": "0x961a8b0fbd92e317ebc55eb2d11ef1b186f5c36f142dc7dd01e09b1972ad76b0",
          "transactionIndex": "0x77",
          "logIndex": "0x5c1",
          "removed": false
        }
      ],
      "logsBloom": "0x00000000000000000000000000000000000000000000000000000000000000000000000000000000000000000000000000008010000000000200000000000000000000000000000000000000000000800004000000000000000500000000000050000000000000000000000000000000000000000000000080000000000000000000002000000000020000000400000000020000000000000000000000000000200000000000000040000000000000000000000000000000000000108000004000040000000000800001000008000000000000400000004000100000000000000000000000000000000000000000000000000000000000000000000000100000",
      "type": "0x2",
      "transactionHash": "0x961a8b0fbd92e317ebc55eb2d11ef1b186f5c36f142dc7dd01e09b1972ad76b0",
      "transactionIndex": "0x77",
      "blockHash": "0x0cc77f527cd2bfb39f4a704c6a78d4ae410906c04ce04e748f8cf3a88b4a67f8",
      "blockNumber": "0x4cfdacc",
      "gasUsed": "0xd6ae",
      "effectiveGasPrice": "0x16aa3ee465",
      "from": "0xdbdb7f1d84bbecaccda2ab7f9e6ca181f685022d",
      "to": "0xf336c098f277cad689b09f15eaca8f473b511855",
      "contractAddress": null
    },
    {
      "status": "0x1",
      "cumulativeGasUsed": "0x1adb553",
      "logs": [
        {
          "address": "0xf336c098f277cad689b09f15eaca8f473b511855",
          "topics": [
            "0x427db48f8cd0cf7fdabcdbc1327c7db26ce3a544292ba380ef07d5175af729cd",
            "0x000000000000000000000000c2132d05d31c914a87c6611c10748aeb04b58e8f",
            "0x0000000000000000000000000000000000000000000000000000000001406f40"
          ],
          "data": "0x000000000000000000000000949ab1ced194c28977b396526f41fcb473010219",
          "blockHash": "0x0cc77f527cd2bfb39f4a704c6a78d4ae410906c04ce04e748f8cf3a88b4a67f8",
          "blockNumber": "0x4cfdacc",
          "blockTimestamp": "0x694be2a3",
          "transactionHash": "0x782f895d58b28a4924440aace440d1f876993d4f711316c66af741fc02b7d5c8",
          "transactionIndex": "0x78",
          "logIndex": "0x5c2",
          "removed": false
        },
        {
          "address": "0x0000000000000000000000000000000000001010",
          "topics": [
            "0x4dfe1bbbcf077ddc3e01291eea2d5c70c2b422b415d95645b9adcfd678cb1d63",
            "0x0000000000000000000000000000000000000000000000000000000000001010",
            "0x000000000000000000000000dbdb7f1d84bbecaccda2ab7f9e6ca181f685022d",
            "0x0000000000000000000000007ee41d8a25641000661b1ef5e6ae8a00400466b0"
          ],
          "data": "0x0000000000000000000000000000000000000000000000000006d69618379c0000000000000000000000000000000000000000000000000f34796992342d3dc8000000000000000000000000000000000000000000035691adfd2854e280d1a400000000000000000000000000000000000000000000000f347292fc1bf5a1c8000000000000000000000000000000000000000000035691ae03feeafab86da4",
          "blockHash": "0x0cc77f527cd2bfb39f4a704c6a78d4ae410906c04ce04e748f8cf3a88b4a67f8",
          "blockNumber": "0x4cfdacc",
          "blockTimestamp": "0x694be2a3",
          "transactionHash": "0x782f895d58b28a4924440aace440d1f876993d4f711316c66af741fc02b7d5c8",
          "transactionIndex": "0x78",
          "logIndex": "0x5c3",
          "removed": false
        }
      ],
      "logsBloom": "0x00000000000000000000000000000000000000080000000000000000000000000000000000000000000000000000000000008000000000000200000000000000000000000000000000000000000000800004000000000000000500000000000010000000000000000000000000000000000000000000000080000000000020000000002000000000020000000400000000020000000000000000000000000000200000000000000040000000000000000000000000000000000000008000004000040000000000800001000808000000000000400000004000100000000000000000000000000000000000000000000000000000000000000000000000100000",
      "type": "0x2",
      "transactionHash": "0x782f895d58b28a4924440aace440d1f876993d4f711316c66af741fc02b7d5c8",
      "transactionIndex": "0x78",
      "blockHash": "0x0cc77f527cd2bfb39f4a704c6a78d4ae410906c04ce04e748f8cf3a88b4a67f8",
      "blockNumber": "0x4cfdacc",
      "gasUsed": "0xd6d2",
      "effectiveGasPrice": "0x16aa3ee465",
      "from": "0xdbdb7f1d84bbecaccda2ab7f9e6ca181f685022d",
      "to": "0xf336c098f277cad689b09f15eaca8f473b511855",
      "contractAddress": null
    },
    {
      "status": "0x1",
      "cumulativeGasUsed": "0x1ae8c0d",
      "logs": [
        {
          "address": "0xf336c098f277cad689b09f15eaca8f473b511855",
          "topics": [
            "0x427db48f8cd0cf7fdabcdbc1327c7db26ce3a544292ba380ef07d5175af729cd",
            "0x000000000000000000000000c2132d05d31c914a87c6611c10748aeb04b58e8f",
            "0x0000000000000000000000000000000000000000000000000000000000000531"
          ],
          "data": "0x000000000000000000000000949ab1ced194c28977b396526f41fcb473010219",
          "blockHash": "0x0cc77f527cd2bfb39f4a704c6a78d4ae410906c04ce04e748f8cf3a88b4a67f8",
          "blockNumber": "0x4cfdacc",
          "blockTimestamp": "0x694be2a3",
          "transactionHash": "0x976dde3a0cde6f784687e009a894e7194c73495255bb241cda2cb190ee85936a",
          "transactionIndex": "0x79",
          "logIndex": "0x5c4",
          "removed": false
        },
        {
          "address": "0x0000000000000000000000000000000000001010",
          "topics": [
            "0x4dfe1bbbcf077ddc3e01291eea2d5c70c2b422b415d95645b9adcfd678cb1d63",
            "0x0000000000000000000000000000000000000000000000000000000000001010",
            "0x000000000000000000000000dbdb7f1d84bbecaccda2ab7f9e6ca181f685022d",
            "0x0000000000000000000000007ee41d8a25641000661b1ef5e6ae8a00400466b0"
          ],
          "data": "0x0000000000000000000000000000000000000000000000000006d5d28450cc0000000000000000000000000000000000000000000000000f346664a9f9a974ee000000000000000000000000000000000000000000035691ae03feeafab86da400000000000000000000000000000000000000000000000f345f8ed77558a8ee000000000000000000000000000000000000000000035691ae0ad4bd7f0939a4",
          "blockHash": "0x0cc77f527cd2bfb39f4a704c6a78d4ae410906c04ce04e748f8cf3a88b4a67f8",
          "blockNumber": "0x4cfdacc",
          "blockTimestamp": "0x694be2a3",
          "transactionHash": "0x976dde3a0cde6f784687e009a894e7194c73495255bb241cda2cb190ee85936a",
          "transactionIndex": "0x79",
          "logIndex": "0x5c5",
          "removed": false
        }
      ],
      "logsBloom": "0x00000000000000000000000000000000000000000000000000000000000000000000000000000000000000000000000000008000000000000200000000000000000400000000000000000000000100800004000000000000000500000004000010000000000000000000000000000000000000000000000080000000000000000000002000000000020000000400000000020000000000000000000000000000200000000000000040000000000000000000000000000000000000008000004000040000000000800001000008000000000000400000004000100000000000000000000000000000000000000000000000000000000000000000000000100000",
      "type": "0x2",
      "transactionHash": "0x976dde3a0cde6f784687e009a894e7194c73495255bb241cda2cb190ee85936a",
      "transactionIndex": "0x79",
      "blockHash": "0x0cc77f527cd2bfb39f4a704c6a78d4ae410906c04ce04e748f8cf3a88b4a67f8",
      "blockNumber": "0x4cfdacc",
      "gasUsed": "0xd6ba",
      "effectiveGasPrice": "0x16aa3ee465",
      "from": "0xdbdb7f1d84bbecaccda2ab7f9e6ca181f685022d",
      "to": "0xf336c098f277cad689b09f15eaca8f473b511855",
      "contractAddress": null
    },
    {
      "status": "0x1",
      "cumulativeGasUsed": "0x1af62bb",
      "logs": [
        {
          "address": "0xf336c098f277cad689b09f15eaca8f473b511855",
          "topics": [
            "0x427db48f8cd0cf7fdabcdbc1327c7db26ce3a544292ba380ef07d5175af729cd",
            "0x000000000000000000000000c2132d05d31c914a87c6611c10748aeb04b58e8f",
            "0x000000000000000000000000000000000000000000000000000000000000000e"
          ],
          "data": "0x000000000000000000000000949ab1ced194c28977b396526f41fcb473010219",
          "blockHash": "0x0cc77f527cd2bfb39f4a704c6a78d4ae410906c04ce04e748f8cf3a88b4a67f8",
          "blockNumber": "0x4cfdacc",
          "blockTimestamp": "0x694be2a3",
          "transactionHash": "0x4de0c490eafd9e85abf0ea0255af6bc789892bc1034df17481feb897b532d6ac",
          "transactionIndex": "0x7a",
          "logIndex": "0x5c6",
          "removed": false
        },
        {
          "address": "0x0000000000000000000000000000000000001010",
          "topics": [
            "0x4dfe1bbbcf077ddc3e01291eea2d5c70c2b422b415d95645b9adcfd678cb1d63",
            "0x0000000000000000000000000000000000000000000000000000000000001010",
            "0x000000000000000000000000dbdb7f1d84bbecaccda2ab7f9e6ca181f685022d",
            "0x0000000000000000000000007ee41d8a25641000661b1ef5e6ae8a00400466b0"
          ],
          "data": "0x0000000000000000000000000000000000000000000000000006d570ba5d640000000000000000000000000000000000000000000000000f345361e1b50b158c000000000000000000000000000000000000000000035691ae0ad4bd7f0939a400000000000000000000000000000000000000000000000f344c8c70faadb18c000000000000000000000000000000000000000000035691ae11aa2e39669da4",
          "blockHash": "0x0cc77f527cd2bfb39f4a704c6a78d4ae410906c04ce04e748f8cf3a88b4a67f8",
          "blockNumber": "0x4cfdacc",
          "blockTimestamp": "0x694be2a3",
          "transactionHash": "0x4de0c490eafd9e85abf0ea0255af6bc789892bc1034df17481feb897b532d6ac",
          "transactionIndex": "0x7a",
          "logIndex": "0x5c7",
          "removed": false
        }
      ],
      "logsBloom": "0x00000000000000000000000000000000000000000000000000000000000000000000000000000000000000000000000000008000000000000200000000000000000000000000000800000000000000800004000000000000000500000000000010000000000000000000000000000000000000000000000080000000000000000000002000000000020000000400000008020000000000000000000000000000200000000000000040000000000000000000000000000020000000008000004000040000000000800001000008000000000000400000004000100000000000000000000000000000000000000000000000000000000000000000000000100000",
      "type": "0x2",
      "transactionHash": "0x4de0c490eafd9e85abf0ea0255af6bc789892bc1034df17481feb897b532d6ac",
      "transactionIndex": "0x7a",
      "blockHash": "0x0cc77f527cd2bfb39f4a704c6a78d4ae410906c04ce04e748f8cf3a88b4a67f8",
      "blockNumber": "0x4cfdacc",
      "gasUsed": "0xd6ae",
      "effectiveGasPrice": "0x16aa3ee465",
      "from": "0xdbdb7f1d84bbecaccda2ab7f9e6ca181f685022d",
      "to": "0xf336c098f277cad689b09f15eaca8f473b511855",
      "contractAddress": null
    },
    {
      "status": "0x1",
      "cumulativeGasUsed": "0x1bde922",
      "logs": [
        {
          "address": "0xf336c098f277cad689b09f15eaca8f473b511855",
          "topics": [
            "0x427db48f8cd0cf7fdabcdbc1327c7db26ce3a544292ba380ef07d5175af729cd",
            "0x000000000000000000000000c2132d05d31c914a87c6611c10748aeb04b58e8f",
            "0x00000000000000000000000000000000000000000000000000000000000003e7"
          ],
          "data": "0x000000000000000000000000949ab1ced194c28977b396526f41fcb473010219",
          "blockHash": "0x0cc77f527cd2bfb39f4a704c6a78d4ae410906c04ce04e748f8cf3a88b4a67f8",
          "blockNumber": "0x4cfdacc",
          "blockTimestamp": "0x694be2a3",
          "transactionHash": "0x06a72e2321f9cf0aded4b019180bd152c7475fe3d318e108edb01b8f70b40287",
          "transactionIndex": "0x82",
          "logIndex": "0x5ff",
          "removed": false
        },
        {
          "address": "0x0000000000000000000000000000000000001010",
          "topics": [
            "0x4dfe1bbbcf077ddc3e01291eea2d5c70c2b422b415d95645b9adcfd678cb1d63",
            "0x0000000000000000000000000000000000000000000000000000000000001010",
            "0x000000000000000000000000dbdb7f1d84bbecaccda2ab7f9e6ca181f685022d",
            "0x0000000000000000000000007ee41d8a25641000661b1ef5e6ae8a00400466b0"
          ],
          "data": "0x0000000000000000000000000000000000000000000000000006d5d28450cc0000000000000000000000000000000000000000000000000f344060296b5f6ae6000000000000000000000000000000000000000000035691ae8131e37c8863a400000000000000000000000000000000000000000000000f34398a56e70e9ee6000000000000000000000000000000000000000000035691ae8807b600d92fa4",
          "blockHash": "0x0cc77f527cd2bfb39f4a704c6a78d4ae410906c04ce04e748f8cf3a88b4a67f8",
          "blockNumber": "0x4cfdacc",
          "blockTimestamp": "0x694be2a3",
          "transactionHash": "0x06a72e2321f9cf0aded4b019180bd152c7475fe3d318e108edb01b8f70b40287",
          "transactionIndex": "0x82",
          "logIndex": "0x600",
          "removed": false
        }
      ],
      "logsBloom": "0x00000000000000000000000000000000000000000000000000000000000000000000000000000000000000000000000000008000000000000200000000000000000000000000000000000000000000800004000000000000004500080000000010000000000000000000000000000000000000000000000080000000000000000000002000000000020000000400000000020000000000000000000000000000200000000000000040100000000000000000000000000000000000008000004000040000000000800001000008000000000000400000004000100000000000000000000000000000000000000000000000000000000000000000000000100000",
      "type": "0x2",
      "transactionHash": "0x06a72e2321f9cf0aded4b019180bd152c7475fe3d318e108edb01b8f70b40287",
      "transactionIndex": "0x82",
      "blockHash": "0x0cc77f527cd2bfb39f4a704c6a78d4ae410906c04ce04e748f8cf3a88b4a67f8",
      "blockNumber": "0x4cfdacc",
      "gasUsed": "0xd6ba",
      "effectiveGasPrice": "0x16aa3ee465",
      "from": "0xdbdb7f1d84bbecaccda2ab7f9e6ca181f685022d",
      "to": "0xf336c098f277cad689b09f15eaca8f473b511855",
      "contractAddress": null
    },
    {
      "status": "0x1",
      "cumulativeGasUsed": "0x1c151a7",
      "logs": [
        {
          "address": "0xf336c098f277cad689b09f15eaca8f473b511855",
          "topics": [
            "0x427db48f8cd0cf7fdabcdbc1327c7db26ce3a544292ba380ef07d5175af729cd",
            "0x000000000000000000000000c2132d05d31c914a87c6611c10748aeb04b58e8f",
            "0x000000000000000000000000000000000000000000000000000000000000001e"
          ],
          "data": "0x000000000000000000000000949ab1ced194c28977b396526f41fcb473010219",
          "blockHash": "0x0cc77f527cd2bfb39f4a704c6a78d4ae410906c04ce04e748f8cf3a88b4a67f8",
          "blockNumber": "0x4cfdacc",
          "blockTimestamp": "0x694be2a3",
          "transactionHash": "0xea54508ed6e39aed8d1d438dcfaf344905d98724d07be7e9eefe68adf7cf9ae5",
          "transactionIndex": "0x84",
          "logIndex": "0x60a",
          "removed": false
        },
        {
          "address": "0x0000000000000000000000000000000000001010",
          "topics": [
            "0x4dfe1bbbcf077ddc3e01291eea2d5c70c2b422b415d95645b9adcfd678cb1d63",
            "0x0000000000000000000000000000000000000000000000000000000000001010",
            "0x000000000000000000000000dbdb7f1d84bbecaccda2ab7f9e6ca181f685022d",
            "0x0000000000000000000000007ee41d8a25641000661b1ef5e6ae8a00400466b0"
          ],
          "data": "0x0000000000000000000000000000000000000000000000000006d570ba5d640000000000000000000000000000000000000000000000000f342d5d6126c10b84000000000000000000000000000000000000000000035691ae9cf87edc4ae1a400000000000000000000000000000000000000000000000f342687f06c63a784000000000000000000000000000000000000000000035691aea3cdef96a845a4",
          "blockHash": "0x0cc77f527cd2bfb39f4a704c6a78d4ae410906c04ce04e748f8cf3a88b4a67f8",
          "blockNumber": "0x4cfdacc",
          "blockTimestamp": "0x694be2a3",
          "transactionHash": "0xea54508ed6e39aed8d1d438dcfaf344905d98724d07be7e9eefe68adf7cf9ae5",
          "transactionIndex": "0x84",
          "logIndex": "0x60b",
          "removed": false
        }
      ],
      "logsBloom": "0x00000000000000000000000000000000000000000000000000000000000000000000000000000000000000000400000000008000000000000200000000000000000000000000008000000000000000800004000000000000000500000000000010000000000000000000000000000000000000000000000080000000000000000000002000000000020000000400000000020000000000000000000000000000200000000000000040000000000000000000000000000000000000008000004000040000000000800001000008000000000000400000004000100000000000000000000000000000080000000000000000000000000000000000000000100000",
      "type": "0x2",
      "transactionHash": "0xea54508ed6e39aed8d1d438dcfaf344905d98724d07be7e9eefe68adf7cf9ae5",
      "transactionIndex": "0x84",
      "blockHash": "0x0cc77f527cd2bfb39f4a704c6a78d4ae410906c04ce04e748f8cf3a88b4a67f8",
      "blockNumber": "0x4cfdacc",
      "gasUsed": "0xd6ae",
      "effectiveGasPrice": "0x16aa3ee465",
      "from": "0xdbdb7f1d84bbecaccda2ab7f9e6ca181f685022d",
      "to": "0xf336c098f277cad689b09f15eaca8f473b511855",
      "contractAddress": null
    },
    {
      "status": "0x1",
      "cumulativeGasUsed": "0x1c22855",
      "logs": [
        {
          "address": "0xf336c098f277cad689b09f15eaca8f473b511855",
          "topics": [
            "0x427db48f8cd0cf7fdabcdbc1327c7db26ce3a544292ba380ef07d5175af729cd",
            "0x000000000000000000000000c2132d05d31c914a87c6611c10748aeb04b58e8f",
            "0x00000000000000000000000000000000000000000000000000000000000000c4"
          ],
          "data": "0x000000000000000000000000949ab1ced194c28977b396526f41fcb473010219",
          "blockHash": "0x0cc77f527cd2bfb39f4a704c6a78d4ae410906c04ce04e748f8cf3a88b4a67f8",
          "blockNumber": "0x4cfdacc",
          "blockTimestamp": "0x694be2a3",
          "transactionHash": "0x446760ff80eba0a2a7c667855c9998ee27035486683d164a62dbee3f41d95d3f",
          "transactionIndex": "0x85",
          "logIndex": "0x60c",
          "removed": false
        },
        {
          "address": "0x0000000000000000000000000000000000001010",
          "topics": [
            "0x4dfe1bbbcf077ddc3e01291eea2d5c70c2b422b415d95645b9adcfd678cb1d63",
            "0x0000000000000000000000000000000000000000000000000000000000001010",
            "0x000000000000000000000000dbdb7f1d84bbecaccda2ab7f9e6ca181f685022d",
            "0x0000000000000000000000007ee41d8a25641000661b1ef5e6ae8a00400466b0"
          ],
          "data": "0x0000000000000000000000000000000000000000000000000006d570ba5d640000000000000000000000000000000000000000000000000f341a5ba8dd1560de000000000000000000000000000000000000000000035691aea3cdef96a845a400000000000000000000000000000000000000000000000f3413863822b7fcde000000000000000000000000000000000000000000035691aeaaa3605105a9a4",
          "blockHash": "0x0cc77f527cd2bfb39f4a704c6a78d4ae410906c04ce04e748f8cf3a88b4a67f8",
          "blockNumber": "0x4cfdacc",
          "blockTimestamp": "0x694be2a3",
          "transactionHash": "0x446760ff80eba0a2a7c667855c9998ee27035486683d164a62dbee3f41d95d3f",
          "transactionIndex": "0x85",
          "logIndex": "0x60d",
          "removed": false
        }
      ],
      "logsBloom": "0x00000000000000000000000000000000000000000000000000000000000000000000000000000000000000000000000000008000000000000200000000000000000000000000000000000000000000800004000000000000000500000000000010000000000000000000000000000000000000000000000080000000000000000000002040000000020000000400000000020000000000000000000000001000200000000000000040000000000000000000000000000000000000008000004000040000000000800001000008000000000000400000004000100000000000000000000000000000000000000000000000000000008000000000000000100000",
      "type": "0x2",
      "transactionHash": "0x446760ff80eba0a2a7c667855c9998ee27035486683d164a62dbee3f41d95d3f",
      "transactionIndex": "0x85",
      "blockHash": "0x0cc77f527cd2bfb39f4a704c6a78d4ae410906c04ce04e748f8cf3a88b4a67f8",
      "blockNumber": "0x4cfdacc",
      "gasUsed": "0xd6ae",
      "effectiveGasPrice": "0x16aa3ee465",
      "from": "0xdbdb7f1d84bbecaccda2ab7f9e6ca181f685022d",
      "to": "0xf336c098f277cad689b09f15eaca8f473b511855",
      "contractAddress": null
    },
    {
      "status": "0x1",
      "cumulativeGasUsed": "0x1c2ff0f",
      "logs": [
        {
          "address": "0xf336c098f277cad689b09f15eaca8f473b511855",
          "topics": [
            "0x427db48f8cd0cf7fdabcdbc1327c7db26ce3a544292ba380ef07d5175af729cd",
            "0x000000000000000000000000c2132d05d31c914a87c6611c10748aeb04b58e8f",
            "0x0000000000000000000000000000000000000000000000000000000000002611"
          ],
          "data": "0x000000000000000000000000949ab1ced194c28977b396526f41fcb473010219",
          "blockHash": "0x0cc77f527cd2bfb39f4a704c6a78d4ae410906c04ce04e748f8cf3a88b4a67f8",
          "blockNumber": "0x4cfdacc",
          "blockTimestamp": "0x694be2a3",
          "transactionHash": "0x006ba08a064e905d95a97918c415c330f213efdf078aaf34963748d7d2b99193",
          "transactionIndex": "0x86",
          "logIndex": "0x60e",
          "removed": false
        },
        {
          "address": "0x0000000000000000000000000000000000001010",
          "topics": [
            "0x4dfe1bbbcf077ddc3e01291eea2d5c70c2b422b415d95645b9adcfd678cb1d63",
            "0x0000000000000000000000000000000000000000000000000000000000001010",
            "0x000000000000000000000000dbdb7f1d84bbecaccda2ab7f9e6ca181f685022d",
            "0x0000000000000000000000007ee41d8a25641000661b1ef5e6ae8a00400466b0"
          ],
          "data": "0x0000000000000000000000000000000000000000000000000006d5d28450cc0000000000000000000000000000000000000000000000000f340759f09369b638000000000000000000000000000000000000000000035691aeaaa3605105a9a400000000000000000000000000000000000000000000000f3400841e0f18ea38000000000000000000000000000000000000000000035691aeb17932d55675a4",
          "blockHash": "0x0cc77f527cd2bfb39f4a704c6a78d4ae410906c04ce04e748f8cf3a88b4a67f8",
          "blockNumber": "0x4cfdacc",
          "blockTimestamp": "0x694be2a3",
          "transactionHash": "0x006ba08a064e905d95a97918c415c330f213efdf078aaf34963748d7d2b99193",
          "transactionIndex": "0x86",
          "logIndex": "0x60f",
          "removed": false
        }
      ],
      "logsBloom": "0x00000000000000000000000000000000000000000000000000000000000000000000001000000000000000000000000000008000000000000200000000000000000000000000000000000000000000800004000000000000000500000000000010400000000000000000000000000000000000000000000080000000000000000000002000000000020000000400000000020000000000000000000000800000200000000000000040000000000000000000000000000000000000008000004000040000000000800001000008000000000000400000004000100000000000000000000000000000000000000000000000000000000000000000000000100000",
      "type": "0x2",
      "transactionHash": "0x006ba08a064e905d95a97918c415c330f213efdf078aaf34963748d7d2b99193",
      "transactionIndex": "0x86",
      "blockHash": "0x0cc77f527cd2bfb39f4a704c6a78d4ae410906c04ce04e748f8cf3a88b4a67f8",
      "blockNumber": "0x4cfdacc",
      "gasUsed": "0xd6ba",
      "effectiveGasPrice": "0x16aa3ee465",
      "from": "0xdbdb7f1d84bbecaccda2ab7f9e6ca181f685022d",
      "to": "0xf336c098f277cad689b09f15eaca8f473b511855",
      "contractAddress": null
    },
    {
      "status": "0x1",
      "cumulativeGasUsed": "0x1c704e3",
      "logs": [
        {
          "address": "0xf336c098f277cad689b09f15eaca8f473b511855",
          "topics": [
            "0x427db48f8cd0cf7fdabcdbc1327c7db26ce3a544292ba380ef07d5175af729cd",
            "0x000000000000000000000000c2132d05d31c914a87c6611c10748aeb04b58e8f",
            "0x0000000000000000000000000000000000000000000000000000000000000406"
          ],
          "data": "0x000000000000000000000000949ab1ced194c28977b396526f41fcb473010219",
          "blockHash": "0x0cc77f527cd2bfb39f4a704c6a78d4ae410906c04ce04e748f8cf3a88b4a67f8",
          "blockNumber": "0x4cfdacc",
          "blockTimestamp": "0x694be2a3",
          "transactionHash": "0x7c4da89f59ab4a3488e15fd8cf131bf00230fa5df73b8ae75231db726be11370",
          "transactionIndex": "0x89",
          "logIndex": "0x61b",
          "removed": false
        },
        {
          "address": "0x0000000000000000000000000000000000001010",
          "topics": [
            "0x4dfe1bbbcf077ddc3e01291eea2d5c70c2b422b415d95645b9adcfd678cb1d63",
            "0x0000000000000000000000000000000000000000000000000000000000001010",
            "0x000000000000000000000000dbdb7f1d84bbecaccda2ab7f9e6ca181f685022d",
            "0x0000000000000000000000007ee41d8a25641000661b1ef5e6ae8a00400466b0"
          ],
          "data": "0x0000000000000000000000000000000000000000000000000006d5d28450cc0000000000000000000000000000000000000000000000000f33f457284ecb56d6000000000000000000000000000000000000000000035691aecb6b85339281a400000000000000000000000000000000000000000000000f33ed8155ca7a8ad6000000000000000000000000000000000000000000035691aed24157b7e34da4",
          "blockHash": "0x0cc77f527cd2bfb39f4a704c6a78d4ae410906c04ce04e748f8cf3a88b4a67f8",
          "blockNumber": "0x4cfdacc",
          "blockTimestamp": "0x694be2a3",
          "transactionHash": "0x7c4da89f59ab4a3488e15fd8cf131bf00230fa5df73b8ae75231db726be11370",
          "transactionIndex": "0x89",
          "logIndex": "0x61c",
          "removed": false
        }
      ],
      "logsBloom": "0x00000000000000000000000000000000000000000000000000000000000000000000000000000000000000000000000000008000000000000200000000000000000000000000000000000000000000800004000000000000000500000000000010000000100000000000000000000000000000000000000080000000000000000000002000000000020000000400000000020000000000000000000000000000200000000800000040000000000000000000000000000000000000008000004000040000000000800001000008000000000000400000004000100000000000000000000000010000000000000000000000000000000000000000000000100000",
      "type": "0x2",
      "transactionHash": "0x7c4da89f59ab4a3488e15fd8cf131bf00230fa5df73b8ae75231db726be11370",
      "transactionIndex": "0x89",
      "blockHash": "0x0cc77f527cd2bfb39f4a704c6a78d4ae410906c04ce04e748f8cf3a88b4a67f8",
      "blockNumber": "0x4cfdacc",
      "gasUsed": "0xd6ba",
      "effectiveGasPrice": "0x16aa3ee465",
      "from": "0xdbdb7f1d84bbecaccda2ab7f9e6ca181f685022d",
      "to": "0xf336c098f277cad689b09f15eaca8f473b511855",
      "contractAddress": null
    },
    {
      "status": "0x1",
      "cumulativeGasUsed": "0x1c7db9d",
      "logs": [
        {
          "address": "0xf336c098f277cad689b09f15eaca8f473b511855",
          "topics": [
            "0x427db48f8cd0cf7fdabcdbc1327c7db26ce3a544292ba380ef07d5175af729cd",
            "0x000000000000000000000000c2132d05d31c914a87c6611c10748aeb04b58e8f",
            "0x0000000000000000000000000000000000000000000000000000000000001388"
          ],
          "data": "0x000000000000000000000000949ab1ced194c28977b396526f41fcb473010219",
          "blockHash": "0x0cc77f527cd2bfb39f4a704c6a78d4ae410906c04ce04e748f8cf3a88b4a67f8",
          "blockNumber": "0x4cfdacc",
          "blockTimestamp": "0x694be2a3",
          "transactionHash": "0x0dd97dc0c7f3dbb6810856ae20c39326e11a01b34c356c218ce85269f8678bd5",
          "transactionIndex": "0x8a",
          "logIndex": "0x61d",
          "removed": false
        },
        {
          "address": "0x0000000000000000000000000000000000001010",
          "topics": [
            "0x4dfe1bbbcf077ddc3e01291eea2d5c70c2b422b415d95645b9adcfd678cb1d63",
            "0x0000000000000000000000000000000000000000000000000000000000001010",
            "0x000000000000000000000000dbdb7f1d84bbecaccda2ab7f9e6ca181f685022d",
            "0x0000000000000000000000007ee41d8a25641000661b1ef5e6ae8a00400466b0"
          ],
          "data": "0x0000000000000000000000000000000000000000000000000006d5d28450cc0000000000000000000000000000000000000000000000000f33e154600a2cf774000000000000000000000000000000000000000000035691aed24157b7e34da400000000000000000000000000000000000000000000000f33da7e8d85dc2b74000000000000000000000000000000000000000000035691aed9172a3c3419a4",
          "blockHash": "0x0cc77f527cd2bfb39f4a704c6a78d4ae410906c04ce04e748f8cf3a88b4a67f8",
          "blockNumber": "0x4cfdacc",
          "blockTimestamp": "0x694be2a3",
          "transactionHash": "0x0dd97dc0c7f3dbb6810856ae20c39326e11a01b34c356c218ce85269f8678bd5",
          "transactionIndex": "0x8a",
          "logIndex": "0x61e",
          "removed": false
        }
      ],
      "logsBloom": "0x00000000000000000000000000000000000000000000000000000000000000000000000000000000000000000000000000008000000000000200000000000000100000000000000000000000000000800004000000000000000500000000000010000000000000000000000000000000000000000000000080000000000000000000002000000000020000000400000000020000000000000000000000000000200000000000000040000010000000000000000000000000000000008000004000040000000000800001000008000200000000400000004000100000000000000000000000000000000000000000000000000000000000000000000000100000",
      "type": "0x2",
      "transactionHash": "0x0dd97dc0c7f3dbb6810856ae20c39326e11a01b34c356c218ce85269f8678bd5",
      "transactionIndex": "0x8a",
      "blockHash": "0x0cc77f527cd2bfb39f4a704c6a78d4ae410906c04ce04e748f8cf3a88b4a67f8",
      "blockNumber": "0x4cfdacc",
      "gasUsed": "0xd6ba",
      "effectiveGasPrice": "0x16aa3ee465",
      "from": "0xdbdb7f1d84bbecaccda2ab7f9e6ca181f685022d",
      "to": "0xf336c098f277cad689b09f15eaca8f473b511855",
      "contractAddress": null
    },
    {
      "status": "0x1",
      "cumulativeGasUsed": "0x1c8b24b",
      "logs": [
        {
          "address": "0xf336c098f277cad689b09f15eaca8f473b511855",
          "topics": [
            "0x427db48f8cd0cf7fdabcdbc1327c7db26ce3a544292ba380ef07d5175af729cd",
            "0x000000000000000000000000c2132d05d31c914a87c6611c10748aeb04b58e8f",
            "0x000000000000000000000000000000000000000000000000000000000000008f"
          ],
          "data": "0x000000000000000000000000949ab1ced194c28977b396526f41fcb473010219",
          "blockHash": "0x0cc77f527cd2bfb39f4a704c6a78d4ae410906c04ce04e748f8cf3a88b4a67f8",
          "blockNumber": "0x4cfdacc",
          "blockTimestamp": "0x694be2a3",
          "transactionHash": "0x7906175b91d89e7f7348de409a65c5c7ddbdf2715280ee97c77372d1f32f2e53",
          "transactionIndex": "0x8b",
          "logIndex": "0x61f",
          "removed": false
        },
        {
          "address": "0x0000000000000000000000000000000000001010",
          "topics": [
            "0x4dfe1bbbcf077ddc3e01291eea2d5c70c2b422b415d95645b9adcfd678cb1d63",
            "0x0000000000000000000000000000000000000000000000000000000000001010",
            "0x000000000000000000000000dbdb7f1d84bbecaccda2ab7f9e6ca181f685022d",
            "0x0000000000000000000000007ee41d8a25641000661b1ef5e6ae8a00400466b0"
          ],
          "data": "0x0000000000000000000000000000000000000000000000000006d570ba5d640000000000000000000000000000000000000000000000000f33ce5197c58e9812000000000000000000000000000000000000000000035691aed9172a3c3419a400000000000000000000000000000000000000000000000f33c77c270b313412000000000000000000000000000000000000000000035691aedfec9af6917da4",
          "blockHash": "0x0cc77f527cd2bfb39f4a704c6a78d4ae410906c04ce04e748f8cf3a88b4a67f8",
          "blockNumber": "0x4cfdacc",
          "blockTimestamp": "0x694be2a3",
          "transactionHash": "0x7906175b91d89e7f7348de409a65c5c7ddbdf2715280ee97c77372d1f32f2e53",
          "transactionIndex": "0x8b",
          "logIndex": "0x620",
          "removed": false
        }
      ],
      "logsBloom": "0x00000000000000000000000000000000000000000000000000000000000000000000000000000000000000000000000000008000000000000200000000000000000000000000000000000000000000800004000000000000000500000000000010000000000000000000000000000000000000000000000080000000000000000000002000000000020000000400000080020000000000000000000400000000200000000000000040000000000000000000000000000000000000008000004000040000000000800001000008000000000000400000004000100000000800000000000000000000000000000000000000000000000000000000000000100000",
      "type": "0x2",
      "transactionHash": "0x7906175b91d89e7f7348de409a65c5c7ddbdf2715280ee97c77372d1f32f2e53",
      "transactionIndex": "0x8b",
      "blockHash": "0x0cc77f527cd2bfb39f4a704c6a78d4ae410906c04ce04e748f8cf3a88b4a67f8",
      "blockNumber": "0x4cfdacc",
      "gasUsed": "0xd6ae",
      "effectiveGasPrice": "0x16aa3ee465",
      "from": "0xdbdb7f1d84bbecaccda2ab7f9e6ca181f685022d",
      "to": "0xf336c098f277cad689b09f15eaca8f473b511855",
      "contractAddress": null
    },
    {
      "status": "0x1",
      "cumulativeGasUsed": "0x1cb9473",
      "logs": [
        {
          "address": "0xf336c098f277cad689b09f15eaca8f473b511855",
          "topics": [
            "0x427db48f8cd0cf7fdabcdbc1327c7db26ce3a544292ba380ef07d5175af729cd",
            "0x000000000000000000000000c2132d05d31c914a87c6611c10748aeb04b58e8f",
            "0x00000000000000000000000000000000000000000000000000000000000003dc"
          ],
          "data": "0x000000000000000000000000949ab1ced194c28977b396526f41fcb473010219",
          "blockHash": "0x0cc77f527cd2bfb39f4a704c6a78d4ae410906c04ce04e748f8cf3a88b4a67f8",
          "blockNumber": "0x4cfdacc",
          "blockTimestamp": "0x694be2a3",
          "transactionHash": "0x1c3cd77d4e0baf374f4a90110e8d0c115c20d46daf74d43a2629f95f0cf582c7",
          "transactionIndex": "0x8d",
          "logIndex": "0x629",
          "removed": false
        },
        {
          "address": "0x0000000000000000000000000000000000001010",
          "topics": [
            "0x4dfe1bbbcf077ddc3e01291eea2d5c70c2b422b415d95645b9adcfd678cb1d63",
            "0x0000000000000000000000000000000000000000000000000000000000001010",
            "0x000000000000000000000000dbdb7f1d84bbecaccda2ab7f9e6ca181f685022d",
            "0x0000000000000000000000007ee41d8a25641000661b1ef5e6ae8a00400466b0"
          ],
          "data": "0x0000000000000000000000000000000000000000000000000006d5d28450cc0000000000000000000000000000000000000000000000000f33bb4fdf7be2ed6c000000000000000000000000000000000000000000035691aef09612623d61a400000000000000000000000000000000000000000000000f33b47a0cf792216c000000000000000000000000000000000000000000035691aef76be4e68e2da4",
          "blockHash": "0x0cc77f527cd2bfb39f4a704c6a78d4ae410906c04ce04e748f8cf3a88b4a67f8",
          "blockNumber": "0x4cfdacc",
          "blockTimestamp": "0x694be2a3",
          "transactionHash": "0x1c3cd77d4e0baf374f4a90110e8d0c115c20d46daf74d43a2629f95f0cf582c7",
          "transactionIndex": "0x8d",
          "logIndex": "0x62a",
          "removed": false
        }
      ],
      "logsBloom": "0x00000000000000000000000000000000000000000000000000000000000000000000000000000000000000000000000000008000000000000200000000000000000000000000000000000000000000800004000000000000000500000000000010000000000000000000000000000000000000000000000080000800000000000000002000000000020000000400000000020000000000000000000000000000200000000000000040000000000000000000000000000000000000008000004000040000000000800001000008000000000000400000004000100000000000000000000000000400000000000000000000000000000000000000000000100000",
      "type": "0x2",
      "transactionHash": "0x1c3cd77d4e0baf374f4a90110e8d0c115c20d46daf74d43a2629f95f0cf582c7",
      "transactionIndex": "0x8d",
      "blockHash": "0x0cc77f527cd2bfb39f4a704c6a78d4ae410906c04ce04e748f8cf3a88b4a67f8",
      "blockNumber": "0x4cfdacc",
      "gasUsed": "0xd6ba",
      "effectiveGasPrice": "0x16aa3ee465",
      "from": "0xdbdb7f1d84bbecaccda2ab7f9e6ca181f685022d",
      "to": "0xf336c098f277cad689b09f15eaca8f473b511855",
      "contractAddress": null
    }
  ],
  "libraries": [],
  "pending": [],
  "returns": {},
  "timestamp": 1766580900558,
  "chain": 137,
  "commit": "5c3b25c"
}