{
  "transactions": [
    {
      "hash": "0x7824ac78ff920f71063ac89452cd0716709ee0037bc6a5530ea934ac610f49b5",
      "transactionType": "CALL",
      "contractName": null,
      "contractAddress": "0x24f48fb3c1ee0f25b4b716c15bf4f76675252834",
      "function": "setBridger(address,uint256,address)",
      "arguments": [
        "0x3c499c542cEF5E3811e1192ce70d8cC03d5c3359",
        "1",
        "0x7A4ce45341a5F391538BddCB361F555BEAc39D03"
      ],
      "transaction": {
        "from": "0xdbdb7f1d84bbecaccda2ab7f9e6ca181f685022d",
        "to": "0x24f48fb3c1ee0f25b4b716c15bf4f76675252834",
        "gas": "0x12885",
        "value": "0x0",
        "input": "0x665e0eed0000000000000000000000003c499c542cef5e3811e1192ce70d8cc03d5c335900000000000000000000000000000000000000000000000000000000000000010000000000000000000000007a4ce45341a5f391538bddcb361f555beac39d03",
        "nonce": "0x34",
        "chainId": "0x89"
      },
      "additionalContracts": [],
      "isFixedGasLimit": false
    },
    {
      "hash": "0x18e82bc1ec934cac4cdb868e73895c60cb29d494dfcbb522cb2313153994d1dd",
      "transactionType": "CALL",
      "contractName": null,
      "contractAddress": "0x24f48fb3c1ee0f25b4b716c15bf4f76675252834",
      "function": "setBridger(address,uint256,address)",
      "arguments": [
        "0x3c499c542cEF5E3811e1192ce70d8cC03d5c3359",
        "43114",
        "0x7A4ce45341a5F391538BddCB361F555BEAc39D03"
      ],
      "transaction": {
        "from": "0xdbdb7f1d84bbecaccda2ab7f9e6ca181f685022d",
        "to": "0x24f48fb3c1ee0f25b4b716c15bf4f76675252834",
        "gas": "0x13a09",
        "value": "0x0",
        "input": "0x665e0eed0000000000000000000000003c499c542cef5e3811e1192ce70d8cc03d5c3359000000000000000000000000000000000000000000000000000000000000a86a0000000000000000000000007a4ce45341a5f391538bddcb361f555beac39d03",
        "nonce": "0x35",
        "chainId": "0x89"
      },
      "additionalContracts": [],
      "isFixedGasLimit": false
    },
    {
      "hash": "0x12b65b121814687e92ac20a47aab0ebff265cbcad6c2454e783aa73052aefb61",
      "transactionType": "CALL",
      "contractName": null,
      "contractAddress": "0x24f48fb3c1ee0f25b4b716c15bf4f76675252834",
      "function": "setBridger(address,uint256,address)",
      "arguments": [
        "0x3c499c542cEF5E3811e1192ce70d8cC03d5c3359",
        "10",
        "0x7A4ce45341a5F391538BddCB361F555BEAc39D03"
      ],
      "transaction": {
        "from": "0xdbdb7f1d84bbecaccda2ab7f9e6ca181f685022d",
        "to": "0x24f48fb3c1ee0f25b4b716c15bf4f76675252834",
        "gas": "0x12885",
        "value": "0x0",
        "input": "0x665e0eed0000000000000000000000003c499c542cef5e3811e1192ce70d8cc03d5c3359000000000000000000000000000000000000000000000000000000000000000a0000000000000000000000007a4ce45341a5f391538bddcb361f555beac39d03",
        "nonce": "0x36",
        "chainId": "0x89"
      },
      "additionalContracts": [],
      "isFixedGasLimit": false
    },
    {
      "hash": "0x41b31e5cd803fc4f5f418f24ca84675f557d8b6975a199b9d015966dd2b52bab",
      "transactionType": "CALL",
      "contractName": null,
      "contractAddress": "0x24f48fb3c1ee0f25b4b716c15bf4f76675252834",
      "function": "setBridger(address,uint256,address)",
      "arguments": [
        "0x3c499c542cEF5E3811e1192ce70d8cC03d5c3359",
        "42161",
        "0x7A4ce45341a5F391538BddCB361F555BEAc39D03"
      ],
      "transaction": {
        "from": "0xdbdb7f1d84bbecaccda2ab7f9e6ca181f685022d",
        "to": "0x24f48fb3c1ee0f25b4b716c15bf4f76675252834",
        "gas": "0x13a09",
        "value": "0x0",
        "input": "0x665e0eed0000000000000000000000003c499c542cef5e3811e1192ce70d8cc03d5c3359000000000000000000000000000000000000000000000000000000000000a4b10000000000000000000000007a4ce45341a5f391538bddcb361f555beac39d03",
        "nonce": "0x37",
        "chainId": "0x89"
      },
      "additionalContracts": [],
      "isFixedGasLimit": false
    },
    {
      "hash": "0xc14ee92ee44d4b7467c315ebce45b83e9bf26cf5c018c43a9506ca7e7098d8c0",
      "transactionType": "CALL",
      "contractName": null,
      "contractAddress": "0x24f48fb3c1ee0f25b4b716c15bf4f76675252834",
      "function": "setBridger(address,uint256,address)",
      "arguments": [
        "0x3c499c542cEF5E3811e1192ce70d8cC03d5c3359",
        "8453",
        "0x7A4ce45341a5F391538BddCB361F555BEAc39D03"
      ],
      "transaction": {
        "from": "0xdbdb7f1d84bbecaccda2ab7f9e6ca181f685022d",
        "to": "0x24f48fb3c1ee0f25b4b716c15bf4f76675252834",
        "gas": "0x13a09",
        "value": "0x0",
        "input": "0x665e0eed0000000000000000000000003c499c542cef5e3811e1192ce70d8cc03d5c335900000000000000000000000000000000000000000000000000000000000021050000000000000000000000007a4ce45341a5f391538bddcb361f555beac39d03",
        "nonce": "0x38",
        "chainId": "0x89"
      },
      "additionalContracts": [],
      "isFixedGasLimit": false
    },
    {
      "hash": "0x610d6618eda57faaed7df4d9754dc31612d4cb07de133f31857d2e11cbcc71f3",
      "transactionType": "CALL",
      "contractName": null,
      "contractAddress": "0x24f48fb3c1ee0f25b4b716c15bf4f76675252834",
      "function": "setBridger(address,uint256,address)",
      "arguments": [
        "0x3c499c542cEF5E3811e1192ce70d8cC03d5c3359",
        "137",
        "0x7A4ce45341a5F391538BddCB361F555BEAc39D03"
      ],
      "transaction": {
        "from": "0xdbdb7f1d84bbecaccda2ab7f9e6ca181f685022d",
        "to": "0x24f48fb3c1ee0f25b4b716c15bf4f76675252834",
        "gas": "0x12885",
        "value": "0x0",
        "input": "0x665e0eed0000000000000000000000003c499c542cef5e3811e1192ce70d8cc03d5c335900000000000000000000000000000000000000000000000000000000000000890000000000000000000000007a4ce45341a5f391538bddcb361f555beac39d03",
        "nonce": "0x39",
        "chainId": "0x89"
      },
      "additionalContracts": [],
      "isFixedGasLimit": false
    },
    {
      "hash": "0x000df0a49e55fc6353a305734055244a5670ca30091b1a90fee2759cf6abeb36",
      "transactionType": "CALL",
      "contractName": null,
      "contractAddress": "0x24f48fb3c1ee0f25b4b716c15bf4f76675252834",
      "function": "setBridger(address,uint256,address)",
      "arguments": [
        "0x3c499c542cEF5E3811e1192ce70d8cC03d5c3359",
        "130",
        "0x7A4ce45341a5F391538BddCB361F555BEAc39D03"
      ],
      "transaction": {
        "from": "0xdbdb7f1d84bbecaccda2ab7f9e6ca181f685022d",
        "to": "0x24f48fb3c1ee0f25b4b716c15bf4f76675252834",
        "gas": "0x12885",
        "value": "0x0",
        "input": "0x665e0eed0000000000000000000000003c499c542cef5e3811e1192ce70d8cc03d5c335900000000000000000000000000000000000000000000000000000000000000820000000000000000000000007a4ce45341a5f391538bddcb361f555beac39d03",
        "nonce": "0x3a",
        "chainId": "0x89"
      },
      "additionalContracts": [],
      "isFixedGasLimit": false
    },
    {
      "hash": "0xebc158d46d75f432ccf0a06cc258020693abe6045c6952b5fde20cf76862847a",
      "transactionType": "CALL",
      "contractName": null,
      "contractAddress": "0x24f48fb3c1ee0f25b4b716c15bf4f76675252834",
      "function": "setBridger(address,uint256,address)",
      "arguments": [
        "0x3c499c542cEF5E3811e1192ce70d8cC03d5c3359",
        "59144",
        "0x7A4ce45341a5F391538BddCB361F555BEAc39D03"
      ],
      "transaction": {
        "from": "0xdbdb7f1d84bbecaccda2ab7f9e6ca181f685022d",
        "to": "0x24f48fb3c1ee0f25b4b716c15bf4f76675252834",
        "gas": "0x13a09",
        "value": "0x0",
        "input": "0x665e0eed0000000000000000000000003c499c542cef5e3811e1192ce70d8cc03d5c3359000000000000000000000000000000000000000000000000000000000000e7080000000000000000000000007a4ce45341a5f391538bddcb361f555beac39d03",
        "nonce": "0x3b",
        "chainId": "0x89"
      },
      "additionalContracts": [],
      "isFixedGasLimit": false
    },
    {
      "hash": "0x731cbaef7c12dfd45c385131a106f7c36387802818f027af349f1c94da5448c0",
      "transactionType": "CALL",
      "contractName": null,
      "contractAddress": "0x24f48fb3c1ee0f25b4b716c15bf4f76675252834",
      "function": "setBridger(address,uint256,address)",
      "arguments": [
        "0x3c499c542cEF5E3811e1192ce70d8cC03d5c3359",
        "146",
        "0x7A4ce45341a5F391538BddCB361F555BEAc39D03"
      ],
      "transaction": {
        "from": "0xdbdb7f1d84bbecaccda2ab7f9e6ca181f685022d",
        "to": "0x24f48fb3c1ee0f25b4b716c15bf4f76675252834",
        "gas": "0x12885",
        "value": "0x0",
        "input": "0x665e0eed0000000000000000000000003c499c542cef5e3811e1192ce70d8cc03d5c335900000000000000000000000000000000000000000000000000000000000000920000000000000000000000007a4ce45341a5f391538bddcb361f555beac39d03",
        "nonce": "0x3c",
        "chainId": "0x89"
      },
      "additionalContracts": [],
      "isFixedGasLimit": false
    },
    {
      "hash": "0x072de51bfccf341d694d2ddafb4064136410dab3ad2d9a2dfbe352ef86b2a8c7",
      "transactionType": "CALL",
      "contractName": null,
      "contractAddress": "0x24f48fb3c1ee0f25b4b716c15bf4f76675252834",
      "function": "setBridger(address,uint256,address)",
      "arguments": [
        "0x3c499c542cEF5E3811e1192ce70d8cC03d5c3359",
        "480",
        "0x7A4ce45341a5F391538BddCB361F555BEAc39D03"
      ],
      "transaction": {
        "from": "0xdbdb7f1d84bbecaccda2ab7f9e6ca181f685022d",
        "to": "0x24f48fb3c1ee0f25b4b716c15bf4f76675252834",
        "gas": "0x13a09",
        "value": "0x0",
        "input": "0x665e0eed0000000000000000000000003c499c542cef5e3811e1192ce70d8cc03d5c335900000000000000000000000000000000000000000000000000000000000001e00000000000000000000000007a4ce45341a5f391538bddcb361f555beac39d03",
        "nonce": "0x3d",
        "chainId": "0x89"
      },
      "additionalContracts": [],
      "isFixedGasLimit": false
    },
    {
      "hash": "0x56e3a04b2919c85fab20df9885fe8ef931e404932fa338749fb44ea586e340b2",
      "transactionType": "CALL",
      "contractName": null,
      "contractAddress": "0x24f48fb3c1ee0f25b4b716c15bf4f76675252834",
      "function": "setBridger(address,uint256,address)",
      "arguments": [
        "0x3c499c542cEF5E3811e1192ce70d8cC03d5c3359",
        "999",
        "0x7A4ce45341a5F391538BddCB361F555BEAc39D03"
      ],
      "transaction": {
        "from": "0xdbdb7f1d84bbecaccda2ab7f9e6ca181f685022d",
        "to": "0x24f48fb3c1ee0f25b4b716c15bf4f76675252834",
        "gas": "0x13a09",
        "value": "0x0",
        "input": "0x665e0eed0000000000000000000000003c499c542cef5e3811e1192ce70d8cc03d5c335900000000000000000000000000000000000000000000000000000000000003e70000000000000000000000007a4ce45341a5f391538bddcb361f555beac39d03",
        "nonce": "0x3e",
        "chainId": "0x89"
      },
      "additionalContracts": [],
      "isFixedGasLimit": false
    },
    {
      "hash": "0xf3bca50934c3571c55727995dd0ec875d882606aaede32c247d098d621fa88e9",
      "transactionType": "CALL",
      "contractName": null,
      "contractAddress": "0x24f48fb3c1ee0f25b4b716c15bf4f76675252834",
      "function": "setBridger(address,uint256,address)",
      "arguments": [
        "0x3c499c542cEF5E3811e1192ce70d8cC03d5c3359",
        "57073",
        "0x7A4ce45341a5F391538BddCB361F555BEAc39D03"
      ],
      "transaction": {
        "from": "0xdbdb7f1d84bbecaccda2ab7f9e6ca181f685022d",
        "to": "0x24f48fb3c1ee0f25b4b716c15bf4f76675252834",
        "gas": "0x13a09",
        "value": "0x0",
        "input": "0x665e0eed0000000000000000000000003c499c542cef5e3811e1192ce70d8cc03d5c3359000000000000000000000000000000000000000000000000000000000000def10000000000000000000000007a4ce45341a5f391538bddcb361f555beac39d03",
        "nonce": "0x3f",
        "chainId": "0x89"
      },
      "additionalContracts": [],
      "isFixedGasLimit": false
    },
    {
      "hash": "0x64a49e52638db13f30e1c7a5608377b5110a94dedf4be0ade8be6a66e5fc8499",
      "transactionType": "CALL",
      "contractName": null,
      "contractAddress": "0x24f48fb3c1ee0f25b4b716c15bf4f76675252834",
      "function": "setBridger(address,uint256,address)",
      "arguments": [
        "0xc2132D05D31c914a87C6611C10748AEb04B58e8F",
        "1",
        "0x614610F2F3Cb6FB8A9d6EBAaC7Cab2Cf960e01eA"
      ],
      "transaction": {
        "from": "0xdbdb7f1d84bbecaccda2ab7f9e6ca181f685022d",
        "to": "0x24f48fb3c1ee0f25b4b716c15bf4f76675252834",
        "gas": "0x12885",
        "value": "0x0",
        "input": "0x665e0eed000000000000000000000000c2132d05d31c914a87c6611c10748aeb04b58e8f0000000000000000000000000000000000000000000000000000000000000001000000000000000000000000614610f2f3cb6fb8a9d6ebaac7cab2cf960e01ea",
        "nonce": "0x40",
        "chainId": "0x89"
      },
      "additionalContracts": [],
      "isFixedGasLimit": false
    },
    {
      "hash": "0xa6b748e3632d5a41135aa011e16dc40b8139e32e012cd56f63a7fb743c0ece55",
      "transactionType": "CALL",
      "contractName": null,
      "contractAddress": "0x24f48fb3c1ee0f25b4b716c15bf4f76675252834",
      "function": "setBridger(address,uint256,address)",
      "arguments": [
        "0xc2132D05D31c914a87C6611C10748AEb04B58e8F",
        "42161",
        "0x614610F2F3Cb6FB8A9d6EBAaC7Cab2Cf960e01eA"
      ],
      "transaction": {
        "from": "0xdbdb7f1d84bbecaccda2ab7f9e6ca181f685022d",
        "to": "0x24f48fb3c1ee0f25b4b716c15bf4f76675252834",
        "gas": "0x13a09",
        "value": "0x0",
        "input": "0x665e0eed000000000000000000000000c2132d05d31c914a87c6611c10748aeb04b58e8f000000000000000000000000000000000000000000000000000000000000a4b1000000000000000000000000614610f2f3cb6fb8a9d6ebaac7cab2cf960e01ea",
        "nonce": "0x41",
        "chainId": "0x89"
      },
      "additionalContracts": [],
      "isFixedGasLimit": false
    },
    {
      "hash": "0x27f699ddf6a1ff91b42adb8a8518b339978deb2ea65ae1c6d1fde068fc518729",
      "transactionType": "CALL",
      "contractName": null,
      "contractAddress": "0x24f48fb3c1ee0f25b4b716c15bf4f76675252834",
      "function": "setBridger(address,uint256,address)",
      "arguments": [
        "0xc2132D05D31c914a87C6611C10748AEb04B58e8F",
        "137",
        "0x614610F2F3Cb6FB8A9d6EBAaC7Cab2Cf960e01eA"
      ],
      "transaction": {
        "from": "0xdbdb7f1d84bbecaccda2ab7f9e6ca181f685022d",
        "to": "0x24f48fb3c1ee0f25b4b716c15bf4f76675252834",
        "gas": "0x12885",
        "value": "0x0",
        "input": "0x665e0eed000000000000000000000000c2132d05d31c914a87c6611c10748aeb04b58e8f0000000000000000000000000000000000000000000000000000000000000089000000000000000000000000614610f2f3cb6fb8a9d6ebaac7cab2cf960e01ea",
        "nonce": "0x42",
        "chainId": "0x89"
      },
      "additionalContracts": [],
      "isFixedGasLimit": false
    },
    {
      "hash": "0x327675b2ecb1c7f7cd702f37c9622e225f80fcb4c4bff26444e7b1fcb3877b02",
      "transactionType": "CALL",
      "contractName": null,
      "contractAddress": "0x24f48fb3c1ee0f25b4b716c15bf4f76675252834",
      "function": "setBridger(address,uint256,address)",
      "arguments": [
        "0xc2132D05D31c914a87C6611C10748AEb04B58e8F",
        "10",
        "0x614610F2F3Cb6FB8A9d6EBAaC7Cab2Cf960e01eA"
      ],
      "transaction": {
        "from": "0xdbdb7f1d84bbecaccda2ab7f9e6ca181f685022d",
        "to": "0x24f48fb3c1ee0f25b4b716c15bf4f76675252834",
        "gas": "0x12885",
        "value": "0x0",
        "input": "0x665e0eed000000000000000000000000c2132d05d31c914a87c6611c10748aeb04b58e8f000000000000000000000000000000000000000000000000000000000000000a000000000000000000000000614610f2f3cb6fb8a9d6ebaac7cab2cf960e01ea",
        "nonce": "0x43",
        "chainId": "0x89"
      },
      "additionalContracts": [],
      "isFixedGasLimit": false
    },
    {
      "hash": "0x52af1afce48269ede2befc5c5b3653203f93157fffc16b380e1ec302602f5af9",
      "transactionType": "CALL",
      "contractName": null,
      "contractAddress": "0x24f48fb3c1ee0f25b4b716c15bf4f76675252834",
      "function": "setBridger(address,uint256,address)",
      "arguments": [
        "0xc2132D05D31c914a87C6611C10748AEb04B58e8F",
        "80094",
        "0x614610F2F3Cb6FB8A9d6EBAaC7Cab2Cf960e01eA"
      ],
      "transaction": {
        "from": "0xdbdb7f1d84bbecaccda2ab7f9e6ca181f685022d",
        "to": "0x24f48fb3c1ee0f25b4b716c15bf4f76675252834",
        "gas": "0x128a7",
        "value": "0x0",
        "input": "0x665e0eed000000000000000000000000c2132d05d31c914a87c6611c10748aeb04b58e8f00000000000000000000000000000000000000000000000000000000000138de000000000000000000000000614610f2f3cb6fb8a9d6ebaac7cab2cf960e01ea",
        "nonce": "0x44",
        "chainId": "0x89"
      },
      "additionalContracts": [],
      "isFixedGasLimit": false
    },
    {
      "hash": "0xfe052772b14835b98cf099ba85788375faf9a4f54fb2906189130dadf749baa8",
      "transactionType": "CALL",
      "contractName": null,
      "contractAddress": "0x24f48fb3c1ee0f25b4b716c15bf4f76675252834",
      "function": "setBridger(address,uint256,address)",
      "arguments": [
        "0xc2132D05D31c914a87C6611C10748AEb04B58e8F",
        "57073",
        "0x614610F2F3Cb6FB8A9d6EBAaC7Cab2Cf960e01eA"
      ],
      "transaction": {
        "from": "0xdbdb7f1d84bbecaccda2ab7f9e6ca181f685022d",
        "to": "0x24f48fb3c1ee0f25b4b716c15bf4f76675252834",
        "gas": "0x13a09",
        "value": "0x0",
        "input": "0x665e0eed000000000000000000000000c2132d05d31c914a87c6611c10748aeb04b58e8f000000000000000000000000000000000000000000000000000000000000def1000000000000000000000000614610f2f3cb6fb8a9d6ebaac7cab2cf960e01ea",
        "nonce": "0x45",
        "chainId": "0x89"
      },
      "additionalContracts": [],
      "isFixedGasLimit": false
    },
    {
      "hash": "0x9c3bd129cd5751f5658a0bf29edc7e471f40d5e519e4020395e47e6e2a401fef",
      "transactionType": "CALL",
      "contractName": null,
      "contractAddress": "0x24f48fb3c1ee0f25b4b716c15bf4f76675252834",
      "function": "setBridger(address,uint256,address)",
      "arguments": [
        "0xc2132D05D31c914a87C6611C10748AEb04B58e8F",
        "130",
        "0x614610F2F3Cb6FB8A9d6EBAaC7Cab2Cf960e01eA"
      ],
      "transaction": {
        "from": "0xdbdb7f1d84bbecaccda2ab7f9e6ca181f685022d",
        "to": "0x24f48fb3c1ee0f25b4b716c15bf4f76675252834",
        "gas": "0x12885",
        "value": "0x0",
        "input": "0x665e0eed000000000000000000000000c2132d05d31c914a87c6611c10748aeb04b58e8f0000000000000000000000000000000000000000000000000000000000000082000000000000000000000000614610f2f3cb6fb8a9d6ebaac7cab2cf960e01ea",
        "nonce": "0x46",
        "chainId": "0x89"
      },
      "additionalContracts": [],
      "isFixedGasLimit": false
    },
    {
      "hash": "0xe5b5275c05f49957bd9d8a670791bf76da8d3d8338300f5f8ce7b00a7e1e0c20",
      "transactionType": "CALL",
      "contractName": null,
      "contractAddress": "0x24f48fb3c1ee0f25b4b716c15bf4f76675252834",
      "function": "setBridger(address,uint256,address)",
      "arguments": [
        "0xc2132D05D31c914a87C6611C10748AEb04B58e8F",
        "21000000",
        "0x614610F2F3Cb6FB8A9d6EBAaC7Cab2Cf960e01eA"
      ],
      "transaction": {
        "from": "0xdbdb7f1d84bbecaccda2ab7f9e6ca181f685022d",
        "to": "0x24f48fb3c1ee0f25b4b716c15bf4f76675252834",
        "gas": "0x13a2c",
        "value": "0x0",
        "input": "0x665e0eed000000000000000000000000c2132d05d31c914a87c6611c10748aeb04b58e8f0000000000000000000000000000000000000000000000000000000001406f40000000000000000000000000614610f2f3cb6fb8a9d6ebaac7cab2cf960e01ea",
        "nonce": "0x47",
        "chainId": "0x89"
      },
      "additionalContracts": [],
      "isFixedGasLimit": false
    },
    {
      "hash": "0x80158aba6fa259e127717d31bf63b9b2c440ad5694add5dd175282d4c0b1b4f0",
      "transactionType": "CALL",
      "contractName": null,
      "contractAddress": "0x24f48fb3c1ee0f25b4b716c15bf4f76675252834",
      "function": "setBridger(address,uint256,address)",
      "arguments": [
        "0xc2132D05D31c914a87C6611C10748AEb04B58e8F",
        "1329",
        "0x614610F2F3Cb6FB8A9d6EBAaC7Cab2Cf960e01eA"
      ],
      "transaction": {
        "from": "0xdbdb7f1d84bbecaccda2ab7f9e6ca181f685022d",
        "to": "0x24f48fb3c1ee0f25b4b716c15bf4f76675252834",
        "gas": "0x13a09",
        "value": "0x0",
        "input": "0x665e0eed000000000000000000000000c2132d05d31c914a87c6611c10748aeb04b58e8f0000000000000000000000000000000000000000000000000000000000000531000000000000000000000000614610f2f3cb6fb8a9d6ebaac7cab2cf960e01ea",
        "nonce": "0x48",
        "chainId": "0x89"
      },
      "additionalContracts": [],
      "isFixedGasLimit": false
    },
    {
      "hash": "0xf1101de798fdbe6d02acbffb8cdd628962a4452d5139b77b6795ccf74943e8f9",
      "transactionType": "CALL",
      "contractName": null,
      "contractAddress": "0x24f48fb3c1ee0f25b4b716c15bf4f76675252834",
      "function": "setBridger(address,uint256,address)",
      "arguments": [
        "0xc2132D05D31c914a87C6611C10748AEb04B58e8F",
        "14",
        "0x614610F2F3Cb6FB8A9d6EBAaC7Cab2Cf960e01eA"
      ],
      "transaction": {
        "from": "0xdbdb7f1d84bbecaccda2ab7f9e6ca181f685022d",
        "to": "0x24f48fb3c1ee0f25b4b716c15bf4f76675252834",
        "gas": "0x12885",
        "value": "0x0",
        "input": "0x665e0eed000000000000000000000000c2132d05d31c914a87c6611c10748aeb04b58e8f000000000000000000000000000000000000000000000000000000000000000e000000000000000000000000614610f2f3cb6fb8a9d6ebaac7cab2cf960e01ea",
        "nonce": "0x49",
        "chainId": "0x89"
      },
      "additionalContracts": [],
      "isFixedGasLimit": false
    },
    {
      "hash": "0x1937c0eb42dece1b558249b207806b7bf5cb9f41c11bb156619cec3d6ab5ff55",
      "transactionType": "CALL",
      "contractName": null,
      "contractAddress": "0x24f48fb3c1ee0f25b4b716c15bf4f76675252834",
      "function": "setBridger(address,uint256,address)",
      "arguments": [
        "0xc2132D05D31c914a87C6611C10748AEb04B58e8F",
        "999",
        "0x614610F2F3Cb6FB8A9d6EBAaC7Cab2Cf960e01eA"
      ],
      "transaction": {
        "from": "0xdbdb7f1d84bbecaccda2ab7f9e6ca181f685022d",
        "to": "0x24f48fb3c1ee0f25b4b716c15bf4f76675252834",
        "gas": "0x13a09",
        "value": "0x0",
        "input": "0x665e0eed000000000000000000000000c2132d05d31c914a87c6611c10748aeb04b58e8f00000000000000000000000000000000000000000000000000000000000003e7000000000000000000000000614610f2f3cb6fb8a9d6ebaac7cab2cf960e01ea",
        "nonce": "0x4a",
        "chainId": "0x89"
      },
      "additionalContracts": [],
      "isFixedGasLimit": false
    },
    {
      "hash": "0x5f83c72e4b44e5b5320dcea26c8a8566f637250dced964ad4196f29027b265ba",
      "transactionType": "CALL",
      "contractName": null,
      "contractAddress": "0x24f48fb3c1ee0f25b4b716c15bf4f76675252834",
      "function": "setBridger(address,uint256,address)",
      "arguments": [
        "0xc2132D05D31c914a87C6611C10748AEb04B58e8F",
        "30",
        "0x614610F2F3Cb6FB8A9d6EBAaC7Cab2Cf960e01eA"
      ],
      "transaction": {
        "from": "0xdbdb7f1d84bbecaccda2ab7f9e6ca181f685022d",
        "to": "0x24f48fb3c1ee0f25b4b716c15bf4f76675252834",
        "gas": "0x12885",
        "value": "0x0",
        "input": "0x665e0eed000000000000000000000000c2132d05d31c914a87c6611c10748aeb04b58e8f000000000000000000000000000000000000000000000000000000000000001e000000000000000000000000614610f2f3cb6fb8a9d6ebaac7cab2cf960e01ea",
        "nonce": "0x4b",
        "chainId": "0x89"
      },
      "additionalContracts": [],
      "isFixedGasLimit": false
    },
    {
      "hash": "0x9fc597df73171024c4b7ae5b0a5e9bce150af0ca15713ca7bb08626e613c6cc2",
      "transactionType": "CALL",
      "contractName": null,
      "contractAddress": "0x24f48fb3c1ee0f25b4b716c15bf4f76675252834",
      "function": "setBridger(address,uint256,address)",
      "arguments": [
        "0xc2132D05D31c914a87C6611C10748AEb04B58e8F",
        "196",
        "0x614610F2F3Cb6FB8A9d6EBAaC7Cab2Cf960e01eA"
      ],
      "transaction": {
        "from": "0xdbdb7f1d84bbecaccda2ab7f9e6ca181f685022d",
        "to": "0x24f48fb3c1ee0f25b4b716c15bf4f76675252834",
        "gas": "0x12885",
        "value": "0x0",
        "input": "0x665e0eed000000000000000000000000c2132d05d31c914a87c6611c10748aeb04b58e8f00000000000000000000000000000000000000000000000000000000000000c4000000000000000000000000614610f2f3cb6fb8a9d6ebaac7cab2cf960e01ea",
        "nonce": "0x4c",
        "chainId": "0x89"
      },
      "additionalContracts": [],
      "isFixedGasLimit": false
    },
    {
      "hash": "0x139ca69216ca6e10df0f6e0989b61c1e252b17586158b92c2b9ecd0bb40acac0",
      "transactionType": "CALL",
      "contractName": null,
      "contractAddress": "0x24f48fb3c1ee0f25b4b716c15bf4f76675252834",
      "function": "setBridger(address,uint256,address)",
      "arguments": [
        "0xc2132D05D31c914a87C6611C10748AEb04B58e8F",
        "9745",
        "0x614610F2F3Cb6FB8A9d6EBAaC7Cab2Cf960e01eA"
      ],
      "transaction": {
        "from": "0xdbdb7f1d84bbecaccda2ab7f9e6ca181f685022d",
        "to": "0x24f48fb3c1ee0f25b4b716c15bf4f76675252834",
        "gas": "0x13a09",
        "value": "0x0",
        "input": "0x665e0eed000000000000000000000000c2132d05d31c914a87c6611c10748aeb04b58e8f0000000000000000000000000000000000000000000000000000000000002611000000000000000000000000614610f2f3cb6fb8a9d6ebaac7cab2cf960e01ea",
        "nonce": "0x4d",
        "chainId": "0x89"
      },
      "additionalContracts": [],
      "isFixedGasLimit": false
    },
    {
      "hash": "0x726fa33156e6f014e5224258615ce92f019bd7b557c52996c3b945807786a2c5",
      "transactionType": "CALL",
      "contractName": null,
      "contractAddress": "0x24f48fb3c1ee0f25b4b716c15bf4f76675252834",
      "function": "setBridger(address,uint256,address)",
      "arguments": [
        "0xc2132D05D31c914a87C6611C10748AEb04B58e8F",
        "1030",
        "0x614610F2F3Cb6FB8A9d6EBAaC7Cab2Cf960e01eA"
      ],
      "transaction": {
        "from": "0xdbdb7f1d84bbecaccda2ab7f9e6ca181f685022d",
        "to": "0x24f48fb3c1ee0f25b4b716c15bf4f76675252834",
        "gas": "0x13a09",
        "value": "0x0",
        "input": "0x665e0eed000000000000000000000000c2132d05d31c914a87c6611c10748aeb04b58e8f0000000000000000000000000000000000000000000000000000000000000406000000000000000000000000614610f2f3cb6fb8a9d6ebaac7cab2cf960e01ea",
        "nonce": "0x4e",
        "chainId": "0x89"
      },
      "additionalContracts": [],
      "isFixedGasLimit": false
    },
    {
      "hash": "0x726af94447ca5566442f03882c575e45ef0847d8a71046ee31f2ffb60d82a89f",
      "transactionType": "CALL",
      "contractName": null,
      "contractAddress": "0x24f48fb3c1ee0f25b4b716c15bf4f76675252834",
      "function": "setBridger(address,uint256,address)",
      "arguments": [
        "0xc2132D05D31c914a87C6611C10748AEb04B58e8F",
        "5000",
        "0x614610F2F3Cb6FB8A9d6EBAaC7Cab2Cf960e01eA"
      ],
      "transaction": {
        "from": "0xdbdb7f1d84bbecaccda2ab7f9e6ca181f685022d",
        "to": "0x24f48fb3c1ee0f25b4b716c15bf4f76675252834",
        "gas": "0x13a09",
        "value": "0x0",
        "input": "0x665e0eed000000000000000000000000c2132d05d31c914a87c6611c10748aeb04b58e8f0000000000000000000000000000000000000000000000000000000000001388000000000000000000000000614610f2f3cb6fb8a9d6ebaac7cab2cf960e01ea",
        "nonce": "0x4f",
        "chainId": "0x89"
      },
      "additionalContracts": [],
      "isFixedGasLimit": false
    },
    {
      "hash": "0xaf28959a071aa9b6404428f9c9b71c952f2fac1d833484de6a6dd894c745f2b0",
      "transactionType": "CALL",
      "contractName": null,
      "contractAddress": "0x24f48fb3c1ee0f25b4b716c15bf4f76675252834",
      "function": "setBridger(address,uint256,address)",
      "arguments": [
        "0xc2132D05D31c914a87C6611C10748AEb04B58e8F",
        "143",
        "0x614610F2F3Cb6FB8A9d6EBAaC7Cab2Cf960e01eA"
      ],
      "transaction": {
        "from": "0xdbdb7f1d84bbecaccda2ab7f9e6ca181f685022d",
        "to": "0x24f48fb3c1ee0f25b4b716c15bf4f76675252834",
        "gas": "0x12885",
        "value": "0x0",
        "input": "0x665e0eed000000000000000000000000c2132d05d31c914a87c6611c10748aeb04b58e8f000000000000000000000000000000000000000000000000000000000000008f000000000000000000000000614610f2f3cb6fb8a9d6ebaac7cab2cf960e01ea",
        "nonce": "0x50",
        "chainId": "0x89"
      },
      "additionalContracts": [],
      "isFixedGasLimit": false
    },
    {
      "hash": "0xa8d438411451935060bd0113db6137db597683270d335762e1324e6bb1ca34a1",
      "transactionType": "CALL",
      "contractName": null,
      "contractAddress": "0x24f48fb3c1ee0f25b4b716c15bf4f76675252834",
      "function": "setBridger(address,uint256,address)",
      "arguments": [
        "0xc2132D05D31c914a87C6611C10748AEb04B58e8F",
        "988",
        "0x614610F2F3Cb6FB8A9d6EBAaC7Cab2Cf960e01eA"
      ],
      "transaction": {
        "from": "0xdbdb7f1d84bbecaccda2ab7f9e6ca181f685022d",
        "to": "0x24f48fb3c1ee0f25b4b716c15bf4f76675252834",
        "gas": "0x13a09",
        "value": "0x0",
        "input": "0x665e0eed000000000000000000000000c2132d05d31c914a87c6611c10748aeb04b58e8f00000000000000000000000000000000000000000000000000000000000003dc000000000000000000000000614610f2f3cb6fb8a9d6ebaac7cab2cf960e01ea",
        "nonce": "0x51",
        "chainId": "0x89"
      },
      "additionalContracts": [],
      "isFixedGasLimit": false
    }
  ],
  "receipts": [
    {
      "status": "0x1",
      "cumulativeGasUsed": "0x1b47fd8",
      "logs": [
        {
          "address": "0x24f48fb3c1ee0f25b4b716c15bf4f76675252834",
          "topics": [
            "0x427db48f8cd0cf7fdabcdbc1327c7db26ce3a544292ba380ef07d5175af729cd",
            "0x0000000000000000000000003c499c542cef5e3811e1192ce70d8cc03d5c3359",
            "0x0000000000000000000000000000000000000000000000000000000000000001"
          ],
          "data": "0x0000000000000000000000007a4ce45341a5f391538bddcb361f555beac39d03",
          "blockHash": "0x88a75e6229f34f2f3c70c68ee750dad40824ccf895634e323f5b9794908ea5b8",
          "blockNumber": "0x4d2933e",
          "blockTimestamp": "0x69515387",
          "transactionHash": "0x7824ac78ff920f71063ac89452cd0716709ee0037bc6a5530ea934ac610f49b5",
          "transactionIndex": "0x5a",
          "logIndex": "0x48c",
          "removed": false
        },
        {
          "address": "0x0000000000000000000000000000000000001010",
          "topics": [
            "0x4dfe1bbbcf077ddc3e01291eea2d5c70c2b422b415d95645b9adcfd678cb1d63",
            "0x0000000000000000000000000000000000000000000000000000000000001010",
            "0x000000000000000000000000dbdb7f1d84bbecaccda2ab7f9e6ca181f685022d",
            "0x0000000000000000000000007ee41d8a25641000661b1ef5e6ae8a00400466b0"
          ],
          "data": "0x000000000000000000000000000000000000000000000000000752667e88a20000000000000000000000000000000000000000000000000c6af99c65b7937617000000000000000000000000000000000000000000038ef8004ca70c675359fe00000000000000000000000000000000000000000000000c6af249ff390ad417000000000000000000000000000000000000000000038ef80053f972e5dbfbfe",
          "blockHash": "0x88a75e6229f34f2f3c70c68ee750dad40824ccf895634e323f5b9794908ea5b8",
          "blockNumber": "0x4d2933e",
          "blockTimestamp": "0x69515387",
          "transactionHash": "0x7824ac78ff920f71063ac89452cd0716709ee0037bc6a5530ea934ac610f49b5",
          "transactionIndex": "0x5a",
          "logIndex": "0x48d",
          "removed": false
        }
      ],
      "logsBloom": "0x00000000000000000000000000000000000008000000000000000000000000000000000000000000000000000000000000008000000000000200000000040000000000000040000000000000000000800004000000040000000100000000000000000000000000000000000000000000000000000000000080000000000000000000802000000000020000800400000000000000000000000000000000000000200000000000000000000000000000000000000000000000000000008000004000000000000200800001000000000000000000400000004000100000000040000000000000000000000000000000000000000000000000000000000000100000",
      "type": "0x2",
      "transactionHash": "0x7824ac78ff920f71063ac89452cd0716709ee0037bc6a5530ea934ac610f49b5",
      "transactionIndex": "0x5a",
      "blockHash": "0x88a75e6229f34f2f3c70c68ee750dad40824ccf895634e323f5b9794908ea5b8",
      "blockNumber": "0x4d2933e",
      "gasUsed": "0xd6ae",
      "effectiveGasPrice": "0x186513ab51",
      "from": "0xdbdb7f1d84bbecaccda2ab7f9e6ca181f685022d",
      "to": "0x24f48fb3c1ee0f25b4b716c15bf4f76675252834",
      "contractAddress": null
    },
    {
      "status": "0x1",
      "cumulativeGasUsed": "0x1b55692",
      "logs": [
        {
          "address": "0x24f48fb3c1ee0f25b4b716c15bf4f76675252834",
          "topics": [
            "0x427db48f8cd0cf7fdabcdbc1327c7db26ce3a544292ba380ef07d5175af729cd",
            "0x0000000000000000000000003c499c542cef5e3811e1192ce70d8cc03d5c3359",
            "0x000000000000000000000000000000000000000000000000000000000000a86a"
          ],
          "data": "0x0000000000000000000000007a4ce45341a5f391538bddcb361f555beac39d03",
          "blockHash": "0x88a75e6229f34f2f3c70c68ee750dad40824ccf895634e323f5b9794908ea5b8",
          "blockNumber": "0x4d2933e",
          "blockTimestamp": "0x69515387",
          "transactionHash": "0x18e82bc1ec934cac4cdb868e73895c60cb29d494dfcbb522cb2313153994d1dd",
          "transactionIndex": "0x5b",
          "logIndex": "0x48e",
          "removed": false
        },
        {
          "address": "0x0000000000000000000000000000000000001010",
          "topics": [
            "0x4dfe1bbbcf077ddc3e01291eea2d5c70c2b422b415d95645b9adcfd678cb1d63",
            "0x0000000000000000000000000000000000000000000000000000000000001010",
            "0x000000000000000000000000dbdb7f1d84bbecaccda2ab7f9e6ca181f685022d",
            "0x0000000000000000000000007ee41d8a25641000661b1ef5e6ae8a00400466b0"
          ],
          "data": "0x000000000000000000000000000000000000000000000000000752cf449fb60000000000000000000000000000000000000000000000000c6ae5275292ff4f09000000000000000000000000000000000000000000038ef80053f972e5dbfbfe00000000000000000000000000000000000000000000000c6addd4834e5f9909000000000000000000000000000000000000000000038ef8005b4c422a7bb1fe",
          "blockHash": "0x88a75e6229f34f2f3c70c68ee750dad40824ccf895634e323f5b9794908ea5b8",
          "blockNumber": "0x4d2933e",
          "blockTimestamp": "0x69515387",
          "transactionHash": "0x18e82bc1ec934cac4cdb868e73895c60cb29d494dfcbb522cb2313153994d1dd",
          "transactionIndex": "0x5b",
          "logIndex": "0x48f",
          "removed": false
        }
      ],
      "logsBloom": "0x00000000100000000000000000000000000008000000000000000000000000000000000000000000000000000000000000008000000000000200000000000000000000000040000000000000000000800004000000000000000100000000000000000000000000000000000000000000000000000000000080000000000000000000802000000000020000800400000000000000000000000000000000000000200000000000000000000000000000000000000000000000000000008000004000000000000200800001000000000000000000400000004000100000000000000000000000000000000000000000000000000000002000000000000000100080",
      "type": "0x2",
      "transactionHash": "0x18e82bc1ec934cac4cdb868e73895c60cb29d494dfcbb522cb2313153994d1dd",
      "transactionIndex": "0x5b",
      "blockHash": "0x88a75e6229f34f2f3c70c68ee750dad40824ccf895634e323f5b9794908ea5b8",
      "blockNumber": "0x4d2933e",
      "gasUsed": "0xd6ba",
      "effectiveGasPrice": "0x186513ab51",
      "from": "0xdbdb7f1d84bbecaccda2ab7f9e6ca181f685022d",
      "to": "0x24f48fb3c1ee0f25b4b716c15bf4f76675252834",
      "contractAddress": null
    },
    {
      "status": "0x1",
      "cumulativeGasUsed": "0x1b62d40",
      "logs": [
        {
          "address": "0x24f48fb3c1ee0f25b4b716c15bf4f76675252834",
          "topics": [
            "0x427db48f8cd0cf7fdabcdbc1327c7db26ce3a544292ba380ef07d5175af729cd",
            "0x0000000000000000000000003c499c542cef5e3811e1192ce70d8cc03d5c3359",
            "0x000000000000000000000000000000000000000000000000000000000000000a"
          ],
          "data": "0x0000000000000000000000007a4ce45341a5f391538bddcb361f555beac39d03",
          "blockHash": "0x88a75e6229f34f2f3c70c68ee750dad40824ccf895634e323f5b9794908ea5b8",
          "blockNumber": "0x4d2933e",
          "blockTimestamp": "0x69515387",
          "transactionHash": "0x12b65b121814687e92ac20a47aab0ebff265cbcad6c2454e783aa73052aefb61",
          "transactionIndex": "0x5c",
          "logIndex": "0x490",
          "removed": false
        },
        {
          "address": "0x0000000000000000000000000000000000001010",
          "topics": [
            "0x4dfe1bbbcf077ddc3e01291eea2d5c70c2b422b415d95645b9adcfd678cb1d63",
            "0x0000000000000000000000000000000000000000000000000000000000001010",
            "0x000000000000000000000000dbdb7f1d84bbecaccda2ab7f9e6ca181f685022d",
            "0x0000000000000000000000007ee41d8a25641000661b1ef5e6ae8a00400466b0"
          ],
          "data": "0x000000000000000000000000000000000000000000000000000752667e88a20000000000000000000000000000000000000000000000000c6ad0b11ab17f202f000000000000000000000000000000000000000000038ef8005b4c422a7bb1fe00000000000000000000000000000000000000000000000c6ac95eb432f67e2f000000000000000000000000000000000000000000038ef800629ea8a90453fe",
          "blockHash": "0x88a75e6229f34f2f3c70c68ee750dad40824ccf895634e323f5b9794908ea5b8",
          "blockNumber": "0x4d2933e",
          "blockTimestamp": "0x69515387",
          "transactionHash": "0x12b65b121814687e92ac20a47aab0ebff265cbcad6c2454e783aa73052aefb61",
          "transactionIndex": "0x5c",
          "logIndex": "0x491",
          "removed": false
        }
      ],
      "logsBloom": "0x00000000000000000000000000000000000008000000000000000000000000000000000000000000000000000000000000008000040000000220000000000000000000000040000000000000000000800004000000000000000100000000000000000000000000000000000000000000000000000000000080000000000000000000802000000000030000800400000000000000000000000000000000000000200000000000000000000000000000000000000000000000000000008000004000000000000200800001000000000000000000400000004000100000000000000000000000000000000000000000000000000000000000000000000000100000",
      "type": "0x2",
      "transactionHash": "0x12b65b121814687e92ac20a47aab0ebff265cbcad6c2454e783aa73052aefb61",
      "transactionIndex": "0x5c",
      "blockHash": "0x88a75e6229f34f2f3c70c68ee750dad40824ccf895634e323f5b9794908ea5b8",
      "blockNumber": "0x4d2933e",
      "gasUsed": "0xd6ae",
      "effectiveGasPrice": "0x186513ab51",
      "from": "0xdbdb7f1d84bbecaccda2ab7f9e6ca181f685022d",
      "to": "0x24f48fb3c1ee0f25b4b716c15bf4f76675252834",
      "contractAddress": null
    },
    {
      "status": "0x1",
      "cumulativeGasUsed": "0x1b703fa",
      "logs": [
        {
          "address": "0x24f48fb3c1ee0f25b4b716c15bf4f76675252834",
          "topics": [
            "0x427db48f8cd0cf7fdabcdbc1327c7db26ce3a544292ba380ef07d5175af729cd",
            "0x0000000000000000000000003c499c542cef5e3811e1192ce70d8cc03d5c3359",
            "0x000000000000000000000000000000000000000000000000000000000000a4b1"
          ],
          "data": "0x0000000000000000000000007a4ce45341a5f391538bddcb361f555beac39d03",
          "blockHash": "0x88a75e6229f34f2f3c70c68ee750dad40824ccf895634e323f5b9794908ea5b8",
          "blockNumber": "0x4d2933e",
          "blockTimestamp": "0x69515387",
          "transactionHash": "0x41b31e5cd803fc4f5f418f24ca84675f557d8b6975a199b9d015966dd2b52bab",
          "transactionIndex": "0x5d",
          "logIndex": "0x492",
          "removed": false
        },
        {
          "address": "0x0000000000000000000000000000000000001010",
          "topics": [
            "0x4dfe1bbbcf077ddc3e01291eea2d5c70c2b422b415d95645b9adcfd678cb1d63",
            "0x0000000000000000000000000000000000000000000000000000000000001010",
            "0x000000000000000000000000dbdb7f1d84bbecaccda2ab7f9e6ca181f685022d",
            "0x0000000000000000000000007ee41d8a25641000661b1ef5e6ae8a00400466b0"
          ],
          "data": "0x000000000000000000000000000000000000000000000000000752cf449fb60000000000000000000000000000000000000000000000000c6abc3c078ceaf921000000000000000000000000000000000000000000038ef800629ea8a90453fe00000000000000000000000000000000000000000000000c6ab4e938484b4321000000000000000000000000000000000000000000038ef80069f177eda409fe",
          "blockHash": "0x88a75e6229f34f2f3c70c68ee750dad40824ccf895634e323f5b9794908ea5b8",
          "blockNumber": "0x4d2933e",
          "blockTimestamp": "0x69515387",
          "transactionHash": "0x41b31e5cd803fc4f5f418f24ca84675f557d8b6975a199b9d015966dd2b52bab",
          "transactionIndex": "0x5d",
          "logIndex": "0x493",
          "removed": false
        }
      ],
      "logsBloom": "0x00000000000000000000000000000000000008000000000000000000000000000000000000000000000000000000000000008000000000000200000000000000000000000040000000000000000000800004000000000000000100000000000000000000000000000000000000000000000000000000000080000000000000000000802000000000020000800400000000000000000000000000000000000000200000000000000000000000000000000000000000000000000000008000004000000000000200810001000000000000000000400000004000100000000000000000000000000000000000000000100000000000000000000000000000100000",
      "type": "0x2",
      "transactionHash": "0x41b31e5cd803fc4f5f418f24ca84675f557d8b6975a199b9d015966dd2b52bab",
      "transactionIndex": "0x5d",
      "blockHash": "0x88a75e6229f34f2f3c70c68ee750dad40824ccf895634e323f5b9794908ea5b8",
      "blockNumber": "0x4d2933e",
      "gasUsed": "0xd6ba",
      "effectiveGasPrice": "0x186513ab51",
      "from": "0xdbdb7f1d84bbecaccda2ab7f9e6ca181f685022d",
      "to": "0x24f48fb3c1ee0f25b4b716c15bf4f76675252834",
      "contractAddress": null
    },
    {
      "status": "0x1",
      "cumulativeGasUsed": "0x1b7dab4",
      "logs": [
        {
          "address": "0x24f48fb3c1ee0f25b4b716c15bf4f76675252834",
          "topics": [
            "0x427db48f8cd0cf7fdabcdbc1327c7db26ce3a544292ba380ef07d5175af729cd",
            "0x0000000000000000000000003c499c542cef5e3811e1192ce70d8cc03d5c3359",
            "0x0000000000000000000000000000000000000000000000000000000000002105"
          ],
          "data": "0x0000000000000000000000007a4ce45341a5f391538bddcb361f555beac39d03",
          "blockHash": "0x88a75e6229f34f2f3c70c68ee750dad40824ccf895634e323f5b9794908ea5b8",
          "blockNumber": "0x4d2933e",
          "blockTimestamp": "0x69515387",
          "transactionHash": "0xc14ee92ee44d4b7467c315ebce45b83e9bf26cf5c018c43a9506ca7e7098d8c0",
          "transactionIndex": "0x5e",
          "logIndex": "0x494",
          "removed": false
        },
        {
          "address": "0x0000000000000000000000000000000000001010",
          "topics": [
            "0x4dfe1bbbcf077ddc3e01291eea2d5c70c2b422b415d95645b9adcfd678cb1d63",
            "0x0000000000000000000000000000000000000000000000000000000000001010",
            "0x000000000000000000000000dbdb7f1d84bbecaccda2ab7f9e6ca181f685022d",
            "0x0000000000000000000000007ee41d8a25641000661b1ef5e6ae8a00400466b0"
          ],
          "data": "0x000000000000000000000000000000000000000000000000000752cf449fb60000000000000000000000000000000000000000000000000c6aa7c5cfab6aca47000000000000000000000000000000000000000000038ef80069f177eda409fe00000000000000000000000000000000000000000000000c6aa0730066cb1447000000000000000000000000000000000000000000038ef8007144473243bffe",
          "blockHash": "0x88a75e6229f34f2f3c70c68ee750dad40824ccf895634e323f5b9794908ea5b8",
          "blockNumber": "0x4d2933e",
          "blockTimestamp": "0x69515387",
          "transactionHash": "0xc14ee92ee44d4b7467c315ebce45b83e9bf26cf5c018c43a9506ca7e7098d8c0",
          "transactionIndex": "0x5e",
          "logIndex": "0x495",
          "removed": false
        }
      ],
      "logsBloom": "0x00000000000000000000000000000000000008000000000000000000000000000000000000000000000000000000000000008000000000000201000000000000000000000040000000000000000000800004000000000000000100000000000000010000000000000000000000000000000000000000000080000000000000000000802000000000020000800400000000000000000000000000000020000000200000000000000000000000000000000000000000000000000000008000004000000000000200800001000000000000000000400000004000100000000000000000000000000000000000000000000000000000000000000000000000100000",
      "type": "0x2",
      "transactionHash": "0xc14ee92ee44d4b7467c315ebce45b83e9bf26cf5c018c43a9506ca7e7098d8c0",
      "transactionIndex": "0x5e",
      "blockHash": "0x88a75e6229f34f2f3c70c68ee750dad40824ccf895634e323f5b9794908ea5b8",
      "blockNumber": "0x4d2933e",
      "gasUsed": "0xd6ba",
      "effectiveGasPrice": "0x186513ab51",
      "from": "0xdbdb7f1d84bbecaccda2ab7f9e6ca181f685022d",
      "to": "0x24f48fb3c1ee0f25b4b716c15bf4f76675252834",
      "contractAddress": null
    },
    {
      "status": "0x1",
      "cumulativeGasUsed": "0x1b8b162",
      "logs": [
        {
          "address": "0x24f48fb3c1ee0f25b4b716c15bf4f76675252834",
          "topics": [
            "0x427db48f8cd0cf7fdabcdbc1327c7db26ce3a544292ba380ef07d5175af729cd",
            "0x0000000000000000000000003c499c542cef5e3811e1192ce70d8cc03d5c3359",
            "0x0000000000000000000000000000000000000000000000000000000000000089"
          ],
          "data": "0x0000000000000000000000007a4ce45341a5f391538bddcb361f555beac39d03",
          "blockHash": "0x88a75e6229f34f2f3c70c68ee750dad40824ccf895634e323f5b9794908ea5b8",
          "blockNumber": "0x4d2933e",
          "blockTimestamp": "0x69515387",
          "transactionHash": "0x610d6618eda57faaed7df4d9754dc31612d4cb07de133f31857d2e11cbcc71f3",
          "transactionIndex": "0x5f",
          "logIndex": "0x496",
          "removed": false
        },
        {
          "address": "0x0000000000000000000000000000000000001010",
          "topics": [
            "0x4dfe1bbbcf077ddc3e01291eea2d5c70c2b422b415d95645b9adcfd678cb1d63",
            "0x0000000000000000000000000000000000000000000000000000000000001010",
            "0x000000000000000000000000dbdb7f1d84bbecaccda2ab7f9e6ca181f685022d",
            "0x0000000000000000000000007ee41d8a25641000661b1ef5e6ae8a00400466b0"
          ],
          "data": "0x000000000000000000000000000000000000000000000000000752667e88a20000000000000000000000000000000000000000000000000c6a934f97c9ea9b6d000000000000000000000000000000000000000000038ef8007144473243bffe00000000000000000000000000000000000000000000000c6a8bfd314b61f96d000000000000000000000000000000000000000000038ef8007896adb0cc61fe",
          "blockHash": "0x88a75e6229f34f2f3c70c68ee750dad40824ccf895634e323f5b9794908ea5b8",
          "blockNumber": "0x4d2933e",
          "blockTimestamp": "0x69515387",
          "transactionHash": "0x610d6618eda57faaed7df4d9754dc31612d4cb07de133f31857d2e11cbcc71f3",
          "transactionIndex": "0x5f",
          "logIndex": "0x497",
          "removed": false
        }
      ],
      "logsBloom": "0x00000000000000000000000000000000000008000000000000000000000000000000000000000000000000000000000000008000000000000200000000000000000000000040000000000000000000800004000000000000000100000000000000000000000000800000000000000000000000000000000080000000000000000400802000000000020000800402000000000000000000000000000000000000200000000000000000000000000000000000000000000000000000008000004000000000000200800001000000000000000000400000004000100000000000000000000000000000000000000000000000000000000000000000000000100000",
      "type": "0x2",
      "transactionHash": "0x610d6618eda57faaed7df4d9754dc31612d4cb07de133f31857d2e11cbcc71f3",
      "transactionIndex": "0x5f",
      "blockHash": "0x88a75e6229f34f2f3c70c68ee750dad40824ccf895634e323f5b9794908ea5b8",
      "blockNumber": "0x4d2933e",
      "gasUsed": "0xd6ae",
      "effectiveGasPrice": "0x186513ab51",
      "from": "0xdbdb7f1d84bbecaccda2ab7f9e6ca181f685022d",
      "to": "0x24f48fb3c1ee0f25b4b716c15bf4f76675252834",
      "contractAddress": null
    },
    {
      "status": "0x1",
      "cumulativeGasUsed": "0x1b98810",
      "logs": [
        {
          "address": "0x24f48fb3c1ee0f25b4b716c15bf4f76675252834",
          "topics": [
            "0x427db48f8cd0cf7fdabcdbc1327c7db26ce3a544292ba380ef07d5175af729cd",
            "0x0000000000000000000000003c499c542cef5e3811e1192ce70d8cc03d5c3359",
            "0x0000000000000000000000000000000000000000000000000000000000000082"
          ],
          "data": "0x0000000000000000000000007a4ce45341a5f391538bddcb361f555beac39d03",
          "blockHash": "0x88a75e6229f34f2f3c70c68ee750dad40824ccf895634e323f5b9794908ea5b8",
          "blockNumber": "0x4d2933e",
          "blockTimestamp": "0x69515387",
          "transactionHash": "0x000df0a49e55fc6353a305734055244a5670ca30091b1a90fee2759cf6abeb36",
          "transactionIndex": "0x60",
          "logIndex": "0x498",
          "removed": false
        },
        {
          "address": "0x0000000000000000000000000000000000001010",
          "topics": [
            "0x4dfe1bbbcf077ddc3e01291eea2d5c70c2b422b415d95645b9adcfd678cb1d63",
            "0x0000000000000000000000000000000000000000000000000000000000001010",
            "0x000000000000000000000000dbdb7f1d84bbecaccda2ab7f9e6ca181f685022d",
            "0x0000000000000000000000007ee41d8a25641000661b1ef5e6ae8a00400466b0"
          ],
          "data": "0x000000000000000000000000000000000000000000000000000752667e88a20000000000000000000000000000000000000000000000000c6a7eda84a556745f000000000000000000000000000000000000000000038ef8007896adb0cc61fe00000000000000000000000000000000000000000000000c6a77881e26cdd25f000000000000000000000000000000000000000000038ef8007fe9142f5503fe",
          "blockHash": "0x88a75e6229f34f2f3c70c68ee750dad40824ccf895634e323f5b9794908ea5b8",
          "blockNumber": "0x4d2933e",
          "blockTimestamp": "0x69515387",
          "transactionHash": "0x000df0a49e55fc6353a305734055244a5670ca30091b1a90fee2759cf6abeb36",
          "transactionIndex": "0x60",
          "logIndex": "0x499",
          "removed": false
        }
      ],
      "logsBloom": "0x00000000000000000000000000000000000008000000000000000000000000000000000000000000000000000000000000008010000000000200000000000000000000000040000000000000000000800004000000000000000100000000000040000000000000000000000000000000000000000000000080000000000000000000802000000000020000800400000000000000000000000000000000000000200000000000000000000000000000000000000000000000000000108000004000000000000200800001000000000000000000400000004000100000000000000000000000000000000000000000000000000000000000000000000000100000",
      "type": "0x2",
      "transactionHash": "0x000df0a49e55fc6353a305734055244a5670ca30091b1a90fee2759cf6abeb36",
      "transactionIndex": "0x60",
      "blockHash": "0x88a75e6229f34f2f3c70c68ee750dad40824ccf895634e323f5b9794908ea5b8",
      "blockNumber": "0x4d2933e",
      "gasUsed": "0xd6ae",
      "effectiveGasPrice": "0x186513ab51",
      "from": "0xdbdb7f1d84bbecaccda2ab7f9e6ca181f685022d",
      "to": "0x24f48fb3c1ee0f25b4b716c15bf4f76675252834",
      "contractAddress": null
    },
    {
      "status": "0x1",
      "cumulativeGasUsed": "0x40274e",
      "logs": [
        {
          "address": "0x24f48fb3c1ee0f25b4b716c15bf4f76675252834",
          "topics": [
            "0x427db48f8cd0cf7fdabcdbc1327c7db26ce3a544292ba380ef07d5175af729cd",
            "0x0000000000000000000000003c499c542cef5e3811e1192ce70d8cc03d5c3359",
            "0x000000000000000000000000000000000000000000000000000000000000e708"
          ],
          "data": "0x0000000000000000000000007a4ce45341a5f391538bddcb361f555beac39d03",
          "blockHash": "0x961c368cc25b42744a40c21c46946d0749f7b8da3c9c6bac90617c2324606208",
          "blockNumber": "0x4d2933f",
          "blockTimestamp": "0x69515389",
          "transactionHash": "0xebc158d46d75f432ccf0a06cc258020693abe6045c6952b5fde20cf76862847a",
          "transactionIndex": "0x2e",
          "logIndex": "0xc4",
          "removed": false
        },
        {
          "address": "0x0000000000000000000000000000000000001010",
          "topics": [
            "0x4dfe1bbbcf077ddc3e01291eea2d5c70c2b422b415d95645b9adcfd678cb1d63",
            "0x0000000000000000000000000000000000000000000000000000000000001010",
            "0x000000000000000000000000dbdb7f1d84bbecaccda2ab7f9e6ca181f685022d",
            "0x0000000000000000000000007ee41d8a25641000661b1ef5e6ae8a00400466b0"
          ],
          "data": "0x000000000000000000000000000000000000000000000000000752cf449fb60000000000000000000000000000000000000000000000000c6a6a657180c24d51000000000000000000000000000000000000000000038ef80874e41dfcf27abc00000000000000000000000000000000000000000000000c6a6312a23c229751000000000000000000000000000000000000000000038ef8087c36ed419230bc",
          "blockHash": "0x961c368cc25b42744a40c21c46946d0749f7b8da3c9c6bac90617c2324606208",
          "blockNumber": "0x4d2933f",
          "blockTimestamp": "0x69515389",
          "transactionHash": "0xebc158d46d75f432ccf0a06cc258020693abe6045c6952b5fde20cf76862847a",
          "transactionIndex": "0x2e",
          "logIndex": "0xc5",
          "removed": false
        }
      ],
      "logsBloom": "0x00000000000000000000000000000000000008000000000000000000000000000000000000000000000000000000000040008000000000000200000000000001000000000040000000000000000000800004000000000000000100000000000000000000000000000000000000000000000000000000000080000000000000000000802000000000020000800400000000000000000000000000000400000000200000000000000000000000000000000000000000000000000000008000004000000000000200800001000000000000000000400000004000100000000000000000000000000000000000000000000000000000000000000000000000100000",
      "type": "0x2",
      "transactionHash": "0xebc158d46d75f432ccf0a06cc258020693abe6045c6952b5fde20cf76862847a",
      "transactionIndex": "0x2e",
      "blockHash": "0x961c368cc25b42744a40c21c46946d0749f7b8da3c9c6bac90617c2324606208",
      "blockNumber": "0x4d2933f",
      "gasUsed": "0xd6ba",
      "effectiveGasPrice": "0x186f03f45f",
      "from": "0xdbdb7f1d84bbecaccda2ab7f9e6ca181f685022d",
      "to": "0x24f48fb3c1ee0f25b4b716c15bf4f76675252834",
      "contractAddress": null
    },
    {
      "status": "0x1",
      "cumulativeGasUsed": "0x40fdfc",
      "logs": [
        {
          "address": "0x24f48fb3c1ee0f25b4b716c15bf4f76675252834",
          "topics": [
            "0x427db48f8cd0cf7fdabcdbc1327c7db26ce3a544292ba380ef07d5175af729cd",
            "0x0000000000000000000000003c499c542cef5e3811e1192ce70d8cc03d5c3359",
            "0x0000000000000000000000000000000000000000000000000000000000000092"
          ],
          "data": "0x0000000000000000000000007a4ce45341a5f391538bddcb361f555beac39d03",
          "blockHash": "0x961c368cc25b42744a40c21c46946d0749f7b8da3c9c6bac90617c2324606208",
          "blockNumber": "0x4d2933f",
          "blockTimestamp": "0x69515389",
          "transactionHash": "0x731cbaef7c12dfd45c385131a106f7c36387802818f027af349f1c94da5448c0",
          "transactionIndex": "0x2f",
          "logIndex": "0xc6",
          "removed": false
        },
        {
          "address": "0x0000000000000000000000000000000000001010",
          "topics": [
            "0x4dfe1bbbcf077ddc3e01291eea2d5c70c2b422b415d95645b9adcfd678cb1d63",
            "0x0000000000000000000000000000000000000000000000000000000000001010",
            "0x000000000000000000000000dbdb7f1d84bbecaccda2ab7f9e6ca181f685022d",
            "0x0000000000000000000000007ee41d8a25641000661b1ef5e6ae8a00400466b0"
          ],
          "data": "0x000000000000000000000000000000000000000000000000000752667e88a20000000000000000000000000000000000000000000000000c6a55e6e3899b564b000000000000000000000000000000000000000000038ef8087c36ed419230bc00000000000000000000000000000000000000000000000c6a4e947d0b12b44b000000000000000000000000000000000000000000038ef808838953c01ad2bc",
          "blockHash": "0x961c368cc25b42744a40c21c46946d0749f7b8da3c9c6bac90617c2324606208",
          "blockNumber": "0x4d2933f",
          "blockTimestamp": "0x69515389",
          "transactionHash": "0x731cbaef7c12dfd45c385131a106f7c36387802818f027af349f1c94da5448c0",
          "transactionIndex": "0x2f",
          "logIndex": "0xc7",
          "removed": false
        }
      ],
      "logsBloom": "0x00000000000000000000000000000000000008000000000000000000000000000000000000000000000000000000000000008000000000200200000000000000000000000040000000000000000000800004000000000000000100000000000000000000000000000000000000000000000000000000000080000000000000000000802000000000020000800400000000000000000000000000000000000000200000000000000000000000000000000000000000000000000000008000004000000000000200800001000000000000000000400000004000100000000000000000000000000000000000000000000000000000000001020000000000100000",
      "type": "0x2",
      "transactionHash": "0x731cbaef7c12dfd45c385131a106f7c36387802818f027af349f1c94da5448c0",
      "transactionIndex": "0x2f",
      "blockHash": "0x961c368cc25b42744a40c21c46946d0749f7b8da3c9c6bac90617c2324606208",
      "blockNumber": "0x4d2933f",
      "gasUsed": "0xd6ae",
      "effectiveGasPrice": "0x186f03f45f",
      "from": "0xdbdb7f1d84bbecaccda2ab7f9e6ca181f685022d",
      "to": "0x24f48fb3c1ee0f25b4b716c15bf4f76675252834",
      "contractAddress": null
    },
    {
      "status": "0x1",
      "cumulativeGasUsed": "0x41d4b6",
      "logs": [
        {
          "address": "0x24f48fb3c1ee0f25b4b716c15bf4f76675252834",
          "topics": [
            "0x427db48f8cd0cf7fdabcdbc1327c7db26ce3a544292ba380ef07d5175af729cd",
            "0x0000000000000000000000003c499c542cef5e3811e1192ce70d8cc03d5c3359",
            "0x00000000000000000000000000000000000000000000000000000000000001e0"
          ],
          "data": "0x0000000000000000000000007a4ce45341a5f391538bddcb361f555beac39d03",
          "blockHash": "0x961c368cc25b42744a40c21c46946d0749f7b8da3c9c6bac90617c2324606208",
          "blockNumber": "0x4d2933f",
          "blockTimestamp": "0x69515389",
          "transactionHash": "0x072de51bfccf341d694d2ddafb4064136410dab3ad2d9a2dfbe352ef86b2a8c7",
          "transactionIndex": "0x30",
          "logIndex": "0xc8",
          "removed": false
        },
        {
          "address": "0x0000000000000000000000000000000000001010",
          "topics": [
            "0x4dfe1bbbcf077ddc3e01291eea2d5c70c2b422b415d95645b9adcfd678cb1d63",
            "0x0000000000000000000000000000000000000000000000000000000000001010",
            "0x000000000000000000000000dbdb7f1d84bbecaccda2ab7f9e6ca181f685022d",
            "0x0000000000000000000000007ee41d8a25641000661b1ef5e6ae8a00400466b0"
          ],
          "data": "0x000000000000000000000000000000000000000000000000000752cf449fb60000000000000000000000000000000000000000000000000c6a41697ac6a3d3b9000000000000000000000000000000000000000000038ef808838953c01ad2bc00000000000000000000000000000000000000000000000c6a3a16ab82041db9000000000000000000000000000000000000000000038ef8088adc2304ba88bc",
          "blockHash": "0x961c368cc25b42744a40c21c46946d0749f7b8da3c9c6bac90617c2324606208",
          "blockNumber": "0x4d2933f",
          "blockTimestamp": "0x69515389",
          "transactionHash": "0x072de51bfccf341d694d2ddafb4064136410dab3ad2d9a2dfbe352ef86b2a8c7",
          "transactionIndex": "0x30",
          "logIndex": "0xc9",
          "removed": false
        }
      ],
      "logsBloom": "0x00000000000000000000000000000000000008000000000000000000000000000000000000000000000000000000000000008000000000000200000000000000000000000040000000000000000000800004000000000000000100000000000000000000000000000000000000000000000000000000000080000000000000000000802000000000020000800400000000000000000000000000000000000000200000000000000000000000000000000000000000000000000000008000044000000000400200800001000000000000000000400000004000100000000000000000000000000000000000000000000000000000008000000000000000100000",
      "type": "0x2",
      "transactionHash": "0x072de51bfccf341d694d2ddafb4064136410dab3ad2d9a2dfbe352ef86b2a8c7",
      "transactionIndex": "0x30",
      "blockHash": "0x961c368cc25b42744a40c21c46946d0749f7b8da3c9c6bac90617c2324606208",
      "blockNumber": "0x4d2933f",
      "gasUsed": "0xd6ba",
      "effectiveGasPrice": "0x186f03f45f",
      "from": "0xdbdb7f1d84bbecaccda2ab7f9e6ca181f685022d",
      "to": "0x24f48fb3c1ee0f25b4b716c15bf4f76675252834",
      "contractAddress": null
    },
    {
      "status": "0x1",
      "cumulativeGasUsed": "0x42ab70",
      "logs": [
        {
          "address": "0x24f48fb3c1ee0f25b4b716c15bf4f76675252834",
          "topics": [
            "0x427db48f8cd0cf7fdabcdbc1327c7db26ce3a544292ba380ef07d5175af729cd",
            "0x0000000000000000000000003c499c542cef5e3811e1192ce70d8cc03d5c3359",
            "0x00000000000000000000000000000000000000000000000000000000000003e7"
          ],
          "data": "0x0000000000000000000000007a4ce45341a5f391538bddcb361f555beac39d03",
          "blockHash": "0x961c368cc25b42744a40c21c46946d0749f7b8da3c9c6bac90617c2324606208",
          "blockNumber": "0x4d2933f",
          "blockTimestamp": "0x69515389",
          "transactionHash": "0x56e3a04b2919c85fab20df9885fe8ef931e404932fa338749fb44ea586e340b2",
          "transactionIndex": "0x31",
          "logIndex": "0xca",
          "removed": false
        },
        {
          "address": "0x0000000000000000000000000000000000001010",
          "topics": [
            "0x4dfe1bbbcf077ddc3e01291eea2d5c70c2b422b415d95645b9adcfd678cb1d63",
            "0x0000000000000000000000000000000000000000000000000000000000001010",
            "0x000000000000000000000000dbdb7f1d84bbecaccda2ab7f9e6ca181f685022d",
            "0x0000000000000000000000007ee41d8a25641000661b1ef5e6ae8a00400466b0"
          ],
          "data": "0x000000000000000000000000000000000000000000000000000752cf449fb60000000000000000000000000000000000000000000000000c6a2ceaeccf7cdcb3000000000000000000000000000000000000000000038ef8088adc2304ba88bc00000000000000000000000000000000000000000000000c6a25981d8add26b3000000000000000000000000000000000000000000038ef808922ef2495a3ebc",
          "blockHash": "0x961c368cc25b42744a40c21c46946d0749f7b8da3c9c6bac90617c2324606208",
          "blockNumber": "0x4d2933f",
          "blockTimestamp": "0x69515389",
          "transactionHash": "0x56e3a04b2919c85fab20df9885fe8ef931e404932fa338749fb44ea586e340b2",
          "transactionIndex": "0x31",
          "logIndex": "0xcb",
          "removed": false
        }
      ],
      "logsBloom": "0x00000000000000000000000000000000000008000000000000000000000000000000000000000000000000000000000000008000000000000200000000000000000000000040000000000000000000800004000000000000004100080000000000000000000000000000000000000000000000000000000080000000000000000000802000000000020000800400000000000000000000000000000000000000200000000000000000100000000000000000000000000000000000008000004000000000000200800001000000000000000000400000004000100000000000000000000000000000000000000000000000000000000000000000000000100000",
      "type": "0x2",
      "transactionHash": "0x56e3a04b2919c85fab20df9885fe8ef931e404932fa338749fb44ea586e340b2",
      "transactionIndex": "0x31",
      "blockHash": "0x961c368cc25b42744a40c21c46946d0749f7b8da3c9c6bac90617c2324606208",
      "blockNumber": "0x4d2933f",
      "gasUsed": "0xd6ba",
      "effectiveGasPrice": "0x186f03f45f",
      "from": "0xdbdb7f1d84bbecaccda2ab7f9e6ca181f685022d",
      "to": "0x24f48fb3c1ee0f25b4b716c15bf4f76675252834",
      "contractAddress": null
    },
    {
      "status": "0x1",
      "cumulativeGasUsed": "0x43822a",
      "logs": [
        {
          "address": "0x24f48fb3c1ee0f25b4b716c15bf4f76675252834",
          "topics": [
            "0x427db48f8cd0cf7fdabcdbc1327c7db26ce3a544292ba380ef07d5175af729cd",
            "0x0000000000000000000000003c499c542cef5e3811e1192ce70d8cc03d5c3359",
            "0x000000000000000000000000000000000000000000000000000000000000def1"
          ],
          "data": "0x0000000000000000000000007a4ce45341a5f391538bddcb361f555beac39d03",
          "blockHash": "0x961c368cc25b42744a40c21c46946d0749f7b8da3c9c6bac90617c2324606208",
          "blockNumber": "0x4d2933f",
          "blockTimestamp": "0x69515389",
          "transactionHash": "0xf3bca50934c3571c55727995dd0ec875d882606aaede32c247d098d621fa88e9",
          "transactionIndex": "0x32",
          "logIndex": "0xcc",
          "removed": false
        },
        {
          "address": "0x0000000000000000000000000000000000001010",
          "topics": [
            "0x4dfe1bbbcf077ddc3e01291eea2d5c70c2b422b415d95645b9adcfd678cb1d63",
            "0x0000000000000000000000000000000000000000000000000000000000001010",
            "0x000000000000000000000000dbdb7f1d84bbecaccda2ab7f9e6ca181f685022d",
            "0x0000000000000000000000007ee41d8a25641000661b1ef5e6ae8a00400466b0"
          ],
          "data": "0x000000000000000000000000000000000000000000000000000752cf449fb60000000000000000000000000000000000000000000000000c6a186c5ed855e5ad000000000000000000000000000000000000000000038ef808922ef2495a3ebc00000000000000000000000000000000000000000000000c6a11198f93b62fad000000000000000000000000000000000000000000038ef8089981c18df9f4bc",
          "blockHash": "0x961c368cc25b42744a40c21c46946d0749f7b8da3c9c6bac90617c2324606208",
          "blockNumber": "0x4d2933f",
          "blockTimestamp": "0x69515389",
          "transactionHash": "0xf3bca50934c3571c55727995dd0ec875d882606aaede32c247d098d621fa88e9",
          "transactionIndex": "0x32",
          "logIndex": "0xcd",
          "removed": false
        }
      ],
      "logsBloom": "0x00000000000000000000000000000000000008000000000000000000000040000000000000000000000000000000000000008000000000000200000000000000000000000040000000000000000000800004000000000000000100000000000000000000000000000000000000000000000000000000000080000000000000000040802000000000020000800400000000000000000000000000000000000000200000000000000000000000000000000000000000000000000000008000004000000000000200800001000000000000000002400000004000100000000000000000000000000000000000000000000000000000000000000000000000100000",
      "type": "0x2",
      "transactionHash": "0xf3bca50934c3571c55727995dd0ec875d882606aaede32c247d098d621fa88e9",
      "transactionIndex": "0x32",
      "blockHash": "0x961c368cc25b42744a40c21c46946d0749f7b8da3c9c6bac90617c2324606208",
      "blockNumber": "0x4d2933f",
      "gasUsed": "0xd6ba",
      "effectiveGasPrice": "0x186f03f45f",
      "from": "0xdbdb7f1d84bbecaccda2ab7f9e6ca181f685022d",
      "to": "0x24f48fb3c1ee0f25b4b716c15bf4f76675252834",
      "contractAddress": null
    },
    {
      "status": "0x1",
      "cumulativeGasUsed": "0x4458d8",
      "logs": [
        {
          "address": "0x24f48fb3c1ee0f25b4b716c15bf4f76675252834",
          "topics": [
            "0x427db48f8cd0cf7fdabcdbc1327c7db26ce3a544292ba380ef07d5175af729cd",
            "0x000000000000000000000000c2132d05d31c914a87c6611c10748aeb04b58e8f",
            "0x0000000000000000000000000000000000000000000000000000000000000001"
          ],
          "data": "0x000000000000000000000000614610f2f3cb6fb8a9d6ebaac7cab2cf960e01ea",
          "blockHash": "0x961c368cc25b42744a40c21c46946d0749f7b8da3c9c6bac90617c2324606208",
          "blockNumber": "0x4d2933f",
          "blockTimestamp": "0x69515389",
          "transactionHash": "0x64a49e52638db13f30e1c7a5608377b5110a94dedf4be0ade8be6a66e5fc8499",
          "transactionIndex": "0x33",
          "logIndex": "0xce",
          "removed": false
        },
        {
          "address": "0x0000000000000000000000000000000000001010",
          "topics": [
            "0x4dfe1bbbcf077ddc3e01291eea2d5c70c2b422b415d95645b9adcfd678cb1d63",
            "0x0000000000000000000000000000000000000000000000000000000000001010",
            "0x000000000000000000000000dbdb7f1d84bbecaccda2ab7f9e6ca181f685022d",
            "0x0000000000000000000000007ee41d8a25641000661b1ef5e6ae8a00400466b0"
          ],
          "data": "0x000000000000000000000000000000000000000000000000000752667e88a20000000000000000000000000000000000000000000000000c6a03edd0e12eeea7000000000000000000000000000000000000000000038ef8089981c18df9f4bc00000000000000000000000000000000000000000000000c69fc9b6a62a64ca7000000000000000000000000000000000000000000038ef808a0d4280c8296bc",
          "blockHash": "0x961c368cc25b42744a40c21c46946d0749f7b8da3c9c6bac90617c2324606208",
          "blockNumber": "0x4d2933f",
          "blockTimestamp": "0x69515389",
          "transactionHash": "0x64a49e52638db13f30e1c7a5608377b5110a94dedf4be0ade8be6a66e5fc8499",
          "transactionIndex": "0x33",
          "logIndex": "0xcf",
          "removed": false
        }
      ],
      "logsBloom": "0x00000000000000000000000000000000000008000000000000000000000000000000000000000000000000000000000000008000000000000200000000040000000000000000000000000000000000800004000000040000000100000000000010000000000000000000000000000000000000000000000080000000000000000000802000000000020000000400000000020000000000000000000000000000200000000000000000000000000000000000000000000000000000008000004000000000000200800001000008000000000000400000004000100000000040000000000000000000000000000000000000000000000000000000000000100000",
      "type": "0x2",
      "transactionHash": "0x64a49e52638db13f30e1c7a5608377b5110a94dedf4be0ade8be6a66e5fc8499",
      "transactionIndex": "0x33",
      "blockHash": "0x961c368cc25b42744a40c21c46946d0749f7b8da3c9c6bac90617c2324606208",
      "blockNumber": "0x4d2933f",
      "gasUsed": "0xd6ae",
      "effectiveGasPrice": "0x186f03f45f",
      "from": "0xdbdb7f1d84bbecaccda2ab7f9e6ca181f685022d",
      "to": "0x24f48fb3c1ee0f25b4b716c15bf4f76675252834",
      "contractAddress": null
    },
    {
      "status": "0x1",
      "cumulativeGasUsed": "0x452f92",
      "logs": [
        {
          "address": "0x24f48fb3c1ee0f25b4b716c15bf4f76675252834",
          "topics": [
            "0x427db48f8cd0cf7fdabcdbc1327c7db26ce3a544292ba380ef07d5175af729cd",
            "0x000000000000000000000000c2132d05d31c914a87c6611c10748aeb04b58e8f",
            "0x000000000000000000000000000000000000000000000000000000000000a4b1"
          ],
          "data": "0x000000000000000000000000614610f2f3cb6fb8a9d6ebaac7cab2cf960e01ea",
          "blockHash": "0x961c368cc25b42744a40c21c46946d0749f7b8da3c9c6bac90617c2324606208",
          "blockNumber": "0x4d2933f",
          "blockTimestamp": "0x69515389",
          "transactionHash": "0xa6b748e3632d5a41135aa011e16dc40b8139e32e012cd56f63a7fb743c0ece55",
          "transactionIndex": "0x34",
          "logIndex": "0xd0",
          "removed": false
        },
        {
          "address": "0x0000000000000000000000000000000000001010",
          "topics": [
            "0x4dfe1bbbcf077ddc3e01291eea2d5c70c2b422b415d95645b9adcfd678cb1d63",
            "0x0000000000000000000000000000000000000000000000000000000000001010",
            "0x000000000000000000000000dbdb7f1d84bbecaccda2ab7f9e6ca181f685022d",
            "0x0000000000000000000000007ee41d8a25641000661b1ef5e6ae8a00400466b0"
          ],
          "data": "0x000000000000000000000000000000000000000000000000000752cf449fb60000000000000000000000000000000000000000000000000c69ef70681e376c15000000000000000000000000000000000000000000038ef808a0d4280c8296bc00000000000000000000000000000000000000000000000c69e81d98d997b615000000000000000000000000000000000000000000038ef808a826f751224cbc",
          "blockHash": "0x961c368cc25b42744a40c21c46946d0749f7b8da3c9c6bac90617c2324606208",
          "blockNumber": "0x4d2933f",
          "blockTimestamp": "0x69515389",
          "transactionHash": "0xa6b748e3632d5a41135aa011e16dc40b8139e32e012cd56f63a7fb743c0ece55",
          "transactionIndex": "0x34",
          "logIndex": "0xd1",
          "removed": false
        }
      ],
      "logsBloom": "0x00000000000000000000000000000000000008000000000000000000000000000000000000000000000000000000000000008000000000000200000000000000000000000000000000000000000000800004000000000000000100000000000010000000000000000000000000000000000000000000000080000000000000000000802000000000020000000400000000020000000000000000000000000000200000000000000000000000000000000000000000000000000000008000004000000000000200810001000008000000000000400000004000100000000000000000000000000000000000000000100000000000000000000000000000100000",
      "type": "0x2",
      "transactionHash": "0xa6b748e3632d5a41135aa011e16dc40b8139e32e012cd56f63a7fb743c0ece55",
      "transactionIndex": "0x34",
      "blockHash": "0x961c368cc25b42744a40c21c46946d0749f7b8da3c9c6bac90617c2324606208",
      "blockNumber": "0x4d2933f",
      "gasUsed": "0xd6ba",
      "effectiveGasPrice": "0x186f03f45f",
      "from": "0xdbdb7f1d84bbecaccda2ab7f9e6ca181f685022d",
      "to": "0x24f48fb3c1ee0f25b4b716c15bf4f76675252834",
      "contractAddress": null
    },
    {
      "status": "0x1",
      "cumulativeGasUsed": "0x52cbe8",
      "logs": [
        {
          "address": "0x24f48fb3c1ee0f25b4b716c15bf4f76675252834",
          "topics": [
            "0x427db48f8cd0cf7fdabcdbc1327c7db26ce3a544292ba380ef07d5175af729cd",
            "0x000000000000000000000000c2132d05d31c914a87c6611c10748aeb04b58e8f",
            "0x0000000000000000000000000000000000000000000000000000000000000089"
          ],
          "data": "0x000000000000000000000000614610f2f3cb6fb8a9d6ebaac7cab2cf960e01ea",
          "blockHash": "0x961c368cc25b42744a40c21c46946d0749f7b8da3c9c6bac90617c2324606208",
          "blockNumber": "0x4d2933f",
          "blockTimestamp": "0x69515389",
          "transactionHash": "0x27f699ddf6a1ff91b42adb8a8518b339978deb2ea65ae1c6d1fde068fc518729",
          "transactionIndex": "0x38",
          "logIndex": "0x105",
          "removed": false
        },
        {
          "address": "0x0000000000000000000000000000000000001010",
          "topics": [
            "0x4dfe1bbbcf077ddc3e01291eea2d5c70c2b422b415d95645b9adcfd678cb1d63",
            "0x0000000000000000000000000000000000000000000000000000000000001010",
            "0x000000000000000000000000dbdb7f1d84bbecaccda2ab7f9e6ca181f685022d",
            "0x0000000000000000000000007ee41d8a25641000661b1ef5e6ae8a00400466b0"
          ],
          "data": "0x000000000000000000000000000000000000000000000000000752667e88a20000000000000000000000000000000000000000000000000c69daf1da2710750f000000000000000000000000000000000000000000038ef80917aad28a9864bc00000000000000000000000000000000000000000000000c69d39f73a887d30f000000000000000000000000000000000000000000038ef8091efd39092106bc",
          "blockHash": "0x961c368cc25b42744a40c21c46946d0749f7b8da3c9c6bac90617c2324606208",
          "blockNumber": "0x4d2933f",
          "blockTimestamp": "0x69515389",
          "transactionHash": "0x27f699ddf6a1ff91b42adb8a8518b339978deb2ea65ae1c6d1fde068fc518729",
          "transactionIndex": "0x38",
          "logIndex": "0x106",
          "removed": false
        }
      ],
      "logsBloom": "0x00000000000000000000000000000000000008000000000000000000000000000000000000000000000000000000000000008000000000000200000000000000000000000000000000000000000000800004000000000000000100000000000010000000000000800000000000000000000000000000000080000000000000000400802000000000020000000402000000020000000000000000000000000000200000000000000000000000000000000000000000000000000000008000004000000000000200800001000008000000000000400000004000100000000000000000000000000000000000000000000000000000000000000000000000100000",
      "type": "0x2",
      "transactionHash": "0x27f699ddf6a1ff91b42adb8a8518b339978deb2ea65ae1c6d1fde068fc518729",
      "transactionIndex": "0x38",
      "blockHash": "0x961c368cc25b42744a40c21c46946d0749f7b8da3c9c6bac90617c2324606208",
      "blockNumber": "0x4d2933f",
      "gasUsed": "0xd6ae",
      "effectiveGasPrice": "0x186f03f45f",
      "from": "0xdbdb7f1d84bbecaccda2ab7f9e6ca181f685022d",
      "to": "0x24f48fb3c1ee0f25b4b716c15bf4f76675252834",
      "contractAddress": null
    },
    {
      "status": "0x1",
      "cumulativeGasUsed": "0x53a296",
      "logs": [
        {
          "address": "0x24f48fb3c1ee0f25b4b716c15bf4f76675252834",
          "topics": [
            "0x427db48f8cd0cf7fdabcdbc1327c7db26ce3a544292ba380ef07d5175af729cd",
            "0x000000000000000000000000c2132d05d31c914a87c6611c10748aeb04b58e8f",
            "0x000000000000000000000000000000000000000000000000000000000000000a"
          ],
          "data": "0x000000000000000000000000614610f2f3cb6fb8a9d6ebaac7cab2cf960e01ea",
          "blockHash": "0x961c368cc25b42744a40c21c46946d0749f7b8da3c9c6bac90617c2324606208",
          "blockNumber": "0x4d2933f",
          "blockTimestamp": "0x69515389",
          "transactionHash": "0x327675b2ecb1c7f7cd702f37c9622e225f80fcb4c4bff26444e7b1fcb3877b02",
          "transactionIndex": "0x39",
          "logIndex": "0x107",
          "removed": false
        },
        {
          "address": "0x0000000000000000000000000000000000001010",
          "topics": [
            "0x4dfe1bbbcf077ddc3e01291eea2d5c70c2b422b415d95645b9adcfd678cb1d63",
            "0x0000000000000000000000000000000000000000000000000000000000001010",
            "0x000000000000000000000000dbdb7f1d84bbecaccda2ab7f9e6ca181f685022d",
            "0x0000000000000000000000007ee41d8a25641000661b1ef5e6ae8a00400466b0"
          ],
          "data": "0x000000000000000000000000000000000000000000000000000752667e88a20000000000000000000000000000000000000000000000000c69c674716418f27d000000000000000000000000000000000000000000038ef8091efd39092106bc00000000000000000000000000000000000000000000000c69bf220ae590507d000000000000000000000000000000000000000000038ef809264f9f87a9a8bc",
          "blockHash": "0x961c368cc25b42744a40c21c46946d0749f7b8da3c9c6bac90617c2324606208",
          "blockNumber": "0x4d2933f",
          "blockTimestamp": "0x69515389",
          "transactionHash": "0x327675b2ecb1c7f7cd702f37c9622e225f80fcb4c4bff26444e7b1fcb3877b02",
          "transactionIndex": "0x39",
          "logIndex": "0x108",
          "removed": false
        }
      ],
      "logsBloom": "0x00000000000000000000000000000000000008000000000000000000000000000000000000000000000000000000000000008000040000000220000000000000000000000000000000000000000000800004000000000000000100000000000010000000000000000000000000000000000000000000000080000000000000000000802000000000030000000400000000020000000000000000000000000000200000000000000000000000000000000000000000000000000000008000004000000000000200800001000008000000000000400000004000100000000000000000000000000000000000000000000000000000000000000000000000100000",
      "type": "0x2",
      "transactionHash": "0x327675b2ecb1c7f7cd702f37c9622e225f80fcb4c4bff26444e7b1fcb3877b02",
      "transactionIndex": "0x39",
      "blockHash": "0x961c368cc25b42744a40c21c46946d0749f7b8da3c9c6bac90617c2324606208",
      "blockNumber": "0x4d2933f",
      "gasUsed": "0xd6ae",
      "effectiveGasPrice": "0x186f03f45f",
      "from": "0xdbdb7f1d84bbecaccda2ab7f9e6ca181f685022d",
      "to": "0x24f48fb3c1ee0f25b4b716c15bf4f76675252834",
      "contractAddress": null
    },
    {
      "status": "0x1",
      "cumulativeGasUsed": "0x811be3",
      "logs": [
        {
          "address": "0x24f48fb3c1ee0f25b4b716c15bf4f76675252834",
          "topics": [
            "0x427db48f8cd0cf7fdabcdbc1327c7db26ce3a544292ba380ef07d5175af729cd",
            "0x000000000000000000000000c2132d05d31c914a87c6611c10748aeb04b58e8f",
            "0x00000000000000000000000000000000000000000000000000000000000138de"
          ],
          "data": "0x000000000000000000000000614610f2f3cb6fb8a9d6ebaac7cab2cf960e01ea",
          "blockHash": "0x961c368cc25b42744a40c21c46946d0749f7b8da3c9c6bac90617c2324606208",
          "blockNumber": "0x4d2933f",
          "blockTimestamp": "0x69515389",
          "transactionHash": "0x52af1afce48269ede2befc5c5b3653203f93157fffc16b380e1ec302602f5af9",
          "transactionIndex": "0x44",
          "logIndex": "0x195",
          "removed": false
        },
        {
          "address": "0x0000000000000000000000000000000000001010",
          "topics": [
            "0x4dfe1bbbcf077ddc3e01291eea2d5c70c2b422b415d95645b9adcfd678cb1d63",
            "0x0000000000000000000000000000000000000000000000000000000000001010",
            "0x000000000000000000000000dbdb7f1d84bbecaccda2ab7f9e6ca181f685022d",
            "0x0000000000000000000000007ee41d8a25641000661b1ef5e6ae8a00400466b0"
          ],
          "data": "0x000000000000000000000000000000000000000000000000000753380ab6ca0000000000000000000000000000000000000000000000000c69b1f708a1216feb000000000000000000000000000000000000000000038ef80aac065667bb49bc00000000000000000000000000000000000000000000000c69aaa3d0966aa5eb000000000000000000000000000000000000000000038ef80ab3598e727213bc",
          "blockHash": "0x961c368cc25b42744a40c21c46946d0749f7b8da3c9c6bac90617c2324606208",
          "blockNumber": "0x4d2933f",
          "blockTimestamp": "0x69515389",
          "transactionHash": "0x52af1afce48269ede2befc5c5b3653203f93157fffc16b380e1ec302602f5af9",
          "transactionIndex": "0x44",
          "logIndex": "0x196",
          "removed": false
        }
      ],
      "logsBloom": "0x00000000000000000000000000040000000008000000000000000000000000000000000000000000000000000000000000008000000000000200000000000000000000000000000000000000000000800004000000000000000100000000000010000000000000000000000000400000000000000000000080000000000000000000802000000000020000000400000000020000000000000000000000000000200000000000000000000000000000000000000000000000000000008000004000000000000200800001000008000000000000400000004000100000000000000000000010000000000000000000000000000000000000000000000000100000",
      "type": "0x2",
      "transactionHash": "0x52af1afce48269ede2befc5c5b3653203f93157fffc16b380e1ec302602f5af9",
      "transactionIndex": "0x44",
      "blockHash": "0x961c368cc25b42744a40c21c46946d0749f7b8da3c9c6bac90617c2324606208",
      "blockNumber": "0x4d2933f",
      "gasUsed": "0xd6c6",
      "effectiveGasPrice": "0x186f03f45f",
      "from": "0xdbdb7f1d84bbecaccda2ab7f9e6ca181f685022d",
      "to": "0x24f48fb3c1ee0f25b4b716c15bf4f76675252834",
      "contractAddress": null
    },
    {
      "status": "0x1",
      "cumulativeGasUsed": "0x83007a",
      "logs": [
        {
          "address": "0x24f48fb3c1ee0f25b4b716c15bf4f76675252834",
          "topics": [
            "0x427db48f8cd0cf7fdabcdbc1327c7db26ce3a544292ba380ef07d5175af729cd",
            "0x000000000000000000000000c2132d05d31c914a87c6611c10748aeb04b58e8f",
            "0x000000000000000000000000000000000000000000000000000000000000def1"
          ],
          "data": "0x000000000000000000000000614610f2f3cb6fb8a9d6ebaac7cab2cf960e01ea",
          "blockHash": "0x961c368cc25b42744a40c21c46946d0749f7b8da3c9c6bac90617c2324606208",
          "blockNumber": "0x4d2933f",
          "blockTimestamp": "0x69515389",
          "transactionHash": "0xfe052772b14835b98cf099ba85788375faf9a4f54fb2906189130dadf749baa8",
          "transactionIndex": "0x46",
          "logIndex": "0x19a",
          "removed": false
        },
        {
          "address": "0x0000000000000000000000000000000000001010",
          "topics": [
            "0x4dfe1bbbcf077ddc3e01291eea2d5c70c2b422b415d95645b9adcfd678cb1d63",
            "0x0000000000000000000000000000000000000000000000000000000000001010",
            "0x000000000000000000000000dbdb7f1d84bbecaccda2ab7f9e6ca181f685022d",
            "0x0000000000000000000000007ee41d8a25641000661b1ef5e6ae8a00400466b0"
          ],
          "data": "0x000000000000000000000000000000000000000000000000000752cf449fb60000000000000000000000000000000000000000000000000c699d775575cb0471000000000000000000000000000000000000000000038ef80abc8dc5e29b6ebc00000000000000000000000000000000000000000000000c69962486312b4e71000000000000000000000000000000000000000000038ef80ac3e095273b24bc",
          "blockHash": "0x961c368cc25b42744a40c21c46946d0749f7b8da3c9c6bac90617c2324606208",
          "blockNumber": "0x4d2933f",
          "blockTimestamp": "0x69515389",
          "transactionHash": "0xfe052772b14835b98cf099ba85788375faf9a4f54fb2906189130dadf749baa8",
          "transactionIndex": "0x46",
          "logIndex": "0x19b",
          "removed": false
        }
      ],
      "logsBloom": "0x00000000000000000000000000000000000008000000000000000000000040000000000000000000000000000000000000008000000000000200000000000000000000000000000000000000000000800004000000000000000100000000000010000000000000000000000000000000000000000000000080000000000000000040802000000000020000000400000000020000000000000000000000000000200000000000000000000000000000000000000000000000000000008000004000000000000200800001000008000000000002400000004000100000000000000000000000000000000000000000000000000000000000000000000000100000",
      "type": "0x2",
      "transactionHash": "0xfe052772b14835b98cf099ba85788375faf9a4f54fb2906189130dadf749baa8",
      "transactionIndex": "0x46",
      "blockHash": "0x961c368cc25b42744a40c21c46946d0749f7b8da3c9c6bac90617c2324606208",
      "blockNumber": "0x4d2933f",
      "gasUsed": "0xd6ba",
      "effectiveGasPrice": "0x186f03f45f",
      "from": "0xdbdb7f1d84bbecaccda2ab7f9e6ca181f685022d",
      "to": "0x24f48fb3c1ee0f25b4b716c15bf4f76675252834",
      "contractAddress": null
    },
    {
      "status": "0x1",
      "cumulativeGasUsed": "0x83d728",
      "logs": [
        {
          "address": "0x24f48fb3c1ee0f25b4b716c15bf4f76675252834",
          "topics": [
            "0x427db48f8cd0cf7fdabcdbc1327c7db26ce3a544292ba380ef07d5175af729cd",
            "0x000000000000000000000000c2132d05d31c914a87c6611c10748aeb04b58e8f",
            "0x0000000000000000000000000000000000000000000000000000000000000082"
          ],
          "data": "0x000000000000000000000000614610f2f3cb6fb8a9d6ebaac7cab2cf960e01ea",
          "blockHash": "0x961c368cc25b42744a40c21c46946d0749f7b8da3c9c6bac90617c2324606208",
          "blockNumber": "0x4d2933f",
          "blockTimestamp": "0x69515389",
          "transactionHash": "0x9c3bd129cd5751f5658a0bf29edc7e471f40d5e519e4020395e47e6e2a401fef",
          "transactionIndex": "0x47",
          "logIndex": "0x19c",
          "removed": false
        },
        {
          "address": "0x0000000000000000000000000000000000001010",
          "topics": [
            "0x4dfe1bbbcf077ddc3e01291eea2d5c70c2b422b415d95645b9adcfd678cb1d63",
            "0x0000000000000000000000000000000000000000000000000000000000001010",
            "0x000000000000000000000000dbdb7f1d84bbecaccda2ab7f9e6ca181f685022d",
            "0x0000000000000000000000007ee41d8a25641000661b1ef5e6ae8a00400466b0"
          ],
          "data": "0x000000000000000000000000000000000000000000000000000752667e88a20000000000000000000000000000000000000000000000000c6988f8c77ea40d6b000000000000000000000000000000000000000000038ef80ac3e095273b24bc00000000000000000000000000000000000000000000000c6981a661001b6b6b000000000000000000000000000000000000000000038ef80acb32fba5c3c6bc",
          "blockHash": "0x961c368cc25b42744a40c21c46946d0749f7b8da3c9c6bac90617c2324606208",
          "blockNumber": "0x4d2933f",
          "blockTimestamp": "0x69515389",
          "transactionHash": "0x9c3bd129cd5751f5658a0bf29edc7e471f40d5e519e4020395e47e6e2a401fef",
          "transactionIndex": "0x47",
          "logIndex": "0x19d",
          "removed": false
        }
      ],
      "logsBloom": "0x00000000000000000000000000000000000008000000000000000000000000000000000000000000000000000000000000008010000000000200000000000000000000000000000000000000000000800004000000000000000100000000000050000000000000000000000000000000000000000000000080000000000000000000802000000000020000000400000000020000000000000000000000000000200000000000000000000000000000000000000000000000000000108000004000000000000200800001000008000000000000400000004000100000000000000000000000000000000000000000000000000000000000000000000000100000",
      "type": "0x2",
      "transactionHash": "0x9c3bd129cd5751f5658a0bf29edc7e471f40d5e519e4020395e47e6e2a401fef",
      "transactionIndex": "0x47",
      "blockHash": "0x961c368cc25b42744a40c21c46946d0749f7b8da3c9c6bac90617c2324606208",
      "blockNumber": "0x4d2933f",
      "gasUsed": "0xd6ae",
      "effectiveGasPrice": "0x186f03f45f",
      "from": "0xdbdb7f1d84bbecaccda2ab7f9e6ca181f685022d",
      "to": "0x24f48fb3c1ee0f25b4b716c15bf4f76675252834",
      "contractAddress": null
    },
    {
      "status": "0x1",
      "cumulativeGasUsed": "0x84adfa",
      "logs": [
        {
          "address": "0x24f48fb3c1ee0f25b4b716c15bf4f76675252834",
          "topics": [
            "0x427db48f8cd0cf7fdabcdbc1327c7db26ce3a544292ba380ef07d5175af729cd",
            "0x000000000000000000000000c2132d05d31c914a87c6611c10748aeb04b58e8f",
            "0x0000000000000000000000000000000000000000000000000000000001406f40"
          ],
          "data": "0x000000000000000000000000614610f2f3cb6fb8a9d6ebaac7cab2cf960e01ea",
          "blockHash": "0x961c368cc25b42744a40c21c46946d0749f7b8da3c9c6bac90617c2324606208",
          "blockNumber": "0x4d2933f",
          "blockTimestamp": "0x69515389",
          "transactionHash": "0xe5b5275c05f49957bd9d8a670791bf76da8d3d8338300f5f8ce7b00a7e1e0c20",
          "transactionIndex": "0x48",
          "logIndex": "0x19e",
          "removed": false
        },
        {
          "address": "0x0000000000000000000000000000000000001010",
          "topics": [
            "0x4dfe1bbbcf077ddc3e01291eea2d5c70c2b422b415d95645b9adcfd678cb1d63",
            "0x0000000000000000000000000000000000000000000000000000000000001010",
            "0x000000000000000000000000dbdb7f1d84bbecaccda2ab7f9e6ca181f685022d",
            "0x0000000000000000000000007ee41d8a25641000661b1ef5e6ae8a00400466b0"
          ],
          "data": "0x000000000000000000000000000000000000000000000000000753a0d0cdde0000000000000000000000000000000000000000000000000c69747b5ebbac8ad9000000000000000000000000000000000000000000038ef80acb32fba5c3c6bc00000000000000000000000000000000000000000000000c696d27bdeadeacd9000000000000000000000000000000000000000000038ef80ad2869c7691a4bc",
          "blockHash": "0x961c368cc25b42744a40c21c46946d0749f7b8da3c9c6bac90617c2324606208",
          "blockNumber": "0x4d2933f",
          "blockTimestamp": "0x69515389",
          "transactionHash": "0xe5b5275c05f49957bd9d8a670791bf76da8d3d8338300f5f8ce7b00a7e1e0c20",
          "transactionIndex": "0x48",
          "logIndex": "0x19f",
          "removed": false
        }
      ],
      "logsBloom": "0x00000000000000000000000000000000000008080000000000000000000000000000000000000000000000000000000000008000000000000200000000000000000000000000000000000000000000800004000000000000000100000000000010000000000000000000000000000000000000000000000080000000000020000000802000000000020000000400000000020000000000000000000000000000200000000000000000000000000000000000000000000000000000008000004000000000000200800001000808000000000000400000004000100000000000000000000000000000000000000000000000000000000000000000000000100000",
      "type": "0x2",
      "transactionHash": "0xe5b5275c05f49957bd9d8a670791bf76da8d3d8338300f5f8ce7b00a7e1e0c20",
      "transactionIndex": "0x48",
      "blockHash": "0x961c368cc25b42744a40c21c46946d0749f7b8da3c9c6bac90617c2324606208",
      "blockNumber": "0x4d2933f",
      "gasUsed": "0xd6d2",
      "effectiveGasPrice": "0x186f03f45f",
      "from": "0xdbdb7f1d84bbecaccda2ab7f9e6ca181f685022d",
      "to": "0x24f48fb3c1ee0f25b4b716c15bf4f76675252834",
      "contractAddress": null
    },
    {
      "status": "0x1",
      "cumulativeGasUsed": "0x8584b4",
      "logs": [
        {
          "address": "0x24f48fb3c1ee0f25b4b716c15bf4f76675252834",
          "topics": [
            "0x427db48f8cd0cf7fdabcdbc1327c7db26ce3a544292ba380ef07d5175af729cd",
            "0x000000000000000000000000c2132d05d31c914a87c6611c10748aeb04b58e8f",
            "0x0000000000000000000000000000000000000000000000000000000000000531"
          ],
          "data": "0x000000000000000000000000614610f2f3cb6fb8a9d6ebaac7cab2cf960e01ea",
          "blockHash": "0x961c368cc25b42744a40c21c46946d0749f7b8da3c9c6bac90617c2324606208",
          "blockNumber": "0x4d2933f",
          "blockTimestamp": "0x69515389",
          "transactionHash": "0x80158aba6fa259e127717d31bf63b9b2c440ad5694add5dd175282d4c0b1b4f0",
          "transactionIndex": "0x49",
          "logIndex": "0x1a0",
          "removed": false
        },
        {
          "address": "0x0000000000000000000000000000000000001010",
          "topics": [
            "0x4dfe1bbbcf077ddc3e01291eea2d5c70c2b422b415d95645b9adcfd678cb1d63",
            "0x0000000000000000000000000000000000000000000000000000000000001010",
            "0x000000000000000000000000dbdb7f1d84bbecaccda2ab7f9e6ca181f685022d",
            "0x0000000000000000000000007ee41d8a25641000661b1ef5e6ae8a00400466b0"
          ],
          "data": "0x000000000000000000000000000000000000000000000000000752cf449fb60000000000000000000000000000000000000000000000000c695ffa865c26aaeb000000000000000000000000000000000000000000038ef80ad2869c7691a4bc00000000000000000000000000000000000000000000000c6958a7b71786f4eb000000000000000000000000000000000000000000038ef80ad9d96bbb315abc",
          "blockHash": "0x961c368cc25b42744a40c21c46946d0749f7b8da3c9c6bac90617c2324606208",
          "blockNumber": "0x4d2933f",
          "blockTimestamp": "0x69515389",
          "transactionHash": "0x80158aba6fa259e127717d31bf63b9b2c440ad5694add5dd175282d4c0b1b4f0",
          "transactionIndex": "0x49",
          "logIndex": "0x1a1",
          "removed": false
        }
      ],
      "logsBloom": "0x00000000000000000000000000000000000008000000000000000000000000000000000000000000000000000000000000008000000000000200000000000000000400000000000000000000000100800004000000000000000100000004000010000000000000000000000000000000000000000000000080000000000000000000802000000000020000000400000000020000000000000000000000000000200000000000000000000000000000000000000000000000000000008000004000000000000200800001000008000000000000400000004000100000000000000000000000000000000000000000000000000000000000000000000000100000",
      "type": "0x2",
      "transactionHash": "0x80158aba6fa259e127717d31bf63b9b2c440ad5694add5dd175282d4c0b1b4f0",
      "transactionIndex": "0x49",
      "blockHash": "0x961c368cc25b42744a40c21c46946d0749f7b8da3c9c6bac90617c2324606208",
      "blockNumber": "0x4d2933f",
      "gasUsed": "0xd6ba",
      "effectiveGasPrice": "0x186f03f45f",
      "from": "0xdbdb7f1d84bbecaccda2ab7f9e6ca181f685022d",
      "to": "0x24f48fb3c1ee0f25b4b716c15bf4f76675252834",
      "contractAddress": null
    },
    {
      "status": "0x1",
      "cumulativeGasUsed": "0x865b62",
      "logs": [
        {
          "address": "0x24f48fb3c1ee0f25b4b716c15bf4f76675252834",
          "topics": [
            "0x427db48f8cd0cf7fdabcdbc1327c7db26ce3a544292ba380ef07d5175af729cd",
            "0x000000000000000000000000c2132d05d31c914a87c6611c10748aeb04b58e8f",
            "0x000000000000000000000000000000000000000000000000000000000000000e"
          ],
          "data": "0x000000000000000000000000614610f2f3cb6fb8a9d6ebaac7cab2cf960e01ea",
          "blockHash": "0x961c368cc25b42744a40c21c46946d0749f7b8da3c9c6bac90617c2324606208",
          "blockNumber": "0x4d2933f",
          "blockTimestamp": "0x69515389",
          "transactionHash": "0xf1101de798fdbe6d02acbffb8cdd628962a4452d5139b77b6795ccf74943e8f9",
          "transactionIndex": "0x4a",
          "logIndex": "0x1a2",
          "removed": false
        },
        {
          "address": "0x0000000000000000000000000000000000001010",
          "topics": [
            "0x4dfe1bbbcf077ddc3e01291eea2d5c70c2b422b415d95645b9adcfd678cb1d63",
            "0x0000000000000000000000000000000000000000000000000000000000001010",
            "0x000000000000000000000000dbdb7f1d84bbecaccda2ab7f9e6ca181f685022d",
            "0x0000000000000000000000007ee41d8a25641000661b1ef5e6ae8a00400466b0"
          ],
          "data": "0x000000000000000000000000000000000000000000000000000752667e88a20000000000000000000000000000000000000000000000000c694b7bf864ffb3e5000000000000000000000000000000000000000000038ef80ad9d96bbb315abc00000000000000000000000000000000000000000000000c69442991e67711e5000000000000000000000000000000000000000000038ef80ae12bd239b9fcbc",
          "blockHash": "0x961c368cc25b42744a40c21c46946d0749f7b8da3c9c6bac90617c2324606208",
          "blockNumber": "0x4d2933f",
          "blockTimestamp": "0x69515389",
          "transactionHash": "0xf1101de798fdbe6d02acbffb8cdd628962a4452d5139b77b6795ccf74943e8f9",
          "transactionIndex": "0x4a",
          "logIndex": "0x1a3",
          "removed": false
        }
      ],
      "logsBloom": "0x00000000000000000000000000000000000008000000000000000000000000000000000000000000000000000000000000008000000000000200000000000000000000000000000800000000000000800004000000000000000100000000000010000000000000000000000000000000000000000000000080000000000000000000802000000000020000000400000008020000000000000000000000000000200000000000000000000000000000000000000000000020000000008000004000000000000200800001000008000000000000400000004000100000000000000000000000000000000000000000000000000000000000000000000000100000",
      "type": "0x2",
      "transactionHash": "0xf1101de798fdbe6d02acbffb8cdd628962a4452d5139b77b6795ccf74943e8f9",
      "transactionIndex": "0x4a",
      "blockHash": "0x961c368cc25b42744a40c21c46946d0749f7b8da3c9c6bac90617c2324606208",
      "blockNumber": "0x4d2933f",
      "gasUsed": "0xd6ae",
      "effectiveGasPrice": "0x186f03f45f",
      "from": "0xdbdb7f1d84bbecaccda2ab7f9e6ca181f685022d",
      "to": "0x24f48fb3c1ee0f25b4b716c15bf4f76675252834",
      "contractAddress": null
    },
    {
      "status": "0x1",
      "cumulativeGasUsed": "0x87321c",
      "logs": [
        {
          "address": "0x24f48fb3c1ee0f25b4b716c15bf4f76675252834",
          "topics": [
            "0x427db48f8cd0cf7fdabcdbc1327c7db26ce3a544292ba380ef07d5175af729cd",
            "0x000000000000000000000000c2132d05d31c914a87c6611c10748aeb04b58e8f",
            "0x00000000000000000000000000000000000000000000000000000000000003e7"
          ],
          "data": "0x000000000000000000000000614610f2f3cb6fb8a9d6ebaac7cab2cf960e01ea",
          "blockHash": "0x961c368cc25b42744a40c21c46946d0749f7b8da3c9c6bac90617c2324606208",
          "blockNumber": "0x4d2933f",
          "blockTimestamp": "0x69515389",
          "transactionHash": "0x1937c0eb42dece1b558249b207806b7bf5cb9f41c11bb156619cec3d6ab5ff55",
          "transactionIndex": "0x4b",
          "logIndex": "0x1a4",
          "removed": false
        },
        {
          "address": "0x0000000000000000000000000000000000001010",
          "topics": [
            "0x4dfe1bbbcf077ddc3e01291eea2d5c70c2b422b415d95645b9adcfd678cb1d63",
            "0x0000000000000000000000000000000000000000000000000000000000001010",
            "0x000000000000000000000000dbdb7f1d84bbecaccda2ab7f9e6ca181f685022d",
            "0x0000000000000000000000007ee41d8a25641000661b1ef5e6ae8a00400466b0"
          ],
          "data": "0x000000000000000000000000000000000000000000000000000752cf449fb60000000000000000000000000000000000000000000000000c6936fe8fa2083153000000000000000000000000000000000000000000038ef80ae12bd239b9fcbc00000000000000000000000000000000000000000000000c692fabc05d687b53000000000000000000000000000000000000000000038ef80ae87ea17e59b2bc",
          "blockHash": "0x961c368cc25b42744a40c21c46946d0749f7b8da3c9c6bac90617c2324606208",
          "blockNumber": "0x4d2933f",
          "blockTimestamp": "0x69515389",
          "transactionHash": "0x1937c0eb42dece1b558249b207806b7bf5cb9f41c11bb156619cec3d6ab5ff55",
          "transactionIndex": "0x4b",
          "logIndex": "0x1a5",
          "removed": false
        }
      ],
      "logsBloom": "0x00000000000000000000000000000000000008000000000000000000000000000000000000000000000000000000000000008000000000000200000000000000000000000000000000000000000000800004000000000000004100080000000010000000000000000000000000000000000000000000000080000000000000000000802000000000020000000400000000020000000000000000000000000000200000000000000000100000000000000000000000000000000000008000004000000000000200800001000008000000000000400000004000100000000000000000000000000000000000000000000000000000000000000000000000100000",
      "type": "0x2",
      "transactionHash": "0x1937c0eb42dece1b558249b207806b7bf5cb9f41c11bb156619cec3d6ab5ff55",
      "transactionIndex": "0x4b",
      "blockHash": "0x961c368cc25b42744a40c21c46946d0749f7b8da3c9c6bac90617c2324606208",
      "blockNumber": "0x4d2933f",
      "gasUsed": "0xd6ba",
      "effectiveGasPrice": "0x186f03f45f",
      "from": "0xdbdb7f1d84bbecaccda2ab7f9e6ca181f685022d",
      "to": "0x24f48fb3c1ee0f25b4b716c15bf4f76675252834",
      "contractAddress": null
    },
    {
      "status": "0x1",
      "cumulativeGasUsed": "0x9914ce",
      "logs": [
        {
          "address": "0x24f48fb3c1ee0f25b4b716c15bf4f76675252834",
          "topics": [
            "0x427db48f8cd0cf7fdabcdbc1327c7db26ce3a544292ba380ef07d5175af729cd",
            "0x000000000000000000000000c2132d05d31c914a87c6611c10748aeb04b58e8f",
            "0x000000000000000000000000000000000000000000000000000000000000001e"
          ],
          "data": "0x000000000000000000000000614610f2f3cb6fb8a9d6ebaac7cab2cf960e01ea",
          "blockHash": "0x961c368cc25b42744a40c21c46946d0749f7b8da3c9c6bac90617c2324606208",
          "blockNumber": "0x4d2933f",
          "blockTimestamp": "0x69515389",
          "transactionHash": "0x5f83c72e4b44e5b5320dcea26c8a8566f637250dced964ad4196f29027b265ba",
          "transactionIndex": "0x50",
          "logIndex": "0x1dc",
          "removed": false
        },
        {
          "address": "0x0000000000000000000000000000000000001010",
          "topics": [
            "0x4dfe1bbbcf077ddc3e01291eea2d5c70c2b422b415d95645b9adcfd678cb1d63",
            "0x0000000000000000000000000000000000000000000000000000000000001010",
            "0x000000000000000000000000dbdb7f1d84bbecaccda2ab7f9e6ca181f685022d",
            "0x0000000000000000000000007ee41d8a25641000661b1ef5e6ae8a00400466b0"
          ],
          "data": "0x000000000000000000000000000000000000000000000000000752667e88a20000000000000000000000000000000000000000000000000c69228001aae13a4d000000000000000000000000000000000000000000038ef80b7d558089200ebc00000000000000000000000000000000000000000000000c691b2d9b2c58984d000000000000000000000000000000000000000000038ef80b84a7e707a8b0bc",
          "blockHash": "0x961c368cc25b42744a40c21c46946d0749f7b8da3c9c6bac90617c2324606208",
          "blockNumber": "0x4d2933f",
          "blockTimestamp": "0x69515389",
          "transactionHash": "0x5f83c72e4b44e5b5320dcea26c8a8566f637250dced964ad4196f29027b265ba",
          "transactionIndex": "0x50",
          "logIndex": "0x1dd",
          "removed": false
        }
      ],
      "logsBloom": "0x00000000000000000000000000000000000008000000000000000000000000000000000000000000000000000400000000008000000000000200000000000000000000000000008000000000000000800004000000000000000100000000000010000000000000000000000000000000000000000000000080000000000000000000802000000000020000000400000000020000000000000000000000000000200000000000000000000000000000000000000000000000000000008000004000000000000200800001000008000000000000400000004000100000000000000000000000000000080000000000000000000000000000000000000000100000",
      "type": "0x2",
      "transactionHash": "0x5f83c72e4b44e5b5320dcea26c8a8566f637250dced964ad4196f29027b265ba",
      "transactionIndex": "0x50",
      "blockHash": "0x961c368cc25b42744a40c21c46946d0749f7b8da3c9c6bac90617c2324606208",
      "blockNumber": "0x4d2933f",
      "gasUsed": "0xd6ae",
      "effectiveGasPrice": "0x186f03f45f",
      "from": "0xdbdb7f1d84bbecaccda2ab7f9e6ca181f685022d",
      "to": "0x24f48fb3c1ee0f25b4b716c15bf4f76675252834",
      "contractAddress": null
    },
    {
      "status": "0x1",
      "cumulativeGasUsed": "0x99eb7c",
      "logs": [
        {
          "address": "0x24f48fb3c1ee0f25b4b716c15bf4f76675252834",
          "topics": [
            "0x427db48f8cd0cf7fdabcdbc1327c7db26ce3a544292ba380ef07d5175af729cd",
            "0x000000000000000000000000c2132d05d31c914a87c6611c10748aeb04b58e8f",
            "0x00000000000000000000000000000000000000000000000000000000000000c4"
          ],
          "data": "0x000000000000000000000000614610f2f3cb6fb8a9d6ebaac7cab2cf960e01ea",
          "blockHash": "0x961c368cc25b42744a40c21c46946d0749f7b8da3c9c6bac90617c2324606208",
          "blockNumber": "0x4d2933f",
          "blockTimestamp": "0x69515389",
          "transactionHash": "0x9fc597df73171024c4b7ae5b0a5e9bce150af0ca15713ca7bb08626e613c6cc2",
          "transactionIndex": "0x51",
          "logIndex": "0x1de",
          "removed": false
        },
        {
          "address": "0x0000000000000000000000000000000000001010",
          "topics": [
            "0x4dfe1bbbcf077ddc3e01291eea2d5c70c2b422b415d95645b9adcfd678cb1d63",
            "0x0000000000000000000000000000000000000000000000000000000000001010",
            "0x000000000000000000000000dbdb7f1d84bbecaccda2ab7f9e6ca181f685022d",
            "0x0000000000000000000000007ee41d8a25641000661b1ef5e6ae8a00400466b0"
          ],
          "data": "0x000000000000000000000000000000000000000000000000000752667e88a20000000000000000000000000000000000000000000000000c690e0298e7e9b7bb000000000000000000000000000000000000000000038ef80b84a7e707a8b0bc00000000000000000000000000000000000000000000000c6906b032696115bb000000000000000000000000000000000000000000038ef80b8bfa4d863152bc",
          "blockHash": "0x961c368cc25b42744a40c21c46946d0749f7b8da3c9c6bac90617c2324606208",
          "blockNumber": "0x4d2933f",
          "blockTimestamp": "0x69515389",
          "transactionHash": "0x9fc597df73171024c4b7ae5b0a5e9bce150af0ca15713ca7bb08626e613c6cc2",
          "transactionIndex": "0x51",
          "logIndex": "0x1df",
          "removed": false
        }
      ],
      "logsBloom": "0x00000000000000000000000000000000000008000000000000000000000000000000000000000000000000000000000000008000000000000200000000000000000000000000000000000000000000800004000000000000000100000000000010000000000000000000000000000000000000000000000080000000000000000000802040000000020000000400000000020000000000000000000000001000200000000000000000000000000000000000000000000000000000008000004000000000000200800001000008000000000000400000004000100000000000000000000000000000000000000000000000000000008000000000000000100000",
      "type": "0x2",
      "transactionHash": "0x9fc597df73171024c4b7ae5b0a5e9bce150af0ca15713ca7bb08626e613c6cc2",
      "transactionIndex": "0x51",
      "blockHash": "0x961c368cc25b42744a40c21c46946d0749f7b8da3c9c6bac90617c2324606208",
      "blockNumber": "0x4d2933f",
      "gasUsed": "0xd6ae",
      "effectiveGasPrice": "0x186f03f45f",
      "from": "0xdbdb7f1d84bbecaccda2ab7f9e6ca181f685022d",
      "to": "0x24f48fb3c1ee0f25b4b716c15bf4f76675252834",
      "contractAddress": null
    },
    {
      "status": "0x1",
      "cumulativeGasUsed": "0x9ac236",
      "logs": [
        {
          "address": "0x24f48fb3c1ee0f25b4b716c15bf4f76675252834",
          "topics": [
            "0x427db48f8cd0cf7fdabcdbc1327c7db26ce3a544292ba380ef07d5175af729cd",
            "0x000000000000000000000000c2132d05d31c914a87c6611c10748aeb04b58e8f",
            "0x0000000000000000000000000000000000000000000000000000000000002611"
          ],
          "data": "0x000000000000000000000000614610f2f3cb6fb8a9d6ebaac7cab2cf960e01ea",
          "blockHash": "0x961c368cc25b42744a40c21c46946d0749f7b8da3c9c6bac90617c2324606208",
          "blockNumber": "0x4d2933f",
          "blockTimestamp": "0x69515389",
          "transactionHash": "0x139ca69216ca6e10df0f6e0989b61c1e252b17586158b92c2b9ecd0bb40acac0",
          "transactionIndex": "0x52",
          "logIndex": "0x1e0",
          "removed": false
        },
        {
          "address": "0x0000000000000000000000000000000000001010",
          "topics": [
            "0x4dfe1bbbcf077ddc3e01291eea2d5c70c2b422b415d95645b9adcfd678cb1d63",
            "0x0000000000000000000000000000000000000000000000000000000000001010",
            "0x000000000000000000000000dbdb7f1d84bbecaccda2ab7f9e6ca181f685022d",
            "0x0000000000000000000000007ee41d8a25641000661b1ef5e6ae8a00400466b0"
          ],
          "data": "0x000000000000000000000000000000000000000000000000000752cf449fb60000000000000000000000000000000000000000000000000c68f9853024f23529000000000000000000000000000000000000000000038ef80b8bfa4d863152bc00000000000000000000000000000000000000000000000c68f23260e0527f29000000000000000000000000000000000000000000038ef80b934d1ccad108bc",
          "blockHash": "0x961c368cc25b42744a40c21c46946d0749f7b8da3c9c6bac90617c2324606208",
          "blockNumber": "0x4d2933f",
          "blockTimestamp": "0x69515389",
          "transactionHash": "0x139ca69216ca6e10df0f6e0989b61c1e252b17586158b92c2b9ecd0bb40acac0",
          "transactionIndex": "0x52",
          "logIndex": "0x1e1",
          "removed": false
        }
      ],
      "logsBloom": "0x00000000000000000000000000000000000008000000000000000000000000000000001000000000000000000000000000008000000000000200000000000000000000000000000000000000000000800004000000000000000100000000000010400000000000000000000000000000000000000000000080000000000000000000802000000000020000000400000000020000000000000000000000800000200000000000000000000000000000000000000000000000000000008000004000000000000200800001000008000000000000400000004000100000000000000000000000000000000000000000000000000000000000000000000000100000",
      "type": "0x2",
      "transactionHash": "0x139ca69216ca6e10df0f6e0989b61c1e252b17586158b92c2b9ecd0bb40acac0",
      "transactionIndex": "0x52",
      "blockHash": "0x961c368cc25b42744a40c21c46946d0749f7b8da3c9c6bac90617c2324606208",
      "blockNumber": "0x4d2933f",
      "gasUsed": "0xd6ba",
      "effectiveGasPrice": "0x186f03f45f",
      "from": "0xdbdb7f1d84bbecaccda2ab7f9e6ca181f685022d",
      "to": "0x24f48fb3c1ee0f25b4b716c15bf4f76675252834",
      "contractAddress": null
    },
    {
      "status": "0x1",
      "cumulativeGasUsed": "0x9b98f0",
      "logs": [
        {
          "address": "0x24f48fb3c1ee0f25b4b716c15bf4f76675252834",
          "topics": [
            "0x427db48f8cd0cf7fdabcdbc1327c7db26ce3a544292ba380ef07d5175af729cd",
            "0x000000000000000000000000c2132d05d31c914a87c6611c10748aeb04b58e8f",
            "0x0000000000000000000000000000000000000000000000000000000000000406"
          ],
          "data": "0x000000000000000000000000614610f2f3cb6fb8a9d6ebaac7cab2cf960e01ea",
          "blockHash": "0x961c368cc25b42744a40c21c46946d0749f7b8da3c9c6bac90617c2324606208",
          "blockNumber": "0x4d2933f",
          "blockTimestamp": "0x69515389",
          "transactionHash": "0x726fa33156e6f014e5224258615ce92f019bd7b557c52996c3b945807786a2c5",
          "transactionIndex": "0x53",
          "logIndex": "0x1e2",
          "removed": false
        },
        {
          "address": "0x0000000000000000000000000000000000001010",
          "topics": [
            "0x4dfe1bbbcf077ddc3e01291eea2d5c70c2b422b415d95645b9adcfd678cb1d63",
            "0x0000000000000000000000000000000000000000000000000000000000001010",
            "0x000000000000000000000000dbdb7f1d84bbecaccda2ab7f9e6ca181f685022d",
            "0x0000000000000000000000007ee41d8a25641000661b1ef5e6ae8a00400466b0"
          ],
          "data": "0x000000000000000000000000000000000000000000000000000752cf449fb60000000000000000000000000000000000000000000000000c68e506a22dcb3e23000000000000000000000000000000000000000000038ef80b934d1ccad108bc00000000000000000000000000000000000000000000000c68ddb3d2e92b8823000000000000000000000000000000000000000000038ef80b9a9fec0f70bebc",
          "blockHash": "0x961c368cc25b42744a40c21c46946d0749f7b8da3c9c6bac90617c2324606208",
          "blockNumber": "0x4d2933f",
          "blockTimestamp": "0x69515389",
          "transactionHash": "0x726fa33156e6f014e5224258615ce92f019bd7b557c52996c3b945807786a2c5",
          "transactionIndex": "0x53",
          "logIndex": "0x1e3",
          "removed": false
        }
      ],
      "logsBloom": "0x00000000000000000000000000000000000008000000000000000000000000000000000000000000000000000000000000008000000000000200000000000000000000000000000000000000000000800004000000000000000100000000000010000000100000000000000000000000000000000000000080000000000000000000802000000000020000000400000000020000000000000000000000000000200000000800000000000000000000000000000000000000000000008000004000000000000200800001000008000000000000400000004000100000000000000000000000010000000000000000000000000000000000000000000000100000",
      "type": "0x2",
      "transactionHash": "0x726fa33156e6f014e5224258615ce92f019bd7b557c52996c3b945807786a2c5",
      "transactionIndex": "0x53",
      "blockHash": "0x961c368cc25b42744a40c21c46946d0749f7b8da3c9c6bac90617c2324606208",
      "blockNumber": "0x4d2933f",
      "gasUsed": "0xd6ba",
      "effectiveGasPrice": "0x186f03f45f",
      "from": "0xdbdb7f1d84bbecaccda2ab7f9e6ca181f685022d",
      "to": "0x24f48fb3c1ee0f25b4b716c15bf4f76675252834",
      "contractAddress": null
    },
    {
      "status": "0x1",
      "cumulativeGasUsed": "0xa169a8",
      "logs": [
        {
          "address": "0x24f48fb3c1ee0f25b4b716c15bf4f76675252834",
          "topics": [
            "0x427db48f8cd0cf7fdabcdbc1327c7db26ce3a544292ba380ef07d5175af729cd",
            "0x000000000000000000000000c2132d05d31c914a87c6611c10748aeb04b58e8f",
            "0x0000000000000000000000000000000000000000000000000000000000001388"
          ],
          "data": "0x000000000000000000000000614610f2f3cb6fb8a9d6ebaac7cab2cf960e01ea",
          "blockHash": "0x961c368cc25b42744a40c21c46946d0749f7b8da3c9c6bac90617c2324606208",
          "blockNumber": "0x4d2933f",
          "blockTimestamp": "0x69515389",
          "transactionHash": "0x726af94447ca5566442f03882c575e45ef0847d8a71046ee31f2ffb60d82a89f",
          "transactionIndex": "0x55",
          "logIndex": "0x1f2",
          "removed": false
        },
        {
          "address": "0x0000000000000000000000000000000000001010",
          "topics": [
            "0x4dfe1bbbcf077ddc3e01291eea2d5c70c2b422b415d95645b9adcfd678cb1d63",
            "0x0000000000000000000000000000000000000000000000000000000000001010",
            "0x000000000000000000000000dbdb7f1d84bbecaccda2ab7f9e6ca181f685022d",
            "0x0000000000000000000000007ee41d8a25641000661b1ef5e6ae8a00400466b0"
          ],
          "data": "0x000000000000000000000000000000000000000000000000000752cf449fb60000000000000000000000000000000000000000000000000c68d0881436a4471d000000000000000000000000000000000000000000038ef80bc61356808d90bc00000000000000000000000000000000000000000000000c68c93544f204911d000000000000000000000000000000000000000000038ef80bcd6625c52d46bc",
          "blockHash": "0x961c368cc25b42744a40c21c46946d0749f7b8da3c9c6bac90617c2324606208",
          "blockNumber": "0x4d2933f",
          "blockTimestamp": "0x69515389",
          "transactionHash": "0x726af94447ca5566442f03882c575e45ef0847d8a71046ee31f2ffb60d82a89f",
          "transactionIndex": "0x55",
          "logIndex": "0x1f3",
          "removed": false
        }
      ],
      "logsBloom": "0x00000000000000000000000000000000000008000000000000000000000000000000000000000000000000000000000000008000000000000200000000000000100000000000000000000000000000800004000000000000000100000000000010000000000000000000000000000000000000000000000080000000000000000000802000000000020000000400000000020000000000000000000000000000200000000000000000000010000000000000000000000000000000008000004000000000000200800001000008000200000000400000004000100000000000000000000000000000000000000000000000000000000000000000000000100000",
      "type": "0x2",
      "transactionHash": "0x726af94447ca5566442f03882c575e45ef0847d8a71046ee31f2ffb60d82a89f",
      "transactionIndex": "0x55",
      "blockHash": "0x961c368cc25b42744a40c21c46946d0749f7b8da3c9c6bac90617c2324606208",
      "blockNumber": "0x4d2933f",
      "gasUsed": "0xd6ba",
      "effectiveGasPrice": "0x186f03f45f",
      "from": "0xdbdb7f1d84bbecaccda2ab7f9e6ca181f685022d",
      "to": "0x24f48fb3c1ee0f25b4b716c15bf4f76675252834",
      "contractAddress": null
    },
    {
      "status": "0x1",
      "cumulativeGasUsed": "0xa24056",
      "logs": [
        {
          "address": "0x24f48fb3c1ee0f25b4b716c15bf4f76675252834",
          "topics": [
            "0x427db48f8cd0cf7fdabcdbc1327c7db26ce3a544292ba380ef07d5175af729cd",
            "0x000000000000000000000000c2132d05d31c914a87c6611c10748aeb04b58e8f",
            "0x000000000000000000000000000000000000000000000000000000000000008f"
          ],
          "data": "0x000000000000000000000000614610f2f3cb6fb8a9d6ebaac7cab2cf960e01ea",
          "blockHash": "0x961c368cc25b42744a40c21c46946d0749f7b8da3c9c6bac90617c2324606208",
          "blockNumber": "0x4d2933f",
          "blockTimestamp": "0x69515389",
          "transactionHash": "0xaf28959a071aa9b6404428f9c9b71c952f2fac1d833484de6a6dd894c745f2b0",
          "transactionIndex": "0x56",
          "logIndex": "0x1f4",
          "removed": false
        },
        {
          "address": "0x0000000000000000000000000000000000001010",
          "topics": [
            "0x4dfe1bbbcf077ddc3e01291eea2d5c70c2b422b415d95645b9adcfd678cb1d63",
            "0x0000000000000000000000000000000000000000000000000000000000001010",
            "0x000000000000000000000000dbdb7f1d84bbecaccda2ab7f9e6ca181f685022d",
            "0x0000000000000000000000007ee41d8a25641000661b1ef5e6ae8a00400466b0"
          ],
          "data": "0x000000000000000000000000000000000000000000000000000752667e88a20000000000000000000000000000000000000000000000000c68bc09863f7d5017000000000000000000000000000000000000000000038ef80bcd6625c52d46bc00000000000000000000000000000000000000000000000c68b4b71fc0f4ae17000000000000000000000000000000000000000000038ef80bd4b88c43b5e8bc",
          "blockHash": "0x961c368cc25b42744a40c21c46946d0749f7b8da3c9c6bac90617c2324606208",
          "blockNumber": "0x4d2933f",
          "blockTimestamp": "0x69515389",
          "transactionHash": "0xaf28959a071aa9b6404428f9c9b71c952f2fac1d833484de6a6dd894c745f2b0",
          "transactionIndex": "0x56",
          "logIndex": "0x1f5",
          "removed": false
        }
      ],
      "logsBloom": "0x00000000000000000000000000000000000008000000000000000000000000000000000000000000000000000000000000008000000000000200000000000000000000000000000000000000000000800004000000000000000100000000000010000000000000000000000000000000000000000000000080000000000000000000802000000000020000000400000080020000000000000000000400000000200000000000000000000000000000000000000000000000000000008000004000000000000200800001000008000000000000400000004000100000000800000000000000000000000000000000000000000000000000000000000000100000",
      "type": "0x2",
      "transactionHash": "0xaf28959a071aa9b6404428f9c9b71c952f2fac1d833484de6a6dd894c745f2b0",
      "transactionIndex": "0x56",
      "blockHash": "0x961c368cc25b42744a40c21c46946d0749f7b8da3c9c6bac90617c2324606208",
      "blockNumber": "0x4d2933f",
      "gasUsed": "0xd6ae",
      "effectiveGasPrice": "0x186f03f45f",
      "from": "0xdbdb7f1d84bbecaccda2ab7f9e6ca181f685022d",
      "to": "0x24f48fb3c1ee0f25b4b716c15bf4f76675252834",
      "contractAddress": null
    },
    {
      "status": "0x1",
      "cumulativeGasUsed": "0xa31710",
      "logs": [
        {
          "address": "0x24f48fb3c1ee0f25b4b716c15bf4f76675252834",
          "topics": [
            "0x427db48f8cd0cf7fdabcdbc1327c7db26ce3a544292ba380ef07d5175af729cd",
            "0x000000000000000000000000c2132d05d31c914a87c6611c10748aeb04b58e8f",
            "0x00000000000000000000000000000000000000000000000000000000000003dc"
          ],
          "data": "0x000000000000000000000000614610f2f3cb6fb8a9d6ebaac7cab2cf960e01ea",
          "blockHash": "0x961c368cc25b42744a40c21c46946d0749f7b8da3c9c6bac90617c2324606208",
          "blockNumber": "0x4d2933f",
          "blockTimestamp": "0x69515389",
          "transactionHash": "0xa8d438411451935060bd0113db6137db597683270d335762e1324e6bb1ca34a1",
          "transactionIndex": "0x57",
          "logIndex": "0x1f6",
          "removed": false
        },
        {
          "address": "0x0000000000000000000000000000000000001010",
          "topics": [
            "0x4dfe1bbbcf077ddc3e01291eea2d5c70c2b422b415d95645b9adcfd678cb1d63",
            "0x0000000000000000000000000000000000000000000000000000000000001010",
            "0x000000000000000000000000dbdb7f1d84bbecaccda2ab7f9e6ca181f685022d",
            "0x0000000000000000000000007ee41d8a25641000661b1ef5e6ae8a00400466b0"
          ],
          "data": "0x000000000000000000000000000000000000000000000000000752cf449fb60000000000000000000000000000000000000000000000000c68a78c1d7c85cd85000000000000000000000000000000000000000000038ef80bd4b88c43b5e8bc00000000000000000000000000000000000000000000000c68a0394e37e61785000000000000000000000000000000000000000000038ef80bdc0b5b88559ebc",
          "blockHash": "0x961c368cc25b42744a40c21c46946d0749f7b8da3c9c6bac90617c2324606208",
          "blockNumber": "0x4d2933f",
          "blockTimestamp": "0x69515389",
          "transactionHash": "0xa8d438411451935060bd0113db6137db597683270d335762e1324e6bb1ca34a1",
          "transactionIndex": "0x57",
          "logIndex": "0x1f7",
          "removed": false
        }
      ],
      "logsBloom": "0x00000000000000000000000000000000000008000000000000000000000000000000000000000000000000000000000000008000000000000200000000000000000000000000000000000000000000800004000000000000000100000000000010000000000000000000000000000000000000000000000080000800000000000000802000000000020000000400000000020000000000000000000000000000200000000000000000000000000000000000000000000000000000008000004000000000000200800001000008000000000000400000004000100000000000000000000000000400000000000000000000000000000000000000000000100000",
      "type": "0x2",
      "transactionHash": "0xa8d438411451935060bd0113db6137db597683270d335762e1324e6bb1ca34a1",
      "transactionIndex": "0x57",
      "blockHash": "0x961c368cc25b42744a40c21c46946d0749f7b8da3c9c6bac90617c2324606208",
      "blockNumber": "0x4d2933f",
      "gasUsed": "0xd6ba",
      "effectiveGasPrice": "0x186f03f45f",
      "from": "0xdbdb7f1d84bbecaccda2ab7f9e6ca181f685022d",
      "to": "0x24f48fb3c1ee0f25b4b716c15bf4f76675252834",
      "contractAddress": null
    }
  ],
  "libraries": [],
  "pending": [],
  "returns": {},
  "timestamp": 1766937482691,
  "chain": 137,
  "commit": "adde6bd"
}